:100000000C94910D0C94B90D0C94B90D0C94B90D80
:100010000C94B90D0C94B90D0C94B90D0C94B90D48
:100020000C94B90D0C94B90D0C94B90D0C94B90D38
:100030000C94B90D0C94B90D0C94B90D0C94B90D28
:100040000C94B90D0C94B90D0C94B90D0C94B90D18
:100050000C94B90D0C94B90D0C94B90D0C94282A7C
:100060000C94B90D0C94B90D0C94B90D0C94B90DF8
:100070000C94B90D0C94B90D0C94B90D0C94B90DE8
:100080000C94BD290C94B90D0C94B90D0C94B90DB8
:100090000C94B90D0C94B90D0C94B90D0C94B90DC8
:1000A0000C94B90D0C94B90D0C94B90DFF0D5F0EA5
:1000B000980FD40F32113211011475142213D11478
:1000C0001F15DC1503163B162217AF1748177A17B2
:1000D000A217AF17D217AF17CA17CA17CA17CA176E
:1000E000B917210F27000E9C3973E6CC993367CEE0
:1000F0009C3973E6CC9907003CE40167CE9C3973C8
:10010000E6CC993367CE9C3973E6C82B1F0F2700C6
:100110000E9C3973E6CC993367CE9C3973E6CC03D9
:10012000001EF2803367CE9C3973E6CC993367CEDC
:100130009C39F20A507573687E6F6E7E74776F7E9D
:10014000426C61636B6A61636B732100496E737506
:1001500072656420426C61636B6A61636B21004469
:1001600065616C65727E6861737E6E6F7468696EBE
:100170006721004465616C65727E6861737E426CC4
:1001800061636B6A61636B210054776F7E626C619F
:10019000636B6A61636B7321003DD7E71E0EE396C4
:1001A00003B5923A593652578635D48AC385D4AEB0
:1001B0007AB5AB968357576B2575312DA636528B82
:1001C000A9C36931B5915A00EB70E6360E873EFB44
:1001D0002D3876C3CD53743314CCA8B012D08650CA
:1001E00052C1647957AD82208C084B4407265B448A
:1001F0006C6A89C881BD3706B6F1E3772F8771F441
:10020000A7B22E0B11590BDF1D169B75B8A10B2B36
:100210000BB4D3231D6B945FE4711C2E6E3D979B32
:10022000DB9CA71E9D8D010462B24DA7575B8C918C
:10023000D60B31EA300EE26C0C50E26C0C40E3D588
:10024000AB57AF5EBD7AF5EAD5634F73DEB8FF0CEE
:10025000DED3628C74307DC4F22A0C167275381DA0
:100260006C070B594C6FC85FEBD59AA75CF96E3ED3
:10027000255EC42B7001E192636F39162E9C41B844
:10028000E47773CD69AE2B3DD7E71E0EE396AB57EF
:10029000AF5EBD7AF5EAD5AB57AF5EBD7AF5EAD56C
:1002A000AB57AF5EBD7AF5EA35B77138F4D9D7D020
:1002B000811D073061D164C464A09131B27131B73E
:1002C0007BB2E439271D8E125B171D632A67C67641
:1002D0000F0E0CBCC6A0E255BE76F7721847FF356C
:1002E0007A1C878B1B3DD7E71E0EE396AB57AF5E9C
:1002F000BD7A21461B831926258E51E3204653875C
:100300002166C7ABD9315CBC7AF5EAD5AB57AFB93A
:100310008DC3A1CF3E8AB9E49E4BE46D2F123145C7
:100320008CB806658B2E89B253CC30112302282657
:100330002E5F8D0BE5823979054FF91D772F877177
:10034000F4C2DE274F7B73D66E102EB0B6E790BD99
:100350003EC0DE1B03DBF89E6DDD41D8889ED97B55
:10036000F3D2E3385CDC3D979BDB9CA71EBD7AF59E
:10037000EAD5AB571D5163AC6BE94C2D20B56378C2
:10038000F5EAD5AB57AF5EBD7AF5EAD5634F73DEBC
:10039000B87FBF1B830B40F2D4573CEA91C99D95AF
:1003A000E1A39C39F2821B72136EE245BC7AE39C96
:1003B000A3DF7BB5E629575EA9DBC1C671F0DE0B72
:1003C000E5326EB9458E9E0C17CE3D0A279E70030E
:1003D000AF1E3D7A156EC03193E1CC69AE2B3D97CF
:1003E0009BDB9CA71E3D50BB6A897564594C6DA46C
:1003F00016C03A9C4E960DD67679B598DA48BD5A15
:100400004C6DA416C03A94DA554BA91DC3ABC79ED8
:10041000E6BC71FF0DA4BB616B163558F7400C5854
:100420008DC3AD820B0605C15A951B826E131682D1
:10043000B128B8133120A23109E91E72989B9FF2AE
:100440006ACD53AEFCA83DD54BE9CE533AD62867CA
:10045000D66511705F4EE8C2CA02EDF49770CD699F
:10046000AE2B3D979BDB9CA71E3D50BB6A897564F4
:10047000594C6DA416C03A9C4E960DD67679B59817
:10048000DA48BD5A4C6DA416C03A94DA554BA91DF2
:10049000C3ABC79EE6BC71FF0DA4031BAC9A93C10E
:1004A000BA6560601BD3AD76C10584C4AAC8019348
:1004B000BD591C2C895B440C086A2C258D19A2633C
:1004C0006E7ECAAB354FB9F2093AD6801B8C35CA5D
:1004D000D5B56163608D784217561668A75F202CEA
:1004E00025AE445830F0CCBA2CBEC535A7B9AE3DC8
:1004F000D7E71E0EE396AB57AF5EBD7AF5EAD5ABF4
:1005000057AF5EBD7AF5EAD5AB57AF5EBD7AF5EA77
:1005100035B77138F4D9159DA30383ED1A75E895A5
:10052000B1DD2242488C0803AF32BC794B464C0601
:10053000328078CA181865246624656C7792DA557B
:1005400049BC1E18781551021A115FDCBD1CC6D1BA
:100550007F8D1EC7E1E2061797DE7265E6642C31D7
:10056000D6C17633AC31D478CAE49AB59FE509D1C7
:10057000A8C509026C161B409852351A9EE43EA786
:100580009DD1CB2A9D8321B445DA226DC1C198A5A6
:10059000EBA29975021797DE32292021600501141C
:1005A00034AAF1E0D5821222082E0134C4D88EFD7F
:1005B0002C4958B37108CED0CD62974CC1613A87AF
:1005C00049729FD3CEE86595CEC110DA226D91B6FF
:1005D000E060CCD275D1CC3A011797DE32292021C8
:1005E0006005011434AAF1E0C1A8464101042B843E
:1005F000205066D67E161BD66C1C823374B3D82569
:10060000537098CE616AEE73DA19BDACD2391842D4
:100610005BA42DD2161C8C59BA2E9A59271797DE37
:10062000A2510165800A0280002AA28BE96429A2F6
:10063000020800820A0305D468D67E161BC71A7109
:1006400020CEBD59EC3D4586196B989AFB9C7646A9
:100650002FAB740E86D016698BB405076396AE8BEC
:1006600066D6099797BF9FB3D73CDACF958DCA4618
:100670006523D3C34D64A3B251D9C8BB3D241A949A
:1006800004190E643810080504A0C0020A142801D9
:1006900064389001866050D7099797CFBC7AF56788
:1006A00070F69A47FB035D14B2826105A6879B90A2
:1006B00045242B1856E0DD1E920891D4E5126A10ED
:1006C000805040000A2CA040813290E14006188200
:1006D000415D2797972F3921473FCF6401CB1246C1
:1006E0001EED0F7411C90A919583879B9085212B6C
:1006F00018561FEE21D1A024C87020C38188141081
:1007000080020B2850A088C87020030CC1A0AE1333
:1007100097D77F06AE1E73DFEFB804C30A92452455
:10072000E13ABB120C2B4816913CDDB83428211D50
:10073000C87020C300020B80020516B000813890FB
:10074000E1402291A8646C2FAFDFF5449D6CC30D8E
:10075000B92137E486DC901B72436EC80DB921378E
:10076000E4E26079407FFDDE897F56EEFB774EB88C
:10077000920128D3C5DF8F05E01AD3397F1F3017C8
:100780002CE6CCFCFBAD830BBA38E45728071830B5
:10079000E080B9143B54D358B162196A81A8CA5891
:1007A000838250C61AA81AA0EA60801586A926B8C6
:1007B000E70185091394935FF1DA5B6FBDE5081CCF
:1007C00081A370036F7DDBB7BD09678EC031B7DED3
:1007D0007AEBCDAB772FEF5F570E2E8617E486DCD2
:1007E000901B72436EC80DB92137E486DC901B71F3
:1007F000332D277FF7DE265F416EC80DB92137E420
:1008000086FC2A9EED1F3AA7730405982CFE7C2EC9
:100810002230C215E6EFE288737A38FEE166E6958B
:100820008C92FC084F284C98A05CE60C21090360D0
:10083000C080C31A74057570A1D4522E0C95AC32C9
:10084000E694811108E09075881C60C08003FA1559
:10085000AFDE7AEBADB7DE7AEB4DB8F5E6DD9B7730
:100860006FBD81B7DE7AEBADB7DE7AF515150F27D0
:10087000000E9C3973E6CC9933671E00F090079CFC
:100880003973E6CC9933678EBC02150FA7218BC94B
:100890006432B120C5C2C4421105984C269B3DDE8E
:1008A000B9D94C269322458A4C8A4C8A4C2693C946
:1008B00062F80A198F39E5CFC3718C9DC3615DD68B
:1008C000655DD6655DD6655DD6655DD665CE232949
:1008D0000F27000E9C3973E6CC993367CE9C397391
:1008E000E6CC993367CE9C7900C0431E70E6CC9964
:1008F0003367CE9C3973E6CC993367CE9C3973E667
:10090000C82B190FA7218BC9C482140B130B130B0F
:10091000132916A44CA4589032D9ECF1CECD6652CE
:10092000A442914991224526458A14994C8A4C2625
:1009300093C5F015298F7B0C4EC8AA882C445645C8
:10094000241559159154E480880D2207446C1059E0
:1009500015915464556455645544A088DC08637C43
:100960004039B0D8A86C246C543612361236123680
:1009700041368B8DCA46C246C246C246652361A334
:10098000B291B0199CBC03298F39E59F07C7317616
:100990000E87755997755997755997755997755960
:1009A00097755997755997755997755997398F193B
:1009B0004F7B6C361323028220132A520065528427
:1009C0004A910915013132992C1C1F70B0984CA422
:1009D00048913291329132912245CA44CA6432D947
:1009E0006CEF1D0F27000E9C3973E6CC993367CE50
:1009F0009C3973E601000F79C0993367CE9C397337
:100A0000E6CC9933678EBC02190F27000E9C397310
:100A1000E6CC993367CE9C7900C0431E70E6CC9932
:100A20003367CE9C3973E6C82B130F27000E9C3911
:100A300073E6CC99330F0078C803CE9C3973E6CCAB
:100A40009923AF001D8F7B0C4EC8AA882C445645B5
:100A50006EC8AA884011591511A022AB220280222B
:100A600037C2181F500E2C362A1B091B958D848DFA
:100A7000CA46C246C246C246C246C26670F20E1995
:100A80000FA7218BC9C48280189958984C26160448
:100A9000C4C2C448052393CD1EEFDC6C26452693C3
:100AA000499122452645264526932293C964317CE7
:100AB00005198F39E5CFC3718C9DC3615DD6655D26
:100AC000D6655DD6655DD6655DD665CE23138F7B15
:100AD0000C4EC80D1104103113310222820BB911D2
:100AE000C6F8807260B109B251D904D9A86C169BBE
:100AF000C1C93B138F7B0C4EC80D0956E486D82024
:100B0000621772238CF101E5C0621364A3B209B2CB
:100B100051D92C36839377134F7B6C3693C964621B
:100B20004440106432994C260BC7071C2C2693C9ED
:100B30006422458A94C96432D96CEF138F7B0C4EC2
:100B4000C80DB921C18ADC901B72238CF101E5C06C
:100B500062B3D804D9A86C169BC56670F20E138FC9
:100B600039E5E7721C63E77058977559977559977F
:100B7000755997398F1D8F7B0C4EC88C880082C8A1
:100B8000AA8880115915B92107446C103920628355
:100B9000C88D30C60794038B8DCA46C246C266B163
:100BA00051D948D8A86C246C826C169BC1C93B21D2
:100BB0008F7B0C4EC8AA88244156452415591559D7
:100BC0001559151100145915B921AB220245E446F7
:100BD00018E303CA81C54665B3D8A86C246C5436A3
:100BE00012362A1B091B958D848DCA46C26670F287
:100BF0000E218F39E5CFCB718C9DC3615DD6655DCC
:100C0000D6655DD6655DD6655DD6655DD6655DD616
:100C100065CE231D0FA7218BC9C4888008C2448AD2
:100C20000529130B02626162418A85890529094CF5
:100C3000367BBC73B39914295264322932991499C2
:100C4000149914991499142932994C16C3571D8F6D
:100C500039E5CFC7718C9DC3615DD6655DD6655D95
:100C6000D6655DD6655DD6655DD665CE231F0FA7BB
:100C7000218BC9C442110B132916A44CA4589032DD
:100C8000994C2C44B130B1202052269B3DDEB9D97D
:100C90004C8A4C8A4C8A1429329914994C269322F6
:100CA00093229322458A4C268BE12B9FCF631CF91C
:100CB00073E6749FF3B22EEBB22EEBB22EEBB22E94
:100CC000EBB22EEBB22EEBB20E876C507573680050
:100CD0002020207E4C6F73653A7E2000202020204B
:100CE0007E57696E3A7E20000A20546F747E4265FA
:100CF000743A7E20000A496E69747E4265743A7EB9
:100D0000200020207E50757273653A7E008707A30D
:100D10001D594E9E02439FB387C338FAAFD1E338C3
:100D20001CFAD97FEF2B9FF1721847FE7D721C874A
:100D3000BDF7DE09BFC5AB57AF5EBD7AF5EAD5ABEF
:100D400057AF5EBD7AF5EAD5AB57AF5EBD7AF5EA2F
:100D5000CF0555A79BDB9CA76E6A572D078BA91D56
:100D6000C3626A23758C5A406A956131B599CED4B5
:100D7000665A4C6DA4165387D3C9B2C1DA2EAF168A
:100D8000533B86C5D446EACAB0865A625D48EDAA8E
:100D900045A0561C1E7B9AF3C6F7BF4748631AE26C
:100DA00085BD4B88C3EC723006951258B11EE88C95
:100DB00061113AEFEC5D82AD69B81AB3202C107660
:100DC000355E08DD9B38CC0EDB61A3312C62293502
:100DD000A4314336A8073FFCFD2F325697C844B7CD
:100DE0006314862C28A39603C67660B8A8C5A01401
:100DF000143A944578CE585D72C1D535B8DA416160
:100E0000E1808EE199DE4AD4753BD35BB950B37E65
:100E10001263D41C942F5CF2E760E05586376FC9EB
:100E200088C9402363E4A6B1828AA214E5C2C0AB9C
:100E30008812D08878515355106560D0BF4F2E3F2F
:100E4000D5636FBDF5D65B6FBDF5D65B6FBDF5D6CF
:100E50005B6FBDF5D65B6FBDF5D65B6FBDF5D65B41
:100E60006FBDF5D65B6FBDF5D65B8FFE3CD5E7DC7D
:100E7000E63CE5CA7F0FB8E634E7C7FFBBF3DDFF0A
:100E8000EE701C831C7875C97F5DB27E5E6EE3B226
:100E90002EEBB22EEBB22EEBB22EEBB22EEBB22E2D
:100EA000EBB22EEBB22EEBB22EEBB22EEBB22EEB60
:100EB000B22EEBB22EEBB22EEBB22EEBB22EEB3209
:100EC0006EF95955979BDB9CA71EBD10B363B8788C
:100ED000758C1A07319A3A9C561A03911841EA8583
:100EE000981D83811863BD7A21461B831926258EA0
:100EF00051E3204653872166C7ABD9315C0C69CCDE
:100F000090181CB16E8F3DCD79E3FB5F078389900C
:100F1000C82268BB5840C534C400234398060CA5BA
:100F200040A0693D62D244160130AD0BB9E50D66B3
:100F30009848BA388A8B10D36601CB3691B0304DC1
:100F40005DC8268E1530688544021EF9E291AFAE69
:100F500079CA951BEBB238D3B156D832D63869640A
:100F6000A108ABF1D639CAA263F644C71A20338C64
:100F7000453899B120B2612FAF74AC15B68C358E5F
:100F8000733A594C3652D66521049601CB35A739B0
:100F90002FEB12BCF00255D7E71E0EE396AB57AF0E
:100FA0005EBD7AF5EAD5AB57AF5EBD7AF5EAD5AB53
:100FB00057AF5EBD7AF5EAD5AB57AF5EBD7AF5EABD
:100FC000D56B6EE370E8CF78C7C0AB0C0E8CED8E9E
:100FD000419DCE453456505194A284B9DCD7EDBA28
:100FE00030B65B440C3386EBEC005107EBE081B18B
:100FF000DD31A8D3B9683262329001C42230F02AC0
:10100000A20434229E89882822ABF1EDCA67BD1C58
:10101000C6D1FF3A781C87C3BAAC8BE111559FB398
:1010200087C338FA5F078FE370E867FFFBB3F219F5
:101030002F8771E4BF171CC761EFBD77C26FF1EA5C
:10104000D5AB57AF5EBD7AF5EAD5AB57AF5EBD7A8B
:10105000F5EAD5AB57AF5EBD7AF5EAD5AB57AF5ED3
:10106000BD7AF5E7022FAF1F9DF394BF6E4E73FE5E
:10107000C87F1F3FE85FCF0FE0F8AFE490EF789AAA
:10108000F3E4BF0F4F739EDCB9ACCBBAACCBBAACB8
:10109000CBBAACCBBAACCBBAACCBBAACCBBAACCB90
:1010A000BAACCBBAACCBBAACCBBAAC4B007F8F8D61
:1010B0008115032B06560CAC185831B06260C5C0C0
:1010C0008A8115032B06560CAC185831B06260C5E6
:1010D000C08A8115032B06560CAC185831B06260DB
:1010E000C5C08A8115032B06560CAC185831B06266
:1010F00060C5C08A8115032B06560CAC185831B058
:101100006260C5C08A8115032B06560CAC18583195
:10111000B06260C5C08A8115032B06560CAC185806
:1011200031B06260C5C08A8115032B06560CAC181D
:101130005831B06260C580FFFD072E004465616CC8
:1011400065727E69737E7065656B696E677E004946
:101150006E737572616E63653F2000496E697469D4
:10116000616C7E6265743F20000507DA82410BF5F1
:101170000605073A02AE04EA0D05073A9A950E6F86
:101180000507A4A3C3D1DC00A187DD0D9BBB201BF9
:10119000C46B2EBDE43864E33878DCB75EC04B6FB7
:1011A000A11BC51B0D0F0CA4C0400A0CA4C0400A13
:1011B0000CA4C0400A0C78C1993367CE9C7904CD49
:1011C00087DDD213C7018702DCBA45397281E0910D
:1011D0000B04BFD52D3D71DC9BC531975E7296EC3B
:1011E000E0730F1838782CDCD6A7C61EA7E04D7226
:1011F000EB969E380EDC088D8F119225244B489675
:10120000902C215942B204762EEBB22EEBB22EEB8B
:10121000B28E23474D474646F3DB46B3F839AC74EC
:101220001C59E9D87FFFFFA3431DD3ABA6513388D8
:101230009331F24C9FDDBD8917F522B98CC739ADCA
:101240008B7A919CF2469F1D259775517F813AA616
:1012500057BD387B522FEA659DBC731C97E045BD96
:101260008C2307C7E47EF0B22EC18B7F62B7BD75B9
:10127000D5BA6D9C63905776F556CFC9E82058AD26
:10128000AC53572DA3F33232ADDB26E8442E76F56E
:1012900036257B30DA657D94796AA675A6A7D917BD
:1012A00019C351193A708E5B3DB00E6B24755B67A4
:1012B000862A777BEBC2CB1E23ADDBFFC1E8D5FFCF
:1012C000BC72444E085C40B8807001E1023DB40637
:1012D0002FC0026B6404B82137002E205C20B0A11F
:1012E0003061C1820503361436042E209C901B7297
:1012F000F4EA7F68D6D22784D04E3E044DEE8E6647
:10130000A5C30B7F4FAE5E816501AAFD2FC8DE2FFE
:10131000DC61CCC4175AFD951C7B9AF3324EBB7F1F
:101320008AB6FD370201020408102040800507DA62
:1013300082410BF50605073A02AE04EA0D05073AAD
:101340009A950E6F0507A4A3C3D1DC000507DA82C6
:10135000410BF50605073A02AE04EA0D05073A9A75
:10136000950E6F0507A4A3C3D1DC0003081F051F5A
:101370001F151B1F11111F110E1F15111F05011F16
:10138000111D1F041F001F0010101F1F041B1F1022
:10139000101F061F1F011F1F111F1F05071F311FD1
:1013A0001F051B17151D011F011F101F0F100F1FF9
:1013B0000C1F1B041B071C071915130C121E1F12F0
:1013C0000C1E12120C121F0C1A14041F052E2A1EBA
:1013D0001F021C001D00201D001F041A011F001EFB
:1013E000041E1E021E1E121E3E120C0C123E1E0277
:1013F0000614120A020F121E101E0E100E1E081ED8
:101400001A041A2E281E1A12161F111F121F101D41
:10141000151711151F07041F17151D1F151D010195
:101420001F1F151F17151F001700001000040404CC
:10143000040E040229060A00007F8F8D8115032BFC
:1014400006560CAC185831B06260C5C08A811503CD
:101450002B06560CAC185831B06260C5C08A811595
:10146000032B06560CAC185831B06260C5C08A8197
:1014700015032B06560CAC185831B06260C5C08AF3
:101480008115032B06560CAC185831B06260C5C0EC
:101490008A8115032B06560CAC185831B06260C512
:1014A000C08A8115032B06560CAC185831B0626007
:1014B000C5C08A8115032B06560CAC185831B06292
:1014C00060C580FFFD0749100303FFFFFF636363EF
:1014D000F7FFBE1C00000303FFFFFF63E3E3E3F736
:1014E0007F3E1C000000F0FCFE0E07030303070E06
:1014F000FEFCF000000303FFFFFFC3E370F0FBCF2F
:101500000F0703000303FFFFFF6363F3F3070F0CF1
:101510000018181F1F1F1818181C1F0F070000188D
:10152000181F1F1F181801070F1F1E181800000191
:10153000070F0E1C1818181C0E0F070100001818B2
:101540001F1F1F191800001B1F1F1E181818181F17
:101550001F1F181819191C1E0F035B1003071F3FCC
:101560007FF3E0E07B1F0F0303F0FCFE0E07030395
:1015700003070EFEFCF000000303FFFFFF03030060
:101580000303FFFF0303000000000000000000C091
:10159000F8BE8FBFFFF8C00000000303FFFFFF632A
:1015A000E3E3E3F77F3E1C0000000303FFFFFF635C
:1015B00063F3F3070F0C0000000018181F1F1F181B
:1015C0001800000001070F0E1C1818181C0E0F073A
:1015D0000100000000070F0F1C1818180C0F07005F
:1015E0000000000000000018181F1F190101191940
:1015F0001F1F1E181818181F1F1F181801070F1F6C
:101600001C1818000018181F1F1F181819191C1E65
:101610000F0300010000EC006100B500B50061009F
:10162000EC00000000019FFFEC004BFFB50014FF31
:10163000610000FF000014FF9FFF4BFF4BFF9FFF67
:1016400014FF000000FF610014FFB5004BFFEC0029
:101650009FFF80104040404040404040404040405C
:1016600040404040800000000000000000000000FA
:10167000E0D020A020A0404040808080800000007A
:10168000000000000000000000000000000000005A
:10169000000000000000000000000000000000004A
:1016A000000000000000000000000000000000003A
:1016B000000080808040404040A020A01090D0904A
:1016C00068487000000000000000000000000000FA
:1016D00000000000DB92DB92DB92DB92DB92C10C1C
:1016E0005AD29AD29AD29AD29AD29AD29AD29AD2DA
:1016F0009AD28D610163D392D394D694CE89CD8949
:10170000DA92CE80D090D090600000004CDA92DA6D
:1017100092DA92DA92DA92DA92DA921A52DA92CC77
:1017200080D090D090D090D090D090D090D0906039
:10173000070D0466D496D293D291D191D190D096D0
:10174000D591D591D5916509CD89CD89C10C5AD254
:101750009AD29AD26B10081F070303FFFFFF0303FF
:101760000F1F080303FFFFFF6363606363FFFFFF57
:101770000303000303FFFFFF6363F3F3070F0C0092
:10178000000000000000000303FFFFFF636363F736
:10179000FFBE1C0000000000C0F8BE8FBFFEF8C0F6
:1017A000000000000303FFFF1F7CF0C383FFFF0363
:1017B00003000303FFFFFFC3E370F0FBCF0F07033A
:1017C0000000000018181F1F1F181800000018182C
:1017D0001F1F1F18180018181F1F1F18180018188F
:1017E0001F1F1F181818181C1E0F030000000000F0
:1017F000000018181F1F1F1818181C1F0F070000C3
:1018000018181F1F19010119191F1F1E1818001879
:10181000181F1F181801071F1F1F00000018181F8E
:101820001F1F191800001B1F1F1E18187710030315
:10183000071F3F7FF3E0E07B1F0F0303F0FCFE0E6A
:1018400007030303070EFEFCF00303FFFFFF030380
:10185000000303FFFF03030000000000000303FF79
:10186000FFFF636363F7FFBE1C00000303FFFFFF7E
:1018700063E3E3E3F77F3E1C0000F0FCFE0E07038A
:101880000303070EFEFCF0000303FFFFFFC3E3703A
:10189000F0FBCF0F070300000303FFFFFF6363F3B9
:1018A000F3070F0C000000000018181F1F1F181866
:1018B00000000001070F0E1C1818181C0E0F07015E
:1018C0000000070F0F1C1818180C0F07000000006D
:1018D0000000000018181F1F1F1818181C1F0F07E2
:1018E000000018181F1F1F181801070F1F1E1818B7
:1018F0000001070F0E1C1818181C0E0F0701001806
:10190000181F1F1F191800001B1F1F1E1800181872
:10191000181F1F1F181818181C1E0F03D5F08D1440
:10192000A1C881CFD9F1AF200007876F0181830261
:101930001B0007C78F483620B0015307072F59C037
:1019400064322907874F83000B4080150007476FDB
:10195000339819C00807876F23B023B00307072FF8
:10196000994C36230507476F338091C90807070F45
:10197000331919CC1407876F59EC086C0007070F4F
:1019800033594E460A07070F3398998C1407070FEF
:1019900081018C0C60A407C76F12B6CC195307C71E
:1019A0006F12F665260C07C78F48E665260C0707F9
:1019B0002F58E9C8C8285005077B0C86F80405078E
:1019C0007B84E8780205072736E91B8587E3341610
:1019D000592705872728C01A7705077B04808C279D
:1019E000058767C9C13B0587A705B0027705073B97
:1019F00010000279020587C7C81E7705872722C015
:101A00001A7705071B120012780205077B0418E3FA
:101A1000090507DA82410BF50605073A02AE04EA2A
:101A20000D05073A9A950E6F0507A4A3C3D1DC00F4
:101A3000850F008000200008000280002000088040
:101A4000008000080008808D0F0080002000080042
:101A500002800020000800028000200008000280B0
:101A60000020000880008000080008800080000836
:101A7000000880008000080008800D971983C009C5
:101A8000B92137E486AC015E0FFB77BC1BA7B12EF2
:101A9000EBB22EEBF214238FBB93160217102E20FD
:101AA0005C40B8807001E102C205840B0817102E5B
:101AB000205C40B8807001E1028196D917EB72EB8F
:101AC000ADB7DE7AEBADB7DE7AEBADB7DE7AEBAD74
:101AD000B7CBBA00A3CF9DA7FCB5739AF5D65B6FC1
:101AE000BDF5D65B6FBDF5D65B6FBDF5D65B6FBD43
:101AF000F5D69B15971983C009B92137E486DC9088
:101B00001B72436EC809C218D9FBEFB18FA7B12E63
:101B1000EBB22EEBB22EEBB22EEBB2C66900242F45
:101B2000202F11241FBECFEFDAE0DEBFCDBF12E0C1
:101B3000A0E0B1E0ECE7F8E602C005900D92A23516
:101B4000B107D9F727E0A2E5B2E001C01D92A43C9D
:101B5000B207E1F71DE0C0E9DDE004C02197FE0116
:101B60000E94F932CF38D107C9F70E94F12F0C94A7
:101B700031340C9400002F923F924F925F926F92FB
:101B80007F928F929F92AF92BF92CF92DF92EF920D
:101B9000FF920F931F93CF93DF9300D000D01F923B
:101BA000CDB7DEB7DB011996BC901997B0941896A3
:101BB0002C911897B2227C0122E9E20EF11CF70168
:101BC000A0804C01A11004C0FCE08F0E911C03C04A
:101BD0002EE1820E911C6C0145E9C40ED11CF60168
:101BE000408150E04E30510510F00C94D4168D0118
:101BF0009D838C83FA01EA5AFF4F0C94F932AC8131
:101C0000BD81D3961C92D397FD01EC5BFF4F1082F0
:101C10007097CD01805C9F4FDF011D92A817B90717
:101C2000E1F7AC81BD81AC56BF4F1C9222E0AC8184
:101C3000BD81AD56BF4F2C93D7011C921192E8176E
:101C4000F907E1F78C819D810C960E947C288C819C
:101C50009D814E960E947C28EC81FD81E057FF4FCC
:101C600011821082EC81FD81E457FF4F11821082B6
:101C7000AC81BD81A657BF4F11961C921E92EC817C
:101C8000FD81E257FF4F11821082EC81FD81EA5AFB
:101C9000FF4F1192EA17FB07E1F781E0F60180831D
:101CA000EC81FD81EB5AFF4F1082D80117961C92F0
:101CB0001E921697EC81FD81EC5AFF4F1082B5FE03
:101CC0000DC0EC80FD80B4E5EB0EF11CF7016081E6
:101CD0008C819D810E944929D7018C93B6FE63C0F7
:101CE000EC81FD81EC5AFF4F8081811113C0AC81E2
:101CF000BD81A457BF4F2D913C91243C310560F428
:101D0000AC81BD81D0962D913C91D1972530310584
:101D10001CF041C0823098F4AC81BD81A457BF4F04
:101D20002D913C912F3B310560F4AC81BD81D09663
:101D30002D913C91D1972A3031057CF502C082303B
:101D400099F4AC81BD81A457BF4F2D913C91203BAC
:101D5000310560F4AC81BD81D0962D913C91D19735
:101D600029313105E4F402C0833049F4AC81BD81EE
:101D7000A457BF4F2D913C91232B99F402C084307E
:101D800089F4AC81BD81A457BF4F2D913C91232B89
:101D900049F085E007C081E005C082E003C083E030
:101DA00001C084E08083B3FC02C00C94D416EC80A4
:101DB000FD80B4E5EB0EF11CD701EC91E43009F4A1
:101DC00042C0D8F0E53009F051C0EC81FD8120A976
:101DD00031A9E457FF4F80819181820F931FAC811D
:101DE000BD81D1969C938E93D09711821082FD0174
:101DF000E657FF4F1182108239C0F0E0E65FFE4FD8
:101E00002081EC81FD81E457FF4F80819181820F19
:101E1000911D91838083EC81FD81E657FF4F918373
:101E20008083F401918B808BD701EC91F0E0E65F29
:101E3000FE4F2081EC81FD8180A991A9821B91092F
:101E400091AB80AB13C082E0D6018C93EC81FD8115
:101E5000EB5AFF4F1082F80117821682D7011C92AD
:101E600081E0EC81FD81ED56FF4F8083F701108109
:101E7000143050F0EC81FD81E457FF4F8081918157
:101E8000892B09F44FC0EBC1133099F4EC81FD812B
:101E9000E457FF4F80819181803B910508F042C05B
:101EA000AC81BD81D0968D919C91D1974997D4F109
:101EB000D6C1123081F4EC81FD81E457FF4F80815F
:101EC00091818F3B910570F5EC81FD8180A991A9ED
:101ED0000A9744F1C4C1113091F4EC81FD81E457BB
:101EE000FF4F80819181843C9105E0F4AC81BD81FC
:101EF000D0968D919C91D1970597A4F0B0C1111106
:101F000011C0EC81FD81E457FF4F80819181883CB5
:101F1000910540F4EC81FD8180A991A9181619065C
:101F20000CF49DC1612F8C819D810E94492992C131
:101F3000FD01868197816FE070E00E94E532892B78
:101F400009F032C7EC80FD80F5E5EF0EF11CD701FA
:101F50008C91813049F028F0823019F0833051F4AF
:101F600003C040E061E002C040E060E08C819D8100
:101F70000E947425F70180818F5F8083843009F08F
:101F800013C7AC81BD81D5968C91D5976DE00E9429
:101F9000D9329111A2C4D0968D919C91D1971816E7
:101FA00019060CF4D2C699C48C809D80B3E98B0EBF
:101FB000911C84E0F4018083B5FE0DC0EC80FD80AF
:101FC000F4E5EF0EF11CD7016C918C819D810E948C
:101FD000DC28F7018083B6FE68C0EC81FD81EC5AF5
:101FE000FF4F8081AC81BD81A457BF4F2D913C91A3
:101FF00036952795811115C0AC81BD81A057BF4F83
:102000008D919C910596A90155274817590758F0BD
:10201000AC81BD81D0968D919C91D19705971CF094
:102020003CC08230A8F4AC81BD81A057BF4F8D91D8
:102030009C910A96A90155274817590758F0AC8179
:10204000BD81D0968D919C91D1970A9744F502C09D
:102050008230A1F4AC81BD81A057BF4F8D919C917E
:10206000499633272817390758F0AC81BD81D0969F
:102070008D919C91D1974997A4F402C0833051F47B
:10208000AC81BD81A057BF4F8D919C91892B59F098
:1020900084E00AC0843039F007C081E005C082E0E6
:1020A00003C083E001C085E08083B3FE7DC6EC8081
:1020B000FD80B4E5EB0EF11CF7018081AC81BD81A0
:1020C000A457BF4F843091F118F0853029F152C0E8
:1020D000E82FF0E0E65FFE4F808190E0EC81FD812B
:1020E000E057FF4F20813181280F391F3183208332
:1020F000EC81FD81E657FF4F20813181280F391F88
:1021000031832083EC81FD8120A931A9A901481BDD
:10211000590B51AB40AB2EC04C815D8140575F4F96
:10212000FA0180819181009789F484E0F60180832F
:10213000EC81FD81EB5AFF4F1082F8011782168265
:10214000F701108281E0F401808314C0EC81FD81ED
:1021500020A931A9820F931F91AB80ABFA011182A4
:1021600010828D919C911197EC81FD81E657FF4F74
:1021700091838083F70110818D919C91969587952D
:10218000143048F0EC81FD81E057FF4F2081318110
:10219000232B79F164C01330B9F4EC81FD81E05751
:1021A000FF4F20813181275E3F4F99278217930788
:1021B00008F44BC0AC81BD81D0968D919C91D19794
:1021C00049970CF442C04BC0123099F4EC81FD8168
:1021D000E057FF4F20813181265F3F4F99278217BB
:1021E000930798F1EC81FD8180A991A90A976CF180
:1021F00036C01130A9F4EC81FD81E057FF4F2081FA
:1022000031812B5F3F4F992782179307F0F0AC8104
:10221000BD81D0968D919C91D1970597B4F01FC048
:10222000111113C0EC81FD81E057FF4F20813181F6
:102230002F5F3F4F99278217930738F0EC81FD817C
:1022400080A991A91816190654F0612F8C819D81DF
:102250000E94DC28811711F0182F01C014E0D7016B
:102260001C93A2C5EC80FD80B5E5EB0EF11CF701D7
:102270008081803208F0ABC1882319F08F3139F0AA
:10228000A1C1EC81FD81EC5AFF4F10829BC135E06A
:10229000D6013C9321E040E061E08C819D8139834F
:1022A0000E94F224EC81FD81E05CFF4F4F016C81C4
:1022B0007D816D567F4F4C815D8140575F4F1A0184
:1022C000AC81BD81AE5BBF4F3D01EC81FD81EF5B19
:1022D000FF4F5F014C815D814D5B5F4F6A01AC81B7
:1022E000BD81AB5BBF4F2D013981853109F012C132
:1022F00051E0EC81FD81EC5BFF4F5083FB013083AB
:1023000021E040E060E08C819D8159830E94F224AD
:102310002C813D8124573F4FEC81FD81E95BFF4FCC
:102320006C817D81685B7F4F7B836A835981D80193
:10233000853109F062C056968D919C915797019610
:1023400057969C938E935697D1018D919C910097AF
:1023500029F590E4D3019C9386E0D4018C9382E02C
:10236000D5018C9383E1D6018C93D2011C92D901C3
:102370002D913C91138212821582148283E0808316
:10238000DB011C92AC81BD81A35BBF4F2D933C93BD
:10239000AC81BD81A15BBF4F5C9360C040E4D301C1
:1023A0004C9364E0D4016C93D5015C9363E1D60156
:1023B0006C93D2011C92880F991FD9012D913C91E9
:1023C000280F391F158214825083AA81BB811C9269
:1023D000AC81BD81A75BBF4F8D939C93AC81BD81C8
:1023E000A35BBF4F2D933C93AC81BD81A15BBF4FDD
:1023F0005C9380E88187428789C054968D919C9137
:102400005597019655969C938E935497D1016D9153
:102410007C916115710531F590E4D3019C93D40151
:102420005C9382E0D5018C9343E1D6014C93D201B9
:102430001C92D9012D913C9131952195310913823E
:1024400012821782168210868083AA81BB811C9219
:10245000AC81BD81A55BBF4F2D933C9380E8818704
:10246000928754C0D9018D919C91660F771F861772
:10247000970739F520E4D3012C933AE0D4013C933B
:1024800032E0D5013C9336E0D6013C93D2011C9258
:10249000138212821582148233E03083AA81BB81B9
:1024A0001C92AC81BD81A35BBF4F8D939C93AC818B
:1024B000BD81A15BBF4F84E08C9380E88187228738
:1024C00025C030E4D3013C9322E0D4012C93D50104
:1024D0002C9341E2D6014C93D2011C9213821282BA
:1024E000178216822083AA81BB811C92AC81BD8198
:1024F000A55BBF4F681B790B6D937C93AC81BD814D
:10250000A15BBF4F2C9380E881873287F7018081E0
:102510008F5F57C0D1018D919C91009709F441C004
:1025200020E4F301208338E0D4013C9332E0F5014C
:10253000308343E1D6014C93F2011082EC81FD819E
:10254000E95BFF4F138212821782168230834C811F
:102550005D81485B5F4FDA011C924C815D81455B78
:102560005F4F919581959109DA018D939C938C81B0
:102570009D81815B9F4F33E0DC013C9380E8818744
:10258000228780E2F7018083EC81FD81E657FF4FCF
:10259000AC81BD81A457BF4F8D919C919183808365
:1025A0000EC080E4D3018C9383E0F401808382E049
:1025B000D5018C9383E1FA018083D2011C9288E0DB
:1025C000FB018083D7018C918F5F8C93EDC3B5FEA7
:1025D00008C0EC81FD81EC5AFF4F8081813009F405
:1025E0001082B6FE09C0EC81FD81EC5AFF4F80815C
:1025F000811102C081E08083B3FED6C32C813D816E
:102600002D563F4FF9018081EC81FD81EC5AFF4F3F
:10261000883059F0808181111AC3AC81BD81AA5BD9
:10262000BF4F1C92D6011C9256C1D6018C93D70184
:102630001C92D80117961C921E921697108287E062
:10264000F90181C387E0EC81FD81ED56FF4F808366
:10265000B5FE3FC08C809D80F4E58F0E911CD401A7
:102660002C91233071F5EC81FD81E457FF4F4081BF
:102670005181EC81FD8180A991A98417950738F1DA
:102680008785823051F4CF010C9629830E949D29C1
:102690002981811102C0AA2091F0AC81BD8191965F
:1026A0008C919197823099F4CD014E9629830E94A6
:1026B0009D29298181110BC0B1E0AB1208C022E035
:1026C00006C0223009F46EC3213009F420E0F40181
:1026D0002083B6FE6DC08C809D80F4E58F0E911C2A
:1026E000D4012C91222309F45EC0223078F5EC81CC
:1026F000FD81E457FF4F40815181EC81FD8180A92C
:1027000091A9841795070CF44EC08785823059F43F
:10271000CF010C9629830E949D292981811103C034
:10272000AA2009F442C0AC81BD8191968C91919709
:102730008230D9F4CD014E9629830E949D292981AA
:10274000811113C0B1E0AB1210C02FC0223071F55F
:10275000EC81FD81E457FF4F40815181EC81FD8187
:1027600080A991A9841795070CF1A1101FC0AC8115
:10277000BD811F968C911F978230C1F491968C91E8
:102780009197811113C050968C9150973DE0632F23
:102790000E94D932492F51968C910E94D932491307
:1027A00005C023E003C021E001C022E0F401208342
:1027B000B3FEFAC2EC81FD81EC5AFF4F808181307B
:1027C00009F4D3C038F08230C1F0833009F0ECC294
:1027D00086E014C04A2D60E08C819D810E947425A2
:1027E00020E0D7014C9160E08C819D810E94F22411
:1027F000863108F4D9C28DE071C087E0D6018C9390
:102800002FC231E0EC81FD81ED56FF4F3083EC802B
:10281000FD80B5E5EB0EF11CF7012081233008F0B7
:1028200041C0D80116968D919C9117976FE070E08A
:102830000E94E532892B09F0B7C2213051F12230D4
:1028400051F1EC81FD81878581508787818982A341
:1028500081A18F5F81A3E457FF4F20813181AC813B
:10286000BD819F963C932E939E97D0968D919C917F
:10287000D197821B930BD1969C938E93D097FD0199
:10288000E657FF4F80819181280F391F31832083C4
:1028900057C240E001C041E060E08C819D810E9410
:1028A00074254EC22F5F2083EC81FD81EC5AFF4FCF
:1028B0001082AC81BD8150968C9150976DE00E9442
:1028C000D93291110AC01D963C931D975F963C9397
:1028D00089E0D6018C93D701C7C188E0F6018083D7
:1028E000EC81FD81EB5AFF4F51C281E0EC81FD810B
:1028F000ED56FF4F8083F40181836C807D80FCE87E
:102900006F0E711CD3012D913C91F4018089918946
:10291000820F931F918B808BAC81BD81D0968D915E
:102920009C91D197821B930BD1969C938E93D097B9
:102930004A2D60E0CD010E947425EC81FD81E657AF
:10294000FF4FD3012D913C9180819181820F931F84
:102950009183808320E0F701408160E08C819D813C
:102960000E94F224863108F046CFB8018C819D8107
:102970000F900F900F900F900F90DF91CF911F91BC
:102980000F91FF90EF90DF90CF90BF90AF909F900E
:102990008F907F906F905F904F903F902F900C940E
:1029A000D42E81E0EC81FD81ED56FF4F808382E0E3
:1029B000D7018C9321E040E061E08C819D810E94F1
:1029C000F224853181F1F801868197816FE070E012
:1029D0000E94E532892B09F0E7C120E040E061E088
:1029E0008C819D810E94F2248131E8F440E061E015
:1029F0008C819D810F900F900F900F900F90DF9121
:102A0000CF911F910F91FF90EF90DF90CF90BF90EB
:102A1000AF909F908F907F906F905F904F903F907E
:102A20002F900C9474258AE0D6018C93EC81FD8163
:102A3000EB5AFF4F1082F80117821682ADC1EC806D
:102A4000FD80F3E9EF0EF11C81E0D7018C93EC815E
:102A5000FD8181A1882309F482C0868581112AC065
:102A600080A1811127C0EB5AFF4F8081813269F02C
:102A70008333A1F08031F1F4AC81BD815C964D913E
:102A80005C915D9760E0CD0106C0EC81FD8146A5BB
:102A900057A561E0CF010E94942D0CC08BE0D601B8
:102AA0008C931082F80117821682EC81FD81EC5A1A
:102AB000FF4F1082AC81BD811E968C911E978111B3
:102AC00025C090968C919097882301F1FD01EB5AD7
:102AD000FF4F8081803191F08132C1F48BE0D601CB
:102AE0008C931082F80117821682EC81FD81EC5ADA
:102AF000FF4F108281E0D7018C9308C0EC81FD81EB
:102B0000448D558D60E0CF010E94942DEC81FD81B4
:102B10008685882309F441C080A181113EC0EB5A0B
:102B2000FF4F8081803191F08132B9F58BE0D60181
:102B30008C931082F80117821682EC81FD81EC5A89
:102B4000FF4F108281E0D7018C9327C0AC81BD81FB
:102B50009E964D915C919F9761E0CD011CC0EC81E8
:102B6000FD81EB5AFF4F8081803179F08132A9F4E9
:102B70008BE0D6018C931082F80117821682EC81CB
:102B8000FD81EC5AFF4F108208C0EC81FD81448D1D
:102B9000558D60E0CF010E94942DEC81FD81E05BBA
:102BA000FF4F8081811100C1EC81FD81EB5AFF4F05
:102BB00090819F5F9083F8C0AC81BD81D0968D914C
:102BC0009C91D197883EB3E09B0720F084E0F80108
:102BD000818F19C0892B29F485E0D80159968C93EF
:102BE00012C08CE0F6018083EC81FD81EB5AFF4F2F
:102BF0001082D80117961C921E921697EC81FD81C7
:102C0000EC5AFF4F108285E0EC81FD81ED56FF4FBD
:102C10008083B5FE08C0EC81FD81EC5AFF4F8081B6
:102C2000813009F41082B6FE09C0EC81FD81EC5AB6
:102C3000FF4F8081811102C081E08083B3FEB4C068
:102C4000EC81FD81EC5AFF4F8081882339F081307F
:102C500009F0AAC083E0F801818FA6C0D6011C92BA
:102C6000AC81BD81AB5ABF4F1C92D80117961C9204
:102C70001E92169795C081E0EC81FD81ED56FF4FC5
:102C80008083D40112968C93EC80FD80B5E5EB0E29
:102C9000F11CF7018081882351F08B3009F049C085
:102CA0001082B8018C819D810E94D42E42C080E4A4
:102CB000EC81FD81EE5BFF4F808387E0EC81FD813D
:102CC000E05CFF4F808382E0EC81FD81EF5BFF4F92
:102CD000808386E0EC81FD81ED5BFF4F8083EC819A
:102CE000FD81EB5BFF4F81E0A81280E08083D4017F
:102CF00050968D919C915197EC81FD81E95BFF4F3E
:102D00001382128217821682108622E02083AC8101
:102D1000BD81A85BBF4FAC92AC81BD81A55BBF4FAD
:102D20008D939C9380E8818780E4828781E0F7011E
:102D30008083EC81FD81E05BFF4F8081811134C095
:102D4000F70180818F5F80832FC0EC81FD81EE5B76
:102D5000FF4F80E48083EC81FD81E05CFF4F89E0E0
:102D60008083EC81FD81EF5BFF4F82E08083EC810B
:102D7000FD81ED5BFF4F83E18083EC81FD81EB5BA7
:102D8000FF4F108283E0D6018C93F7011082D801A7
:102D900017961C921E921697EC81FD81EC5AFF4FFC
:102DA000108202C021E093CC0F900F900F900F90F3
:102DB0000F90DF91CF911F910F91FF90EF90DF90D7
:102DC000CF90BF90AF909F908F907F906F905F90CB
:102DD0004F903F902F9008952F923F924F925F9285
:102DE0006F927F928F929F92AF92BF92CF92DF921B
:102DF000EF92FF920F931F93CF93DF93CDB7DEB780
:102E000028970FB6F894DEBF0FBECDBF6C015B01F3
:102E1000DC0116961C92169717961C92179786E15E
:102E200018968C93F601EB56FF4FE0818E2F90E0C1
:102E3000FC013197ED30F10508F0B4C0EC59FF4FBB
:102E40000C94F932F601EE5BFF4F80818111AAC02C
:102E50006BE571E1C60102960E946F22EE24E394B5
:102E600007E02DE046E150E061E370E0C501039624
:102E70000E944324F6011186E457FF4F608171815F
:102E8000C6010E94542D81E0D60119968C938AC008
:102E9000C6010E948D2BF601EC5BFF4F408111E0D3
:102EA0004127B501C6010E94892CF601EE5BFF4F58
:102EB0008081811177C06FE471E1C60102960E94A2
:102EC0006F22EE24E39407E02DE046E150E06BE250
:102ED00070E0C50103960E944324F6011186E05775
:102EE000FF4F60817181C6010E94542DD601199651
:102EF0001C9358C0C6010E948D2BF601EC5BFF4F5E
:102F0000408181E04827B501C6010E94892C8601D5
:102F10000E5F1F4F6CE371E1C8010E946F22912C7C
:102F20007601B5E5EB0EF11CF7019081969596952B
:102F300096959916B8F56AE371E1C8010E946F226F
:102F40009394F2CFC6010E948D2BF601E95BFF4FEF
:102F50008081882311F0339708C041E01FC0C6016B
:102F60000E948D2BF601EC5BFF4F408181E04827EA
:102F700015C0C6010E948D2BD6011E964C911E973E
:102F8000442361F091968C919197882339F0909623
:102F90004C9104C0C6010E948D2B40E0B501C601D2
:102FA0000E94892C2501B3E04B0E511CE12C00E45A
:102FB00020E844E350E060E070E0C2010E94432456
:102FC00000E021E04DEA50E163E370E080E090E052
:102FD0000E94D51EF6018785882309F467C01CE08E
:102FE000819F802D11249585911102C010E001C0B0
:102FF00019E0865F180FD60191968C9191979CE00D
:10300000899F902D11245F962C91211129E0920F18
:10301000F601EE5BFF4F8823F1F10AE0090F9A5E9B
:10302000910F969580E4F82EF91A6F2D610FBCE090
:10303000EB2EE60E80818823B9F0F601EB5BFF4FA3
:103040008081882321F0635F80E090E01CC061E410
:10305000691B80E090E00E94D221812F90E08F0DCB
:10306000911D60E8019725C061E4691B80E090E054
:103070000E94D22161E0611B6F196E0D812F90E0DB
:103080008F0D911D01970E94D221802F90E060E862
:103090008E0D911D0EC08081882309F4F4C5F601C0
:1030A000EB5BFF4F8081882309F4EDC560E880E089
:1030B00090E00E94D221F501868197818F71992736
:1030C00011E0813108F410E0F601ED56FF4F8081E8
:1030D000853009F4D7C238F4823009F4ADC08430A9
:1030E00009F491C12CC3873021F0883009F409C359
:1030F00026C37601F2E9EF0EF11CD7018C918230E4
:1031000029F100E020E04BEA5CE064E370E08FEF3F
:103110009FEF0E94D51E21E04DE65CE064E370E085
:103120008FEF9FEF0E94D51E20E04EE45CE064E349
:1031300070E08DE190E00E94D51E21E043E15CE06B
:1031400064E370E08DE190E00E94D51E4601BCE88A
:103150008B0E911CF40120813181D601D0968D9186
:103160009C91D19782179307FCF01F968C91823027
:1031700059F4C6010C960E949D29811105C0F701E2
:103180008081882309F402C3D60191968C91823004
:1031900059F4C6014E960E949D29811105C0F70180
:1031A0008081813009F4F2C2D4012D913C91F60165
:1031B00080A991A98217930744F1D7018C918111BD
:1031C00024C08785823009F581A181111EC08089C4
:1031D0002DE0622F0E94D932392F81890E94D93285
:1031E000391313C000E020E04EE45CE064E370E0DB
:1031F00089E590E00E94D51E21E045E75BE064E3AD
:1032000070E089E590E00E94D51E112309F497C271
:10321000F601EC5AFF4F8081843008F090C290E0B4
:10322000FC01EE0FFF1FEA5EFE4F40815181FC0161
:10323000EE5EFE4F80811AC27601BCE8EB0EF11CF7
:10324000F70180819181883C9105F8F4D601D096F0
:103250008D919C91D19718161906BCF436968081F1
:10326000823099F000E020E04EE55BE064E370E03E
:103270008FEF9FEF0E94D51E21E04BE35BE064E3FC
:1032800070E08FEF9FEF0E94D51EF7018081918142
:10329000843C910500F5D601D0968D919C91D197F3
:1032A0000597CCF0F601EE56FF4F8081823099F001
:1032B00000E020E04EE55BE064E370E081E190E057
:1032C0000E94D51E21E047E15BE064E370E081E10C
:1032D00090E00E94D51EF701808191818F3B91057E
:1032E00000F5D601D0968D919C91D1970A97CCF09C
:1032F000F601EE56FF4F8081823099F000E020E029
:103300004EE55BE064E370E083E290E00E94D51E4E
:1033100021E043EF5AE064E370E083E290E00E9432
:10332000D51EF70180819181803B910500F5D60182
:10333000D0968D919C91D1974997CCF0F601EE569D
:10334000FF4F8081823099F000E020E04EE55BE0A5
:1033500064E370E085E390E00E94D51E21E04DEC2F
:103360005AE064E370E085E390E00E94D51EF70127
:1033700080819181892BC9F0F601EE56FF4F808143
:10338000823099F000E020E041EB5AE064E370E025
:103390008BE490E00E94D51E21E04FE75AE064E301
:1033A00070E08BE490E00E94D51ED7018D919C9136
:1033B000892BC9F0F601EE56FF4F8081823099F0DB
:1033C00000E020E04EE45CE064E370E083E690E03F
:1033D0000E94D51E21E044E45AE064E370E083E6F5
:1033E00090E00E94D51E112309F4A9C1F601EC5A00
:1033F000FF4FE081E43009F432C108F422C1E53026
:1034000009F09DC130C17601B0E9EB0EF11CF70166
:10341000208131812F5F3F4F4601FCE88F0E911CC8
:10342000D4018D919C919695879582179307F0F022
:10343000F60180A991A918161906C4F4EE56FF4F9B
:103440008081823099F000E020E04EE55BE064E3AB
:1034500070E08FEF9FEF0E94D51E21E04BE35BE011
:1034600064E370E08FEF9FEF0E94D51ED7012D918E
:103470003C912B5F3F4FF401808191819695879518
:103480008217930700F1D601D0968D919C91D19728
:103490000597CCF0F601EE56FF4F8081823099F00F
:1034A00000E020E04EE55BE064E370E081E190E065
:1034B0000E94D51E21E047E15BE064E370E081E11A
:1034C00090E00E94D51EF70120813181265F3F4F99
:1034D000D4018D919C919695879582179307E8F07A
:1034E000F60180A991A90A97C4F0EE56FF4F80819A
:1034F000823099F000E020E04EE55BE064E370E0AC
:1035000083E290E00E94D51E21E043EF5AE064E39D
:1035100070E083E290E00E94D51ED7012D913C918E
:10352000275E3F4FF40180819181969587958217A0
:10353000930700F1D601D0968D919C91D197499730
:10354000CCF0F601EE56FF4F8081823099F000E01A
:1035500020E04EE55BE064E370E085E390E00E94EC
:10356000D51E21E04DEC5AE064E370E085E390E085
:103570000E94D51EF70180819181892BC9F0F60147
:10358000EE56FF4F8081823099F000E020E041EB61
:103590005AE064E370E08BE490E00E94D51E21E0E5
:1035A0004FE75AE064E370E08BE490E00E94D51EA0
:1035B000D7018D919C91892BC9F0F601EE56FF4FF2
:1035C0008081823099F000E020E04EE45CE064E32A
:1035D00070E083E690E00E94D51E21E044E45AE0CA
:1035E00064E370E083E690E00E94D51EF7018081DD
:1035F0009181892BC9F4F601EE56FF4F808182300C
:1036000099F000E020E041EB5AE064E370E087E6E7
:1036100090E00E94D51E21E04FEA59E064E370E09B
:1036200087E690E00E94D51E112309F488C0F601B8
:10363000EC5AFF4FE081E43091F018F0E53041F0B2
:103640007EC0F0E0E25FFE4F808149E25AE00EC0AA
:10365000D7018D919C91892B31F487E601C08BE4D1
:1036600048E05AE003C083E642EE59E041155105B7
:1036700009F465C000E020E064E370E0082E000C6F
:10368000990B5BC000E020E047E859E064E370E09C
:103690008FE390E00E94D51E21E044E359E064E30B
:1036A00070E08FE390E00E94D51E20E041EB5AE0ED
:1036B00064E370E087E690E00E94D51E21E042E0DE
:1036C00059E064E370E087E690E00E94D51E112384
:1036D000B1F1F601EC5AFF4F8081882331F081303F
:1036E00071F587E648E05AE003C08FE34FEC58E0FD
:1036F0004115510521F100E020E064E370E090E025
:103700001CC000E020E043EB58E064E370E08CE68E
:1037100090E00E94D51E21E04AE858E064E370E0A2
:103720008CE690E00E94D51E112349F020E04DE682
:1037300058E064E370E08CE690E00E94D51E4601FC
:10374000B7E48B0E911CF4012080329620813181E8
:103750003E832D83329630813F8331813887D50176
:1037600019968C911997809518969C911897892392
:1037700016962D913C9117972F71332721313105E2
:10378000C8F439979081911115C01AC000E020E06B
:1037900041EF5BE064E370E089E390E00E94D51EB6
:1037A00021E04FEA5BE064E370E089E390E00E948F
:1037B000D51EFACC882309F436C23324339404C0CE
:1037C000882309F443C2312CF601E05BFF4F80816E
:1037D000882371F0C6010E94512BF40110821382DC
:1037E000128215821482178216821086118611C1E8
:1037F0008CE4D60116968C93169717968C93179790
:1038000018961C92189787E01B968C931B9781E063
:1038100019968C933601B2E06B0E711C62E07DE06C
:10382000C3010E946F22332089F0222069F0EE2428
:10383000E39407E021E140E050E06FE670E0C20170
:103840000E944324F601118633243394D601D09686
:103850008C91D097D1969C9119821A821B821C82DE
:103860008E010F5F1F4FF8012AE030E044E0400F67
:10387000B9010E94E5328193CB014E13F9CF7E014D
:10388000B5E0EB0EF11CF70142917F0150E060E0E2
:1038900070E02AE0C3010E941322E016F10699F7B6
:1038A00081E0D60119968C9321101BC065EF7CE056
:1038B000C3010E946F22F601E457FF4F60817181BE
:1038C000C6010E94542D68EE7CE0C3010E946F2265
:1038D000F601E657FF4F60817181C6010E94542DA9
:1038E00098C08CE4F6018683878388E08087F2E0C5
:1038F0002F16F1F023E02216D1F131E023124CC053
:103900006CED7CE0C3010E946F22332071F0EE2445
:10391000E39407E02DE048E050E063E770E0C20187
:103920000E944324D60119961C926D817E811BC092
:1039300060ED7CE0C3010E946F22332069F0EE2429
:10394000E39407E02DE048E050E063E770E0C20157
:103950000E944324F60111866F81788577FF03C0AA
:10396000719561957109C6010E94542D15C03320CF
:1039700071F0EE24E39407E021E148E050E06FE6C7
:1039800070E0C2010E944324D60119961C926BEC90
:103990007CE0C3010E946F2281E0F60181871682DC
:1039A000178286E18087EE5BFF4F808181110EC018
:1039B0003D96E081EE2351F0F0E0EE0FFF1FE45E54
:1039C000FE4F60817181C3010E946F22F601E05BAE
:1039D000FF4F80818150808331969081891304C08C
:1039E000C6010E94512B15C0811113C0D4011C9235
:1039F00013961C921E92129715961C921E92149763
:103A000017961C921E92169718961C921897199644
:103A10001C927601B2E4EB0EF11CF7018081882341
:103A200009F440C1D50119961C9119971095189663
:103A30008C91189718231F968C91813011F0512C7E
:103A400002C044E0542E4601B5E48B0E911CF401F3
:103A50008081811102C08FE401C080E0682E712C4A
:103A600000E020E045E650E168E070E0C3010E941C
:103A7000D51ED5011F96EC91F0E0EE0FFF1FE45B21
:103A8000FE4F4081518121E068E070E0C3010E9457
:103A9000D51EF501268137812F713327852D90E0C2
:103AA000232B11F4039606C0F601EF5BFF4F208134
:103AB000820F911D880F991FFC01E45CFE4F40812D
:103AC0005181D5011F968C91813019F062E170E02F
:103AD00002C060E170E000E021E0C3010C960E94AA
:103AE000D51E5601B0E4AB0EB11CF50180819601E4
:103AF0002D5B3F4F69018930B1F08A3031F1883058
:103B0000C1F5D9016C9170E000E020E04DE150E199
:103B100080E090E00E94D51EF601608170E021E017
:103B200043EC5EE023C0D9016C9170E000E020E03E
:103B30004DE150E180E090E00E94D51EF6016081E9
:103B400070E021E046E95FE011C0D9016C9170E0BE
:103B500000E020E04DE65EE080E090E00E94D51EAF
:103B6000F601608170E021E042E55DE080E090E0F8
:103B700052C0D4018C91882341F1F901608170E039
:103B800001E020E045E15DE084E390E00E94D51E85
:103B9000D6016C9170E0645F7F4F21E04DE05DE005
:103BA00085E390E00E94D51ED501EC91F0E0EE0F88
:103BB000FF1FE85DFE4F40815181F601608170E09A
:103BC00000E021E08CE390E026C0D9016C9170E028
:103BD00000E020E045E15DE08AE090E00E94D51E33
:103BE000F601608170E0645F7F4F21E04DE05DE0B1
:103BF00087E490E00E94D51ED501EC91F0E0EE0F35
:103C0000FF1FE85DFE4F40815181F601608170E049
:103C100021E08AE090E00E94D51E112309F442C001
:103C2000D7011C923FC08CE4F601868387831086FF
:103C300087E0838781E081873601F2E06F0E711C97
:103C400062E07DE0C3010E946F22EFCD8CE4D601DB
:103C500016968C93169717968C93179718961C9216
:103C6000189787E01B968C931B9781E019968C938D
:103C70003601B2E06B0E711C62E07DE0C3010E9470
:103C80006F22312CE3CD012F069569E2601B80E0A5
:103C900090E00E94D22128E2201B812F90E0820F29
:103CA000911DDFC928960FB6F894DEBF0FBECDBFB9
:103CB000DF91CF911F910F91FF90EF90DF90CF9008
:103CC000BF90AF909F908F907F906F905F904F903C
:103CD0003F902F900895CF92DF92EF92FF920F9333
:103CE0001F93CF93DF936C017A018B01C0E0D0E08A
:103CF000CE15DF0589F0D8016D918D01D601ED91CA
:103D0000FC910190F081E02DC6010995892B11F4F9
:103D10007E0102C02196ECCFC701DF91CF911F91A8
:103D20000F91FF90EF90DF90CF9008950895FC01E0
:103D300014860895FC01DB0119968C9119978095E2
:103D400018969C911897892399F08281882311F005
:103D50008CE78283828181110BC081E0828380E4C1
:103D60008093900081E49FE0909399008093980065
:103D700092819923B1F09F5F9283953059F09D37DE
:103D800061F0923071F480E596E49093990080930D
:103D90009800089510929000089583E059968C93AE
:103DA0000895089508950E942C342F923F924F92C7
:103DB0005F926F927F928F929F92AF92BF92CF92BB
:103DC000DF92EF92FF920F931F93CF93DF93CDB7C4
:103DD000DEB761970FB6F894DEBF0FBECDBF7C0192
:103DE0004A01FA0134913196E491832F8F778F5FE6
:103DF000282E312CC701820D931D97FDA1C1F0E83B
:103E0000EF16F1040CF09CC18E2F8F738F5FAB0106
:103E1000480F511D57FD94C1603471050CF090C1DD
:103E2000331F3327331F3B8331E0E6FF30E0EE1FC3
:103E3000EE27EE1FEF83AB0177FF04C04427552721
:103E4000461B570B5A0117E0A122BB24AB0177FF99
:103E500002C0495F5F4FDA0153E0B595A7955A95C7
:103E6000E1F7BA83A98377FF0CC0A114B10449F02C
:103E70001197BA83A98348E050E0FA01EA19FB09D7
:103E80005F0141E050E06A010A2C02C0CC0CDD1C4D
:103E90000A94E2F7D986C886982F969596959695B6
:103EA000877011F4892F02C081E0890F482F880F95
:103EB000550B5E834D83502F52705A8701FF06C009
:103EC000AD81BE81119781E0382702C0A0E0B0E04B
:103ED000602F61706C8300FF04C0B10161507109F3
:103EE00002C060E070E097E040E150E080E0612CCB
:103EF000712C8101015011091C870B870D811E81D6
:103F0000A017B1070CF01CC1B7FD1AC18A01CC245F
:103F1000C394D12CF80143E0F695E7954A95E1F773
:103F2000E80DF91DE491F0E0A8014770552702C0A3
:103F3000F595E7954A95E2F7A8014F5F5F4FE0FFDF
:103F400005C01FEFC11AD10A8A01E4CFE1E0CE1605
:103F5000D104E9F4FA01F695E795F695E795F6951B
:103F6000E795E80DF91DE491F0E0477055272F0122
:103F700002C0559447944A95E2F7F1E04F22552448
:103F80004FEF441A540AA8014E5F5F4F41C08601AB
:103F9000015011091E870D8744244394512C0D8430
:103FA00002C0440C551C0A94E2F71FEF411A510A53
:103FB00000E010E0FA01F695E795F695E795F6959D
:103FC000E795E80DF91DE491CE2ED12CD98AC88A47
:103FD0006A01E7E0CE22DD24E889F98902C0F5957F
:103FE000E795CA94E2F7E0FF0AC0E1E0F0E0002EB6
:103FF00002C0EE0FFF1F0A94E2F74E0E5F1E4F5FE6
:104000005F4F0F5F1F4FCD84DE840C151D0594F2AA
:10401000C12CD12CC414D50409F48CC00B8100230D
:1040200069F0E92FF0E0311105C007E010E00E1B48
:104030001F0BF801E85AFE4FE0818E2B915008F0DB
:1040400075C0882309F44AC019811A0F1F871830D8
:104050000CF044C0FB01EE0DFF1DE038F105F0F55A
:1040600008851985809FF001819FF00D1124FE873E
:10407000ED871F8517FD15C0C701012F10E801034B
:10408000800D911D1124860F971FFC01EE5AFD4FE4
:1040900080819D85222311F0892B02C09095892370
:1040A0008083A114B104D1F0EF85E730B9F0EF3F80
:1040B000ACF0C7010E2F10E80103800D911D1124F3
:1040C000860F971FFC01EE52FD4F80819E852223B3
:1040D00011F0892B02C09095892380830F810023E2
:1040E00011F011E031278FEF681A780A9C8199232B
:1040F00019F06150710902C06F5F7F4F6214730441
:1041000064F00A85002311F0119701C011961C81FB
:10411000112331F06B857C8505C097E080E006C0F7
:1041200060E070E097E080E0612C712CEFEFCE1A38
:10413000DE0A70CFCC24C394DB80CD18CB82DECED8
:1041400061960FB6F894DEBF0FBECDBFDF91CF9161
:104150001F910F91FF90EF90DF90CF90BF90AF90A5
:104160009F908F907F906F905F904F903F902F9097
:104170000895EF92FF920F931F93CF93DF93EC017B
:1041800000E021E044E252E160E070E080E090E095
:104190000E94D51E9DE0E92EF12C10E0EC85E10F88
:1041A000E370F0E0EE0FFF1FE05BFE4F40815181B6
:1041B00000E021E06BE170E0C7010E94D51E1F5FA7
:1041C00088E0E80EF11C1D3049F7DF91CF911F9177
:1041D0000F91FF90EF9008954F925F927F928F9290
:1041E0009F92AF92BF92CF92DF92EF92FF920F9386
:1041F0001F93CF93DF9300D000D0CDB7DEB7DC01A3
:104200004115510509F4BAC0FA01D49031963491A0
:104210004D2C512C5C01A40CB51C1A141B040CF081
:10422000ADC0803891050CF0A9C0CB01830F911D62
:10423000181619060CF0A2C0603471050CF09EC06F
:10424000F62FF770EF2ECB0177FD079623E09595BB
:1042500087952A95E1F7F82F77FF04C0EE2011F03B
:10426000FFEFF80FB7FF05C0662777276A1B7B0BA8
:1042700002C060E070E000E8A016B10424F080E81D
:10428000F82EFA1A01C0FD2CF61AAF2E0F2E000CD4
:10429000BB08FF3F1CF4CA2CC09401C0C12C91E0A4
:1042A000832F877009F490E0369536953695930FF5
:1042B000A90EB11C19E0A116B10414F098E09F1BDF
:1042C0008C2D8F0F9D01082F10E80103200D311D4B
:1042D0001124260F371F4E5F5F4FCD9C600D711D5F
:1042E0001124460F571F61E070E00E2C02C0660FCC
:1042F000771F0A94E2F7EFEFE69FD001E79FB00D3A
:104300001124A095B095BC83AB837C809F0F891747
:10431000A9F1F901EE5AFD4F6F01A12CB12CAF1498
:1043200038F5FA01EA0DFB1DE491E69F4001E79F95
:10433000900C11249A82898287FD07C0F6011081B2
:10434000E12FEA238E2AF6018082EE2051F0873099
:1043500044F4F601E058FF4F908097208A80982817
:104360009082FFEFAF1ABF0A0FEFC01AD00AD7CF63
:104370008F5F440D551D20583F4FC9CF0F900F90B0
:104380000F900F90DF91CF911F910F91FF90EF90C1
:10439000DF90CF90BF90AF909F908F907F905F9075
:1043A0004F9008959C01260F311D12161306B4F488
:1043B000803891059CF497FF02C080E090E021389E
:1043C000310514F020E830E0281BFC01EE5AFA4FCA
:1043D000215020F0808188608193FACF0895CF9397
:1043E000DF9300D000D0CDB7DEB761157105810530
:1043F000910579F09B01AC0169833A834B835C831F
:104400000E94523229813A814B815C810E9476322E
:1044100003C060E070E0CB010F900F900F900F9001
:10442000DF91CF9108954F925F926F927F92EF92BA
:10443000FF920F931F93CF93DF93CDB7DEB7A19772
:104440000FB6F894DEBF0FBECDBF7C01FA01CB01E1
:1044500019A2223008F42AE08E010F5D1F4F422E70
:10446000512C612C712CBF01A30192010E94A83232
:10447000F901CA01015011096A3014F4605D01C0EC
:10448000695CD8016C93232B242B252B61F7011534
:10449000110591F0F80101900020E9F73197AF0183
:1044A000401B510BD701ED91FC910280F381E02D6F
:1044B000B801C701099502C080E090E0A1960FB64F
:1044C000F894DEBF0FBECDBFDF91CF911F910F914A
:1044D000FF90EF907F906F905F904F900895EF92D4
:1044E000FF920F931F93CF93DF938C017B01C0E06A
:1044F000D0E0F701EC0FFD1F6491662361F0D80155
:10450000ED91FC910190F081E02DC8010995892B76
:1045100011F02196EECFCE01DF91CF911F910F9137
:10452000FF90EF9008952F923F924F925F926F927B
:104530007F928F929F92AF92BF92CF92DF92EF9233
:10454000FF920F931F93CF93DF9300D000D000D042
:10455000CDB7DEB7F02ECD82A02FB0E06C01CA0E31
:10456000DB1E1C141D040CF0F3C0803891050CF008
:10457000EFC0FB01EE0DF11D1E161F060CF0E8C08A
:10458000603471050CF0E4C04115510509F4E0C038
:10459000062F0770602EFB0177FD379613E0F59527
:1045A000E7951A95E1F71E2F77FF04C0662011F0FA
:1045B0001FEF1E0F97FF05C0EE27FF27E81BF90B23
:1045C00002C0E0E0F0E060E8C616D10424F060E844
:1045D000962E981A01C09F2C9E1A612F012E000C56
:1045E000770B1F3F1CF4B62EB09401C0B12CDD2414
:1045F000D3940E2D077009F4D12CE694E694E6943A
:10460000ED0C6E0D711D693071051CF068E0E62E31
:10461000E11A8B2C810E782D00E87003800D911D1E
:1046200011248E0F9F1F61E070E0062C02C0660F00
:10463000771F0A94E2F70D81033011F001E001C009
:1046400002E0A919B1090A9F302C1124C02ED12CE7
:10465000BF9CE00DF11D1124CE9ED001CF9EB00D68
:10466000DE9EB00D11245A01AA0EBB1E2115310584
:1046700009F0A901960121503109A20FB31F4A0F79
:104680005B1FEFEFE69F9001E79F300D112429019A
:10469000409450941E0D1E83232D30E0099D200D63
:1046A000311D11240E81801609F452C0DC01AE5A6E
:1046B000BD4F7A018501712C791409F441C0F801CC
:1046C0003490369EF001379EF00D1124FA83E98371
:1046D000E095F095FC83EB83FD81F23019F45C8268
:1046E0004B8211C0ED81EB3F19F41A8219820BC085
:1046F000F7013490369EF001379EF00D1124E095BD
:10470000F095FC83EB8387FC06C0FC91EB81EF23E3
:10471000F981EF2BEC93662061F0F6E0F8154CF090
:10472000FD01E058FF4F20803C8023203A80322852
:104730003082EC0CFD1C0C0D1D1D73941196BCCF2A
:104740008394A20EB31E420F531F80589F4FAACFCF
:1047500026960FB6F894DEBF0FBECDBFDF91CF9186
:104760001F910F91FF90EF90DF90CF90BF90AF908F
:104770009F908F907F906F905F904F903F902F9081
:104780000895F89487E78093000880930108A8951E
:1047900088E18093600088E080936000FFCFDC01B7
:1047A000FB01808591859095982384FF0CC01D9610
:1047B0008C911D97803128F48F5F1D968C931D97E7
:1047C00005C00E94C1231D961C921D97268137812A
:1047D0002F703327232B59F41C968C911C978F5FD5
:1047E000853018F41C968C9302C01C961C9293FF83
:1047F00003C0178681E0818F92FF03C081E0878725
:10480000818F0895BC0180E090E0AB01FC010E9423
:10481000352641505109E109F10928F068517C4FD2
:104820008F4F9F4FF6CFAB01FC010E9435266417D6
:1048300075078E079F07C8F308958FB18095807F15
:10484000669B88601C9B8460089560387105D0F475
:1048500040345105B8F4E5E2F3E180E1849FD001F2
:10486000A0781124A60F4770E40FF11D8491AE5A71
:10487000BD4F222319F06C91862B03C080956C915B
:1048800086238C9308956F927F928F929F92AF921E
:10489000BF92CF92DF92EF920F931F93CF93DF934C
:1048A0004C016A01EB013B01620E711C5A01A00E22
:1048B000B11CC615D705DCF48601D7FE0EC000E09A
:1048C00010E00BC00817190784F42E2DA801BE01B3
:1048D000C4010E9425240F5F1F4FC50121E4A216C9
:1048E000B10484F380E490E0EDCF2196E2CFDF9134
:1048F000CF911F910F91EF90DF90CF90BF90AF902D
:104900009F908F907F906F900895EF92FF920F93FA
:104910001F93CF93DF93EC017B0100E021E042E1A4
:1049200052E161E170E08FE290E00E94D51E21E04B
:1049300047EF51E16AE170E08BE290E00E94D51E02
:1049400021E047EF51E16AE170E089E490E00E94E4
:10495000D51E8A81811113C021E047EF51E16AE140
:1049600070E08AE390E00E94D51E21E04FEB51E118
:104970006EE270E08AE190E00E94D51E2CC000E05B
:1049800021E044EA51E16AE170E08AE390E00E94AC
:10499000D51E21E048E851E16EE270E08CE290E043
:1049A0000E94D51E8A816FE00E94D932C82FC37041
:1049B0000FE410E0D0E083E0E80EF11CDC1759F0C2
:1049C00021E041E350E0B801C7010E942524DF5FE8
:1049D0000E5F1F4FF3CFDF91CF911F910F91FF908B
:1049E000EF900895CF93FC01613021F543A9F4962F
:1049F000DF01C0E030E05DE08A2F8E1B841708F0F5
:104A000042C08D91652F0E94D9329A3071F028F4FE
:104A1000992341F0993049F00AC09B3031F09C3025
:104A200021F005C03F5FCF5FE7CF365FE5CF3F5F47
:104A3000390FE2CF611125C041112EC04785709614
:104A4000DF01C0E030E05DE08A2F8E1B8417D8F4D0
:104A50008D91652F0E94D9329A3071F028F49923F4
:104A600041F0993049F00AC09B3031F09C3021F080
:104A700005C03F5FCF5FE8CF365FE6CF3F5F390FBE
:104A8000E3CFC0E030E0222361F13C3050F5CC238D
:104A900041F1365FC150F9CF413099F751A1B2963B
:104AA000DF01C0E030E04DE08A2F8E1B851758F7FC
:104AB0008D91642F0E94D9329A3071F028F4992395
:104AC00041F0993049F00AC09B3031F09C3021F020
:104AD00005C03F5FCF5FE8CF365FE6CF3F5F390F5E
:104AE000E3CF832FCF910895EF92FF921F93CF933F
:104AF000DF931F92CDB7DEB77C01162F64E370E021
:104B000080E090E049830E94EF21862FF701E60FB5
:104B1000F11DEA5AFF4F908149819111EFCF91E049
:104B20009083113049F4F70193A9E90FF11D64ABAB
:104B30009F5FF70193AB17C0111115C0411109C058
:104B4000F7019785E90FF11D608B9F5FF70197874C
:104B50000AC0413041F4F70191A1E90FF11D82A390
:104B60009F5FF70191A30F90DF91CF911F91FF906D
:104B7000EF900895BF92CF92DF92EF92FF920F9342
:104B80001F93CF93DF93EB01B984B0942885B222B1
:104B900022E136E1DC017C0140E4E40EF11C00E09E
:104BA00010E460E070E2F901459154911C96ED919A
:104BB000FC911D974E0F5F1F1D965C934E931C97A3
:104BC000F9013296C590D4901E96ED91FC911F97F5
:104BD000CE0EDF1E1F96DC92CE921E9757FD1DC093
:104BE000D7FC1BC02C5F3F4F1496AE15BF05D9F6FE
:104BF000B3FE02C023E0298F2E813F812F7033271F
:104C0000232BA1F4FC01E45BFF4F90819F5F953063
:104C100010F490830BC0108209C01D961C930E9354
:104C20001C971F967C936E931E97DCCFDF91CF91DC
:104C30001F910F91FF90EF90DF90CF90BF9008955C
:104C40009C01205C3F4F60E070E440E050E2FC01DA
:104C50007587648757874687049682179307B9F745
:104C60000895089580E090E00895A7EBB7E02FB78E
:104C7000F8947D918D919C9166B52FBFA89B05C03E
:104C80006F3F18F47F5F8F4F9F4F22E0660F771FB3
:104C9000881F991F2A95D1F70895089508950895BA
:104CA0000895089508950895AF92BF92CF92DF922C
:104CB000EF92FF920F931F93CF93DF93EC017B0151
:104CC0004CE258E164E070E084E090E00E94EC2067
:104CD00044E557E161E270E08AE090E00E94EC2058
:104CE00042E556E160E370E080E090E00E94EC2055
:104CF0009DE0C92ED12C10E05E018CE4A80EB11C01
:104D0000D501EC91E10FE370F0E0EE0FFF1FEA5FD9
:104D1000FD4F4081518100E021E066E170E0C60175
:104D20000E94D51E1F5FB8E0CB0ED11C1D3041F78D
:104D30006E0180E4C80ED11CA3E0EA0EF11C4F8581
:104D4000042E000C550B6D85062E000C770B21E010
:104D5000C7010E9425242496CC15DD0581F7DF913B
:104D6000CF911F910F91FF90EF90DF90CF90BF9068
:104D7000AF900895AF92BF92CF92DF92EF92FF92E1
:104D80000F931F93CF93DF93EC017B014AE555E12D
:104D900069E070E083E190E00E94EC2046EC54E191
:104DA00064E270E08CE190E00E94EC2000E021E001
:104DB00049E354E165E370E080E090E00E94D51E95
:104DC0009DE0C92ED12C10E05E018CE4A80EB11C30
:104DD000D501EC91E10FE370F0E0EE0FFF1FE25020
:104DE000FE4F4081518100E021E06AE170E0C601A0
:104DF0000E94D51E1F5FB8E0CB0ED11C1D3041F7BD
:104E00006E0180E4C80ED11CA3E0EA0EF11C4E85B1
:104E10005F856C857D8521E0C7010E94252424964D
:104E2000CC15DD05A1F7DF91CF911F910F91FF9078
:104E3000EF90DF90CF90BF90AF900895AF92BF9268
:104E4000DF92EF92FF920F931F93CF93DF93EC01CA
:104E50007B01FB01D184D0948085D8228E015E0134
:104E6000F0E4AF0EB11CF80186859785019697870F
:104E7000868780349105C4F060E470E080E090E0C3
:104E80000E94EF21DC01CB0180549109A109B109F5
:104E9000F8019787868760E870E080E090E00E94E4
:104EA000EF21F801758764870C5F1F4F0A151B05FA
:104EB000D1F6D3FE03C083E0F701818FF70186812D
:104EC00097818F709927892B49F4C45BDF4F8881C4
:104ED0008F5F853010F4888301C01882DF91CF91F5
:104EE0001F910F91FF90EF90DF90BF90AF900895CA
:104EF0000F931F93CF93DF93FC01E45BFF4F10826E
:104F0000EC018C01005C1F4F60E470E080E090E0F9
:104F10000E94EF21DC01CB0180549109A109B10964
:104F20009F878E8760E870E080E090E00E94EF212C
:104F30007D876C872496C017D10731F7DF91CF9119
:104F40001F910F910895CF92DF92EF920F931F93CD
:104F5000CF93DF93FC016A3039F485818483968195
:104F60008185890F8683AAC0A4816E3719F4AE5F4C
:104F7000A483A4C0962FEF0166816F5F9A3384F4F7
:104F8000903314F59B3219F11CF4913221F15DC07C
:104F90009D3209F460C09E3209F057C01FE31CC067
:104FA0009B354CF4913474F49A3399F09F3309F0A3
:104FB0004CC012E411C08FE9890F8A3108F045C056
:104FC00019EB03C01FEB01C014E0190F05C011E479
:104FD00003C013E401C01EE38F81062E000C770B83
:104FE0000A2E000CBB0B813009F03AC0EBE6F3E16E
:104FF0000491ECE6F3E1E490112379F1E02FF0E085
:105000002E2D269526952695422F50E021E030E062
:105010008E2D877011F420E030E0240F351FE29FC1
:105020006001E39FD00CF29FD00C11249601120373
:10503000A001139F500D112443595C4E9AEFC92EC5
:1050400020E030E0CD010E94932288858D5F9C8115
:10505000890F8C8333C010E4BFCF4DE653E1EECF10
:10506000EBE6F3E10491ECE6F3E1E490112309F1BE
:10507000E02FF0E02E2D269526952695422F50E024
:1050800021E030E08E2D877011F420E030E0240F15
:10509000351FE29F6001E39FD00CF29FD00C1124DA
:1050A00096011203A001139F500D112443595C4E29
:1050B00002C04DE653E18BEFC82EC2CF81E090E0F5
:1050C000DF91CF911F910F91EF90DF90CF900895D6
:1050D0000C9494330C9494330C9494330C94943334
:1050E0000C949433CF93DF93EC010E948D2ACE0170
:1050F000DF91CF910C949433FC01108211821282C3
:105100001382118A108ADC01149670961D92AE17D4
:10511000BF07E1F708950F931F93CF93DF93EC013F
:105120008B0184EF91E099AB88AB1AAACE010C9663
:105130000E947C28CE014E960E947C281BAAFE016C
:10514000EC5BFF4F10827097CE01805C9F4F1192F5
:10515000E817F907E1F7D80151961C921E92509773
:1051600053961C921E92529755961C921E925497DB
:1051700057961C921E925697DE01AE5BBF4F80E49D
:105180008C931082FE01EF5BFF4F1082329683E119
:10519000808332961082E05BFF4F1082E054F10969
:1051A0001082F80117821682CC5ADF4F1882DF91E5
:1051B000CF911F910F910895FC01DC01A457BF4FBF
:1051C0008D919C91119796958795653038F014963E
:1051D0002D913C91232B09F050C002C0643091F412
:1051E000DF01A057BF4F2D913C91275E3F4FAC018F
:1051F00055274217530740F020A931A9293131051D
:10520000F4F502C0633091F4DF01A057BF4F2D9138
:105210003C91265F3F4FAC0155274217530740F0A2
:1052200020A931A92A30310564F502C0623091F419
:10523000DF01A057BF4F2D913C912B5F3F4FAC0139
:1052400055274217530740F020A931A925303105D1
:105250001CF019C06623C9F0DF01A057BF4F2D9184
:105260003C912F5F3F4F99278217930780F080A9C9
:1052700091A9181619064CF00AC084E0089583E03D
:10528000089582E0089581E0089580E00895862FD2
:105290000895FC01653040F0DC01A457BF4F8D91AB
:1052A0009C91892BF1F502C0643069F4DF01A457A9
:1052B000BF4F8D919C91803B910538F480A991A9B5
:1052C00049978CF502C0633069F4DF01A457BF4FE2
:1052D0008D919C918F3B910538F480A991A90A97F3
:1052E00024F502C0623069F4DF01A457BF4F8D91ED
:1052F0009C91843C910538F480A991A905971CF0F4
:1053000016C06623B1F0DF01A457BF4F8D919C9169
:10531000883C910580F480A991A9181619064CF0D3
:105320000AC084E0089583E0089582E0089581E052
:10533000089580E00895862F0895FC0183818230CE
:10534000D1F484814DE0642F0E94D932292F358118
:10535000911105C0832F0E94D932993050F4832FC8
:105360006DE00E94D932911106C081E0293020F40D
:1053700002C081E0089580E008951F920F920FB659
:105380000F921124CF92DF92EF92FF920F931F930F
:105390002F933F934F935F936F937F938F939F933D
:1053A000AF93BF938091BB079091BC07A091BD07BD
:1053B000B091BE070196A11DB11D8093BB079093CC
:1053C000BC07A093BD07B093BE07492F5A2F6B2F80
:1053D000772767FD7A95242F2E726C017D0139E0C5
:1053E000F594E794D794C7943A95D1F74C295D2961
:1053F0006E297F29489F402D112442238C019D0155
:105400005DE035952795179507955A95D1F70823AF
:1054100066E0B595A795979587956A95D1F7802B06
:1054200084278093CF00BF91AF919F918F917F91FF
:105430006F915F914F913F912F911F910F91FF902D
:10544000EF90DF90CF900F900FBE0F901F901895A8
:105450000F930FB70F931F9211248F939F93EF9386
:10546000FF93EEEAF7E08091B60791E08D5F8D370C
:1054700010F08D5793958093B6078081890F8083B4
:105480009181911D91830281011D02838381811D80
:10549000838309270F70092702950093B50735D03C
:1054A00081110093B307803989F40091B407901BF0
:1054B000963070F087E7809300088093010888E1B8
:1054C00098E08093600090936000FFCF9093B407C2
:1054D0008091B207815018F08093B20759F3E7EB3F
:1054E000F7E080819181019680839183828193810D
:1054F000811D911D82839383FF91EF919F918F91E5
:105500001F900F910FBF0F9118958FB18095807FDD
:10551000669B88601C9B8460089508950C94943366
:10552000FC018AEB91E0918380831582148282EAE8
:1055300091E09383828388E0838781E0828717826A
:10554000108616828187089508956F927F928F92B8
:105550009F92AF92BF92CF92DF92EF92FF920F9302
:10556000CF93DF93802F6DE00E94D932C22FD0E01D
:10557000642E712C882E912CA92EB12CCC2029F1CF
:1055800000E021E043EF5AE1BE01C3010E94D51EB5
:10559000F401EE0FFF1FE65BFD4F40815181BE011C
:1055A000655F7F4F20E0C30108960E94D51EF5017C
:1055B000EE0FFF1FE05DFD4F40815181BE016C5F2A
:1055C0007F4F20E0C30103965CC0EE20A1F16E0185
:1055D00086E0C80ED11C730184E0E81AF10800E0EF
:1055E00020E044ED5AE1B601C7010E94D51E21E03A
:1055F00046E95AE1B601C7010E94D51EF401EE0F3B
:10560000FF1FE85DFD4F40815181BE01605F7F4F0C
:1056100020E0C30109960E94D51EF501EE0FFF1F81
:10562000E25FFD4F40815181BE01665F7F4F20E008
:10563000C301439626C000E021E04AE75AE1BE01DB
:10564000C3010E94D51E730183E0E80EF11CF40132
:10565000EE0FFF1FE65BFD4F40815181BE01655F8C
:105660007F4F20E0C7010E94D51EF501EE0FFF1FFE
:10567000E05DFD4F40815181BE016C5F7F4F20E0B6
:10568000C7010E94D51EDF91CF910F91FF90EF903F
:10569000DF90CF90BF90AF909F908F907F906F9052
:1056A0000895CF93DF93FC01DC01A95BBF4F8C9180
:1056B0008230B1F0833019F1813061F5A95BBF4FC1
:1056C000EF01C75BDF4F288139818D919C91119744
:1056D000820F931F11969C938E93A154B10912C00F
:1056E000DF01A257BF4FE55BFF4F208131818D91D4
:1056F0009C911197820F931F8D939C930BC0DF0198
:10570000A35BBF4F20A931A98D919C91820F931F5C
:1057100091AB80ABDF91CF9108955F926F927F92B2
:105720008F929F92AF92BF92CF92DF92EF92FF92B1
:105730000F931F93CF93DF93EC015B018F851CE0E8
:10574000819F102D11248D85811189E0165F180F1E
:1057500099A18F8D811189E0992331F02CE0929FDE
:10576000800D11248A5E01C080E04E01E2E98E0EB8
:10577000911CF4012081DD24D394222319F02230DE
:1057800009F0D12C911106C0169588E2F82EF11A75
:1057900010E007C0810F869590E4F92EF81A145F87
:1057A0001F0D3E01F2E46F0E711CF301808188230E
:1057B00041F033968081882321F089A1811144C072
:1057C00098C0512C8F855816C0F74D85252D30E097
:1057D00090E04423C9F0FE01E20FF31FAC014150F9
:1057E00051092417350751F40089D11002C025E270
:1057F00001C020E2C12CEE24E3941DC00297008971
:105800002817390749F40FC00197FE01E20FF31F73
:105810000089281739073CF4D11002C025E201C0E5
:1058200020E2C12C07C0D11002C025E201C020E255
:10583000CC24C394E12C4F2DB501CE010E94A52AA2
:105840005394FCE0FF0EBECFF3018081882339F032
:10585000FE01EB5BFF4F8081882309F44AC0F4010D
:1058600080818150FF24F394823008F0F12CD12CF8
:1058700089A1D816F0F54F8D2D2D30E090E044230E
:10588000C9F0FE01E20FF31FAC014150510924178A
:10589000350751F402A1F11002C025E201C020E257
:1058A000C12CEE24E3941DC0029702A128173907EA
:1058B00049F40FC00197FE01E20FF31F02A1281760
:1058C00039073CF4F11002C025E201C020E2C12CEE
:1058D00007C0F11002C025E201C020E2CC24C3942D
:1058E000E12C412FB501CE010E94A52AD394145F6B
:1058F000BFCFDF91CF911F910F91FF90EF90DF907D
:10590000CF90BF90AF909F908F907F906F905F905F
:1059100008956F927F928F929F92AF92BF92CF9293
:10592000DF92EF92FF920F931F93CF93DF934C017F
:10593000D42F5C0184E3A80EB11CF40183A9CCE050
:105940008C9FC02D1124C65FC695C65DC12CD12C7D
:105950001DE0F40183A990E0C816D9060CF095C0AB
:105960000197C816D9060CF044C0DD2329F077242E
:105970007394C114D10409F0712CF50160804EEFCD
:10598000E42EEC0EF12C03E021E04AE75AE16BEF44
:105990007FEFC7010C970E94D51EC70107977C01B6
:1059A00071101FC0862D612F0E94D932792EE82FE9
:1059B000F0E0EE0FFF1FE65BFD4F4081518120E0DC
:1059C0006FEF7FEFC7010E94D51EE72DF0E0EE0FCD
:1059D000FF1FE05DFD4F4081518120E067E070E0F6
:1059E00006C000E020E040E35AE16FEF7FEFC7011F
:1059F00042C0DD2329F077247394C114D10409F047
:105A0000712CF5016080EC2EF12C03E021E043EFD6
:105A10005AE16BEF7FEFC70146970E94D51E7110C8
:105A200022C0862D612F0E94D932792EE82FF0E016
:105A3000EE0FFF1FE65BFD4F4081518120E06FEFCD
:105A40007FEFC7010E970E94D51EE72DF0E0EE0F05
:105A5000FF1FE05DFD4F4081518120E067E070E075
:105A6000C7010A9708C000E020E047E45AE16FEF61
:105A70007FEFC70142970E94D51EFFEFCF1ADF0AC2
:105A80008FEFA81AB80ACC5064CFDF91CF911F9145
:105A90000F91FF90EF90DF90CF90BF90AF909F90CD
:105AA0008F907F906F900895CF92DF92EF92FF9248
:105AB0000F931F93CF93DF9300D01F92CDB7DEB724
:105AC0007C01CB012AE030E0B9010E94E5328983F4
:105AD000CB01B9010E94E5328A83CB01B9010E9452
