:100000000C94DE0D0C94060E0C94060E0C94060E49
:100010000C94060E0C94060E0C94060E0C94060E10
:100020000C94060E0C94060E0C94060E0C94060E00
:100030000C94060E0C94060E0C94060E0C94060EF0
:100040000C94060E0C94060E0C94060E0C94060EE0
:100050000C94060E0C94060E0C94060E0C94D12DE6
:100060000C94060E0C94060E0C94060E0C94060EC0
:100070000C94060E0C94060E0C94060E0C94060EB0
:100080000C94702D0C94060E0C94060E0C94060E17
:100090000C94060E0C94060E0C94060E0C94060E90
:1000A0000C94060E0C94060E0C94060E0507DA82CC
:1000B000410BF50605073A02AE04EA0D05073A9A28
:1000C000950E6F0507A4A3C3D1DC000507DA8241B2
:1000D0000BF50605073A02AE04EA0D05073A9A95B4
:1000E0000E6F0507A4A3C3D1DC00507573687E6F43
:1000F0006E7E74776F7E426C61636B6A61636B7353
:100100002100496E737572656420426C61636B6A8D
:1001100061636B21004465616C65727E6861737E0A
:100120006E6F7468696E6721004465616C65727EEC
:100130006861737E426C61636B6A61636B2100541A
:10014000776F7E626C61636B6A61636B7321003DE4
:10015000979BDB9CA71E2DB136D3D55A6439C45A60
:10016000621D5916539BE94C6DA45E9D2C1BACED92
:10017000F240EDAAA5D48EE181DA558B40AD383C32
:10018000F634E78DFBEF40F6DE3C180B1D58354189
:10019000EA4AE74016D6F9A45B190B92822062D591
:1001A0008474E010C14C05393048F7900DEAC10F56
:1001B000BF5AF3942B3F898E354016C298C2BD7347
:1001C0009445C7EC1D5D5859A09D3EBEFC24AE3938
:1001D000CD75053D979BDB9CA71EBD1AD29821319A
:1001E00038622D313B868B57A7C35463D6F0428CBF
:1001F00036AE404CB6218D1912036AAC2566C7A0F5
:100200001253AC578F3DCD79E3FE0B98B85C526426
:100210008E13468C199111D14496191604A4824A62
:100220008293CB123331E29A4C5C2E111001C588B7
:10023000C10C13B1902151363FE0D59AA75C7943A8
:10024000BA879C7C3B378B3DCF6E5436AC8347D20C
:100250003D4E38766FA47BC806F5E051918D815DE7
:100260007CC435A7B9AE3DD7E71E0EE396AB57AFBA
:100270005EBD7AF5EAD5AB57AF5EBD7AF5EAD5AB90
:1002800057AF5EBD7AF5EA35B77138F4D9D7D0816A
:100290001D073061D164C464A09131B27131B77B64
:1002A000B2E439271D8E125B171D632A67C6760FCD
:1002B0000E0CBCC6A0E255BE76F7721847FF357A21
:1002C0001C878B1B3DD7E71E0EE396AB57AF5EBD79
:1002D0007AF5428C3606334C4A1CA3C6418CA60ED6
:1002E00043CC8E57B363B878F5EAD5AB57AFB98D29
:1002F000C3A1CF7E04E6927B2E91B7BD48C41431D2
:10030000E21A942D3A42149334320C8046E2C09C97
:100310005CE342B9604E5EC1537EC7DDCB611C7D9C
:10032000C9DE274F7B73D66E102EB0B6E790BD1E88
:10033000B0F7C6C036BE675B77103604CFECBD7928
:10034000E9711C2E6E3D979BDB9CA71E3D50BB6A3E
:10035000897564594C6DA416C03A9C4E960DD6769C
:1003600079B598DA48BD5A4C6DA416C03A94DA555E
:100370004BA91DC3ABC79EE6BC71FF0DA4BB616B4F
:10038000163558F7400C588DC3AD820B0605C15A7F
:10039000951B826E131682B128B8133120A2310941
:1003A000E91E72989B9FF26ACD53AEFCA83DD54BD7
:1003B000E9CE533AD62867D66511705F4EE8C2CAB7
:1003C00002EDF49770CD69AE2B3D979BDB9CA71E89
:1003D0003D50BB6A897564594C6DA416C03A9C4E59
:1003E000960DD67679B598DA48BD5A4C6DA416C0EC
:1003F0003A94DA554BA91DC3ABC79EE6BC71FF0DFD
:10040000A4031BAC9A93C1BA6560601BD3AD76C1DF
:100410000584C4AAC80193BD591C2C895B440C08EF
:100420006A2C258D19A2636E7ECAAB354FB9F209CD
:100430003AD6801B8C35CAD5B56163608D7842177A
:10044000561668A75F202C25AE445830F0CCBA2C45
:10045000BEC535A7B9AE3DD7E71E0EE396AB57AF85
:100460005EBD7AF5EAD5AB57AF5EBD7AF5EAD5AB9E
:1004700057AF5EBD7AF5EA35B77138F4D9159DA34B
:100480000383ED1A75E895B1DD2242488C0803AF6D
:1004900032BC794B464C06328078CA1818652466FF
:1004A00024656C7792DA5549BC1E18781551021AEA
:1004B000115FDCBD1CC6D17F8D1EC7E1E206179718
:1004C000DE7265E6642C31D6C17633AC31D478CA9D
:1004D000E49AB59FE509D1A8C509026C161B40989E
:1004E00052351A9EE43EA79DD1CB2A9D8321B44567
:1004F000DA226DC1C198A5EBA29975021797DE3279
:100500002920216005011434AAF1E0D582122208C5
:100510002E0134C4D88EFD2C4958B37108CED0CDED
:1005200062974CC1613A8749729FD3CEE86595CEF8
:10053000C110DA226D91B6E060CCD275D1CC3A010F
:100540001797DE322920216005011434AAF1E0C199
:10055000A8464101042B84205066D67E161BD66C1B
:100560001C823374B3D825537098CE616AEE73DA67
:1005700019BDACD23918425BA42DD2161C8C59BAC5
:100580002E9A59271797DEA2510165800A02800032
:100590002AA28BE96429A2020800820A0305D46812
:1005A000D67E161BC71A7120CEBD59EC3D45861963
:1005B0006B989AFB9C76462FAB740E86D016698B8F
:1005C000B405076396AE8B66D6099797BF9FB3D7DE
:1005D0003CDACF958DCA466523D3C34D64A3B2518F
:1005E000D9C8BB3D241A9404190E643810080504B8
:1005F000A0C0020A14280164389001866050D7090F
:100600009797CFBC7AF56770F69A47FB035D14B2F3
:10061000826105A6879B9045242B1856E0DD1E922B
:100620000891D4E5126A10805040000A2CA0408145
:100630003290E140061882415D2797972F39214774
:100640003FCF6401CB12461EED0F7411C90A91957C
:1006500083879B9085212B18561FEE21D1A024C89B
:100660007020C38188141080020B2850A088C870A5
:1006700020030CC1A0AE1397D77F06AE1E73DFEF29
:10068000B804C30A924524E13ABB120C2B481691D8
:100690003CDDB83428211DC87020C300020B800245
:1006A0000516B000813890E1402291A8646C2FAF0C
:1006B000DFF5449D6CC30DB92137E486DC901B72D5
:1006C000436EC80DB92137E4E26079407FFDDE89D1
:1006D0007F56EEFB774EB8920128D3C5DF8F05E039
:1006E0001AD3397F1F30172CE6CCFCFBAD830BBA35
:1006F00038E45728071830E080B9143B54D358B178
:1007000062196A81A8CA58838250C61AA81AA0EA38
:1007100060801586A926B8E70185091394935FF1D7
:10072000DA5B6FBDE5081C81A370036F7DDBB7BD8D
:1007300009678EC031B7DE7AEBCDAB772FEF5F570D
:100740000E2E8617E486DC901B72436EC80DB9210D
:1007500037E486DC901B71332D277FF7DE265F415F
:100760006EC80DB92137E486FC2A9EED1F3AA773A7
:100770000405982CFE7C2E2230C215E6EFE2887329
:100780007A38FEE166E6958C92FC084F284C98A0DA
:100790005CE60C21090360C080C31A74057570A162
:1007A000D4522E0C95AC32E694811108E0907588F5
:1007B0001C60C08003FA15AFDE7AEBADB7DE7AEBD2
:1007C0004DB8F5E6DD9B776FBD81B7DE7AEBADB74F
:1007D000DE7AF5150507DA82410BF50605073A02C0
:1007E000AE04EA0D05073A9A950E6F0507A4A3C358
:1007F000D1DC0007876F018183021B0007C78F4888
:100800003620B0015307072F59C064322907874F9C
:1008100083000B4080150007476F339819C0080705
:10082000876F23B023B00307072F994C36230507A2
:10083000476F338091C90807070F331919CC140784
:10084000876F59EC086C0007070F33594E460A07AB
:10085000070F3398998C1407070F81018C0C60A443
:1008600007C76F12B6CC195307C76F12F665260C6F
:1008700007C78F48E665260C07072F58E9C8C82820
:100880005005077B0C86F80405077B84E878020591
:10089000072736E91B8587E334165927058727285C
:1008A000C01A7705077B04808C27058767C9C13B81
:1008B0000587A705B0027705073B100002790205FE
:1008C00087C7C81E7705872722C01A7705071B121E
:1008D0000012780205077B0418E3090507DA824154
:1008E0000BF50605073A02AE04EA0D05073A9A959C
:1008F0000E6F0507A4A3C3D1DC00D5F08D14A1C8E9
:1009000081CFD9F1AF200003081F051F1F151B1F42
:1009100011111F110E1F15111F05011F111D1F049D
:100920001F001F0010101F1F041B1F10101F061F89
:100930001F011F1F111F1F05071F311F1F051B1739
:10094000151D011F011F101F0F100F1F0C1F1B046F
:100950001B071C071915130C121E1F120C1E121256
:100960000C121F0C1A14041F052E2A1E1F021C0035
:100970001D00201D001F041A011F001E041E1E0260
:100980001E1E121E3E120C0C123E1E020614120AED
:10099000020F121E101E0E100E1E081E1A041A2E12
:1009A000281E1A12161F111F121F101D15171115C0
:1009B0001F07041F17151D1F151D01011F1F151FE0
:1009C00017151F001700001000040404040E040291
:1009D00029060A00007F8F8D8115032B06560CAC6B
:1009E000185831B06260C5C08A8115032B06560CB9
:1009F000AC185831B06260C5C08A8115032B065609
:100A00000CAC185831B06260C5C08A8115032B0642
:100A1000560CAC185831B06260C5C08A8115032BE2
:100A200006560CAC185831B06260C5C08A811503F7
:100A30002B06560CAC185831B06260C5C08A8115BF
:100A4000032B06560CAC185831B06260C5C08A81C1
:100A500015032B06560CAC185831B06260C580FFE8
:100A6000FD0749100303FFFFFF636363F7FFBE1C2D
:100A700000000303FFFFFF63E3E3E3F77F3E1C0097
:100A80000000F0FCFE0E07030303070EFEFCF0005F
:100A9000000303FFFFFFC3E370F0FBCF0F0703006A
:100AA0000303FFFFFF6363F3F3070F0C0018181F26
:100AB0001F1F1818181C1F0F07000018181F1F1FD2
:100AC000181801070F1F1E1818000001070F0E1C31
:100AD0001818181C0E0F0701000018181F1F1F19E7
:100AE0001800001B1F1F1E181818181F1F1F18188A
:100AF00019191C1E0F035B1003071F3F7FF3E0E073
:100B00007B1F0F0303F0FCFE0E07030303070EFE1B
:100B1000FCF000000303FFFFFF0303000303FFFFDC
:100B20000303000000000000000000C0F8BE8FBFFB
:100B3000FFF8C00000000303FFFFFF63E3E3E3F7F8
:100B40007F3E1C0000000303FFFFFF6363F3F30716
:100B50000F0C0000000018181F1F1F1818000000BD
:100B600001070F0E1C1818181C0E0F0701000000BB
:100B700000070F0F1C1818180C0F070000000000CA
:100B800000000018181F1F19010119191F1F1E1836
:100B90001818181F1F1F181801070F1F1C181800FE
:100BA0000018181F1F1F181819191C1E0F03000109
:100BB0000000EC006100B500B5006100EC00000031
:100BC00000019FFFEC004BFFB50014FF610000FF28
:100BD000000014FF9FFF4BFF4BFF9FFF14FF00001F
:100BE00000FF610014FFB5004BFFEC009FFF801079
:100BF00040404040404040404040404040404040F5
:100C0000800000000000000000000000E0D020A0F4
:100C100020A0404040808080800000000000000054
:100C200000000000000000000000000000000000C4
:100C300000000000000000000000000000000000B4
:100C400000000000000000000000000000008080A4
:100C50008040404040A020A01090D0906848700094
:100C60000000000000000000000000000000000084
:100C7000DB92DB92DB92DB92DB92C10C5AD29AD2EE
:100C80009AD29AD29AD29AD29AD29AD29AD28D6182
:100C90000163D392D394D694CE89CD89DA92CE8053
:100CA000D090D090600000004CDA92DA92DA92DABA
:100CB00092DA92DA92DA921A52DA92CC80D090D00A
:100CC00090D090D090D090D090D09060070D0466D6
:100CD000D496D293D291D191D190D096D591D591ED
:100CE000D5916509CD89CD89C10C5AD29AD29AD2B3
:100CF0006B10081F070303FFFFFF03030F1F080309
:100D000003FFFFFF6363606363FFFFFF03030003F1
:100D100003FFFFFF6363F3F3070F0C000000000005
:100D20000000000303FFFFFF636363F7FFBE1C00C7
:100D300000000000C0F8BE8FBFFEF8C00000000039
:100D40000303FFFF1F7CF0C383FFFF0303000303C4
:100D5000FFFFFFC3E370F0FBCF0F070300000000AD
:100D600018181F1F1F181800000018181F1F1F1821
:100D7000180018181F1F1F18180018181F1F1F18F9
:100D80001818181C1E0F030000000000000018189F
:100D90001F1F1F1818181C1F0F07000018181F1FEF
:100DA00019010119191F1F1E18180018181F1F18E4
:100DB0001801071F1F1F00000018181F1F1F1918F8
:100DC00000001B1F1F1E181877100303071F3F7F0B
:100DD000F3E0E07B1F0F0303F0FCFE0E07030303A9
:100DE000070EFEFCF00303FFFFFF0303000303FFF6
:100DF000FF03030000000000000303FFFFFF636325
:100E000063F7FFBE1C00000303FFFFFF63E3E3E3A0
:100E1000F77F3E1C0000F0FCFE0E07030303070EE5
:100E2000FEFCF0000303FFFFFFC3E370F0FBCF0FF6
:100E3000070300000303FFFFFF6363F3F3070F0CD7
:100E4000000000000018181F1F1F181800000001E4
:100E5000070F0E1C1818181C0E0F07010000070FB3
:100E60000F1C1818180C0F070000000000000000ED
:100E700018181F1F1F1818181C1F0F07000018181C
:100E80001F1F1F181801070F1F1E18180001070F3A
:100E90000E1C1818181C0E0F07010018181F1F1F12
:100EA000191800001B1F1F1E18001818181F1F1FDD
:100EB000181818181C1E0F03150F27000E9C3973E5
:100EC000E6CC9933671E00F090079C3973E6CC9905
:100ED00033678EBC02150FA7218BC96432B120C5C0
:100EE000C2C4421105984C269B3DDEB9D94C2693CD
:100EF00022458A4C8A4C8A4C2693C962F80A198F7B
:100F000039E5CFC3718C9DC3615DD6655DD6655DE6
:100F1000D6655DD6655DD665CE23290F27000E9C6C
:100F20003973E6CC993367CE9C3973E6CC99336735
:100F3000CE9C7900C0431E70E6CC993367CE9C39B5
:100F400073E6CC993367CE9C3973E6C82B190FA78B
:100F5000218BC9C482140B130B130B132916A44C39
:100F6000A4589032D9ECF1CECD6652A44291499169
:100F7000224526458A14994C8A4C2693C5F015299A
:100F80008F7B0C4EC8AA882C4456452415591591C0
:100F900054E480880D2207446C105915915464550F
:100FA0006455645544A088DC08637C4039B0D8A8F7
:100FB0006C246C543612361236123641368B8DCA7A
:100FC00046C246C246C246652361A3B291B0199C8F
:100FD000BC03298F39E59F07C731760E877559976E
:100FE0007559977559977559977559977559977593
:100FF0005997755997755997398F194F7B6C3613D7
:1010000023028220132A52006552844A9109150155
:101010003132992C1C1F70B0984CA44891329132F7
:101020009132912245CA44CA6432D96CEF190F2714
:10103000000E9C3973E6CC993367CE9C7900C0438F
:101040001E70E6CC993367CE9C3973E6C82B130F1C
:1010500027000E9C3973E6CC99330F0078C803CE75
:101060009C3973E6CC9923AF001D8F7B0C4EC8AA28
:10107000882C4456456EC8AA884011591511A022E3
:10108000AB2202802237C2181F500E2C362A1B09B1
:101090001B958D848DCA46C246C246C246C246C210
:1010A0006670F20E190FA7218BC9C4828018995857
:1010B000984C261604C4C2C448052393CD1EEFDC09
:1010C0006C2645269349912245264526452693229E
:1010D00093C964317C05198F39E5CFC3718C9DC3E9
:1010E000615DD6655DD6655DD6655DD6655DD665A7
:1010F000CE23138F7B0C4EC80D1104103113310217
:1011000022820BB911C6F8807260B109B251D904BC
:10111000D9A86C169BC1C93B138F7B0C4EC80D0917
:1011200056E486D820621772238CF101E5C0621361
:1011300064A3B209B251D92C36839377134F7B6CD9
:101140003693C964624440106432994C260BC70739
:101150001C2C2693C96422458A94C96432D96CEF49
:10116000138F7B0C4EC80DB921C18ADC901B7223F2
:101170008CF101E5C062B3D804D9A86C169BC56692
:1011800070F20E138F39E5E7721C63E7705897759C
:101190005997755997755997398F210F27000E9CCC
:1011A0003973E6CC993367CE9C3973E6CC99070046
:1011B0003CE40167CE9C3973E6CC993367CE9C3909
:1011C00073E6C82B1F0F27000E9C3973E6CC9933AA
:1011D00067CE9C3973E6CC03001EF2803367CE9C49
:1011E0003973E6CC993367CE9C39F20A1D0F27007C
:1011F0000E9C3973E6CC993367CE9C3973E60100B7
:101200000F79C0993367CE9C3973E6CC9933678EDA
:10121000BC021D8F7B0C4EC88C880082C8AA8880B7
:10122000115915B92107446C1039206283C88D30DB
:10123000C60794038B8DCA46C246C266B151D948CF
:10124000D8A86C246C826C169BC1C93B218F7B0C87
:101250004EC8AA88244156452415591559155915C3
:101260001100145915B921AB220245E44618E303D5
:10127000CA81C54665B3D8A86C246C543612362A88
:101280001B091B958D848DCA46C26670F20E218F94
:1012900039E5CFCB718C9DC3615DD6655DD6655D4B
:1012A000D6655DD6655DD6655DD6655DD665CE23B2
:1012B0001D0FA7218BC9C4888008C2448A05291341
:1012C0000B02626162418A85890529094C367BBC23
:1012D00073B39914295264322932991499149914C8
:1012E000991499142932994C16C3571D8F39E5CF9B
:1012F000C7718C9DC3615DD6655DD6655DD6655D44
:10130000D6655DD6655DD665CE231F0FA7218BC937
:10131000C442110B132916A44CA4589032994C2C9A
:1013200044B130B1202052269B3DDEB9D94C8A4CC5
:101330008A4C8A1429329914994C26932293229329
:1013400022458A4C268BE12B9FCF631CF973E674F0
:101350009FF3B22EEBB22EEBB22EEBB22EEBB22EEF
:10136000EBB22EEBB20E876C507573680020202014
:101370007E4C6F73653A7E2000202020207E5769C6
:101380006E3A7E20000A20546F747E4265743A7E65
:1013900020000A496E69747E4265743A7E20007EA0
:1013A0007E207E50757273653A7E008707A31D59B3
:1013B0004E9E02439FB387C338FAAFD1E3381CFA7D
:1013C000D97FEF2B9FF1721847FE7D721C87BDF706
:1013D000DE09BFC5AB57AF5EBD7AF5EAD5AB57AFF7
:1013E0005EBD7AF5EAD5AB57AF5EBD7AF5EACF05BB
:1013F00055D7E71E0EE396AB57AF5EBD7AF5EAD53B
:10140000AB57AF5EBD10B3630589D931C461A33159
:101410000C63C7F0EAD5AB57AF5EBD7AF5EAD5AB42
:1014200057AFB98DC3A13FE3A3984BE4823979C488
:101430005C22DFEA4572E39C93418C4423455A9732
:1014400019E04A821A648A4706E61239720B5E7AFC
:10145000E6285E2817E186B9146EBD183EBAF25927
:101460002F8771F4C2DE1B955DBCB3F76671F0A8DF
:10147000DD205C606DF514DD2C0E9403E91E721AFC
:101480003BE5A0D92CF63CBB175C40D8D5CB38380F
:10149000D80C2E0CF6DEE8A96473F1380E87755966
:1014A00017C32355A79BDB9CA76E6A572D078BA9F3
:1014B0001DC3626A23758C5A406A956131B599CE15
:1014C000D4665A4C6DA4165387D3C9B2C1DA2EAF75
:1014D00016533B86C5D446EACAB0865A625D48EDCB
:1014E000AA45A0561C1E7B9AF3C6F7BF4748631A4D
:1014F000E285BD4B88C3EC723006951258B11EE8E8
:101500008C61113AEFEC5D82AD69B81AB3202C10F2
:1015100076355E08DD9B38CC0EDB61A3312C622969
:1015200035A4314336A8073FFCFD2F325697C844F7
:10153000B76314862C28A39603C67660B8A8C5A006
:1015400014143A944578CE585D72C1D535B8DA4155
:1015500061E1808EE199DE4AD4753BD35BB950B32B
:101560007E1263D41C942F5CF2E760E05586376FDF
:10157000C988C9402363E4A6B1828AA214E5C2C027
:10158000AB8812D08878515355106560D0BF4F2E6C
:101590003FD5636FBDF5D65B6FBDF5D65B6FBDF50F
:1015A000D65B6FBDF5D65B6FBDF5D65B6FBDF5D66F
:1015B0005B6FBDF5D65B6FBDF5D65B8FFE3CD5E7A7
:1015C000DCE63CE5CA7F0FB8E634E7C7FFBBF3DDD6
:1015D000FFEE701C831C7875C97F5DB27E5E6EE382
:1015E000B22EEBB22EEBB22EEBB22EEBB22EEBB252
:1015F0002EEBB22EEBB22EEBB22EEBB22EEBB22EC6
:10160000EBB22EEBB22EEBB22EEBB22EEBB22EEBF8
:10161000326EF95955979BDB9CA71EBD10B363B87A
:1016200078758C1A07319A3A9C561A03911841EA38
:1016300085981D83811863BD7A21461B8319262551
:101640008E51E3204653872166C7ABD9315C0C69C4
:10165000CC90181CB16E8F3DCD79E3FB5F07838979
:1016600090C82268BB5840C534C400234398060C78
:10167000A540A0693D62D244160130AD0BB9E50D1D
:10168000669848BA388A8B10D36601CB3691B03051
:101690004D5DC8268E1530688544021EF9E291AF73
:1016A000AE79CA951BEBB238D3B156D832D6386969
:1016B00064A108ABF1D639CAA263F644C71A203335
:1016C0008C453899B120B2612FAF74AC15B68C350A
:1016D0008E733A594C3652D66521049601CB35A704
:1016E000392FEB12BCF00255D7E71E0EE396AB572D
:1016F000AF5EBD7AF5EAD5AB57AF5EBD7AF5EAD5F8
:10170000AB57AF5EBD7AF5EAD5AB57AF5EBD7AF5A4
:10171000EAD56B6EE370E8CF78C7C0AB0C0E8CEDEA
:101720008E419DCE453456505194A284B9DCD7EDFC
:10173000BA30B65B440C3386EBEC005107EBE0812A
:10174000B1DD31A8D3B9683262329001C42230F0E1
:101750002AA20434229E89882822ABF1EDCA67BDF3
:101760001CC6D1FF3A781C87C3BAAC8BE111559FD8
:10177000B387C338FA5F078FE370E867FFFBB3F204
:10178000192F8771E4BF171CC761EFBD77C26FF1D6
:10179000EAD5AB57AF5EBD7AF5EAD5AB57AF5EBDC4
:1017A0007AF5EAD5AB57AF5EBD7AF5EAD5AB57AF60
:1017B0005EBD7AF5E7022FAF1F9DF394BF6E4E73A7
:1017C000FEC87F1F3FE85FCF0FE0F8AFE490EF78EF
:1017D0009AF3E4BF0F4F739EDCB9ACCBBAACCBBA73
:1017E000ACCBBAACCBBAACCBBAACCBBAACCBBAAC58
:1017F000CBBAACCBBAACCBBAACCBBAAC4B007F8FCC
:101800008D8115032B06560CAC185831B06260C59B
:10181000C08A8115032B06560CAC185831B0626093
:10182000C5C08A8115032B06560CAC185831B0621E
:1018300060C5C08A8115032B06560CAC185831B010
:101840006260C5C08A8115032B06560CAC1858314E
:10185000B06260C5C08A8115032B06560CAC1858BF
:1018600031B06260C5C08A8115032B06560CAC18D6
:101870005831B06260C5C08A8115032B06560CAC86
:10188000185831B06260C580FFFD072E00446561C5
:101890006C65727E69737E7065656B696E677E00CC
:1018A000496E737572616E63653F2000496E69749D
:1018B00069616C7E6265743F2000850F00800020A6
:1018C0000008000280002000088000800008000856
:1018D000808D0F008000200008000280002000089A
:1018E0000002800020000800028000200008800024
:1018F0008000080008800080000800088000800048
:10190000080008800208D4D205087F7F3E1C0841E9
:1019100020FE0105F1F1F111D1B1D111F151515177
:1019200051515151515151515151510000FF00003D
:101930007F7F09090F06007F7F19396F46007F7F7F
:101940004949414100266F49497B3200266F494988
:101950007B32FF0000FFFFFFFEFFFEFF0279CD9507
:10196000A5CD790111111101F9F901010000FF0064
:10197000007F7F09090F06007F7F40404040007CC8
:101980007E0B0B7E7C00070F78780F0700000000AD
:10199000000000FF00001F3F3F33333333333E3638
:1019A000363E363E363E36363E36363E360000FF52
:1019B00000003E7F41417F3E007F7F0E1C7F7F0005
:1019C0000000000000000000000000000000000017
:1019D000000000003F405040404078464141595986
:1019E0004141414159594141414141414141000039
:1019F0007F000001017F7F0101007C7E0B0B7E7C5C
:101A0000007F7F09090F06007F7F4949414100009F
:101A100000000000007FFFFFA3431DD3ABA651339E
:101A2000889331F24C9FDDBD8917F522B98CC739F7
:101A3000AD8B7A919CF2469F1D259775517F813A17
:101A4000A657BD387B522FEA659DBC731C97E045B5
:101A5000BD8C2307C7E47EF0B22EC18B7F62B7BD79
:101A600075D5BA6D9C63905776F556CFC9E8205866
:101A7000ADAC53572DA3F33232ADDB26E8442E76BE
:101A8000F536257B30DA657D94796AA675A6A7D9E7
:101A90001719C351193A708E5B3DB00E6B24755BFC
:101AA00067862A777BEBC2CB1E23ADDBFFC1E8D56F
:101AB000FFBC72444E085C40B8807001E1023DB446
:101AC000062FC0026B6404B82137002E205C20B0C2
:101AD000A13061C1820503361436042E209C901B70
:101AE00072F4EA7F68D6D22784D04E3E044DEE8E43
:101AF00066A5C30B7F4FAE5E816501AAFD2FC8DED0
:101B00002FDC61CCC4175AFD951C7B9AF3324EBB77
:101B10007F8AB6FD37020D971983C009B92137E4D2
:101B200086AC015E0FFB77BC1BA7B12EEBB22EEB90
:101B3000F214238FBB93160217102E205C40B8803E
:101B40007001E102C205840B0817102E205C40B81A
:101B5000807001E1028196D917EB72EBADB7DE7AA6
:101B6000EBADB7DE7AEBADB7DE7AEBADB7CBBA0053
:101B7000A3CF9DA7FCB5739AF5D65B6FBDF5D65B79
:101B80006FBDF5D65B6FBDF5D65B6FBDF5D69B150A
:101B9000971983C009B92137E486DC901B72436E24
:101BA000C809C218D9FBEFB18FA7B12EEBB22EEB4B
:101BB000B22EEBB22EEBB2C669004A2E11241FBE24
:101BC000CFEFDAE0DEBFCDBF12E0A0E0B1E0E2EEA1
:101BD000F6E602C005900D92A632B107D9F727E0CC
:101BE000A6E2B2E001C01D92A63BB207E1F71DE0FC
:101BF000CEEDDDE004C02197FE010E944432CD3DD0
:101C0000D107C9F70E94ED2E0C946F330C9400009D
:101C10002F923F924F925F926F927F928F929F92FC
:101C2000AF92BF92CF92DF92EF92FF920F931F93EA
:101C3000CF93DF93CDB7DEB761970FB6F894DEBFD1
:101C40000FBECDBF2C011A012B87FA0134913196BA
:101C500024912F83832F8F778F5F482F50E05A83F3
:101C60004983CA01840D951D97FDAFC150E8451603
:101C700051040CF0AAC1822F8F738F5FAB01480F04
:101C8000511D57FDA2C1603471050CF09EC1331F78
:101C90003327331F398B26FBAA27A0F9B0E03B017D
:101CA00077FF04C066247724661A770A97E06922D2
:101CB0007724AB0177FF02C0495F5F4F9A01F3E0E1
:101CC00035952795FA95E1F73E832D8377FF0DC073
:101CD0006114710451F0215031093E832D8348E095
:101CE00050E0BA01661977093B01682F6695669541
:101CF0006695877009F06F5F702F72707C8701FDA9
:101D000044C021E01A161B060CF020E0188A1F863A
:101D1000902F9170988749815A814150510900FD57
:101D200002C050E040E097E0A0E1B0E080E0912CFC
:101D3000812CE62FF0E0FE87ED876F857889ED85B1
:101D4000FE856E177F0708F040C1EE24E394F12C66
:101D5000FD0173E0F695E7957A95E1F7E20DF31D45
:101D6000E4916E2F70E0FD01E770FF2702C07595CA
:101D70006795EA95E2F78D010F5F1F4F60FF11C075
:101D8000FFEFEF1AFF0AD801E3CF862F8150990B9E
:101D9000988B8F8721E01A161B060CF0B9CF20E034
:101DA000B7CF31E0E316F10409F0A9C0F80163E010
:101DB000F695E7956A95E1F7E20DF31DE491F0E001
:101DC0000770112702C0F595E7950A95E2F7E170D3
:101DD000FF27BF016F5F7F4F7C836B83129610E0FC
:101DE00000E06B817C816017710709F4E9C0798993
:101DF000772351F0692F70E0222309F4C5C0625E99
:101E00007D4FFB016081862B915008F075C08823BF
:101E100009F44AC0ED80FF85EF0E37E03E150CF463
:101E200043C0B201640F751F60387105E8F590E09A
:101E3000062C02C0880F991F0A94E2F7E7FC15C030
:101E40006E2D70E86703F0011124BF01640D751D4C
:101E5000640F751F6E547C4FFB01D0803B8533238C
:101E600009F499C0D82AFB01D08261147104E1F011
:101E7000F7E0EF16C9F03FEFE316B4F0EE2DEE0CED
:101E8000FF0B3196F695FE2FEE27F795E795E40DBB
:101E9000F51DE40FF51FEE54FC4F60817B85772321
:101EA00009F47DC0692B60838F8187FF02C091E0B8
:101EB0002927EFEF8E1A9E0A3885332309F473C061
:101EC0004150510969817A81861697069CF07C857C
:101ED000772309F46BC08F8598890197988B8F873A
:101EE0005885552309F469C049815A8141505109E7
:101EF000912C812C97E080E00F5F1F4F72CFB701CC
:101F0000615071097A876987E1E0F0E0098402C0D5
:101F1000EE0FFF1F0A94E2F7BF016F5F7F4F7C83D4
:101F20006B83D12CC12C5601A00EB11EF50133E0FC
:101F3000F695E7953A95E1F7E20DF31DE4916E2FE2
:101F400070E0E7E0AE22BB2402C075956795AA94C5
:101F5000E2F760FF0EC061E070E00C2C02C0660F7B
:101F6000771F0A94E2F7EB81FC81E60FF71FFC83F1
:101F7000EB83FFEFCF1ADF0A69857A85C616D7068D
:101F800094F2AE0DBF1D2BCFE7E0F0E0E61BF70BA0
:101F9000E25EFD4F37CFF82EF094DF2064CF892F1B
:101FA0008095682380CF4F5F5F4F8CCF4F855889D6
:101FB0004F5F5F4F588B4F8793CF50E040E098CFF3
:101FC00061E07989671B698BB8CE61960FB6F8948A
:101FD000DEBF0FBECDBFDF91CF911F910F91FF905C
:101FE000EF90DF90CF90BF90AF909F908F907F90B9
:101FF0006F905F904F903F902F9008956F927F92D7
:102000008F929F92AF92BF92CF92DF92EF92FF9208
:102010000F931F93CF93DF939C01FA019490319615
:10202000E491C92CD12CC601820F931F009709F4AB
:102030006FC0803891051CF080E8982E921AEB0151
:1020400083E0D595C7958A95E1F78C2F91E0FE2F17
:10205000F77009F490E0E695E695E6959E0FFE018F
:10206000E90FF11D399714F098E09C1B4E5F5F4F0C
:10207000E62FE7708E2E8E011695102F00271795EC
:102080000795020F131FAE2E0E2E000CBB08AFEFEC
:10209000B0E002C0AA0FBB1FEA95E2F7A095B09589
:1020A0007B2E282F2C1B291798F5B8016E547C4FD6
:1020B000F12CE12CE91430F5FA01EE0DFF1D24910D
:1020C00030E00A2C02C0220F331F0A94E2F787FD8A
:1020D00008C0FB016080E62DEA236E2E622AFB0118
:1020E0006082882049F087303CF4FB01E058FF4FC4
:1020F00020812721232B2083FFEFEF1AFF0A6F5F38
:102100007F4FD8CF4C0D5D1D00581F4F8F5FC9CF3B
:10211000DF91CF911F910F91FF90EF90DF90CF90C3
:10212000BF90AF909F908F907F906F900895680FB1
:10213000792F711D16161706CCF480389105B4F46A
:102140008F3F980711F490E080E06138710514F03A
:1021500060E870E0681BFC01EE54F94F615030F00C
:102160008191DF01119788608C93F8CF08956F9269
:102170007F928F929F92AF92BF92CF92DF92EF9217
:10218000FF920F93CF93DF93822FC42FD0E0862E40
:10219000912C6DE00E942432A82EB12CC92ED12C96
:1021A000AA0CBB1CCC0CDD1CEE2081F100E021E070
:1021B0004FE85BE1BE01C4010E94080EF501EA5E32
:1021C000FD4F40815181BE01655F7F4F20E0C4011A
:1021D00008960E94080EF601E450FE4F408151819E
:1021E000BE016C5F7F4F20E0C40103960E94080E81
:1021F000DF91CF910F91FF90EF90DF90CF90BF9044
:10220000AF909F908F907F906F900895002381F101
:102210003E0186E0680E711C740184E0E81AF10842
:1022200000E020E040E75BE1B301C7010E94080E37
:1022300021E042E35BE1B301C7010E94080EF50112
:10224000EC50FE4F40815181BE01605F7F4F20E026
:10225000C40109960E94080EF601E652FE4F408125
:102260005181BE01665F7F4F20E0C4014396BECF1F
:1022700000E021E046E15BE1BE01C4010E94080EDE
:1022800083E0880E911CF501EA5EFD4F408151818B
:10229000BE01655F7F4F20E0C4010E94080EF60179
:1022A000E450FE4F40815181BE016C5F7F4F20E0C2
:1022B000C4019CCF0895AF92BF92CF92DF92EF926C
:1022C000FF920F931F93CF93DF936C017B018B01E0
:1022D000040F151FEB015E01AE18BF08C017D10730
:1022E00059F06991D601ED91FC910190F081E02DBA
:1022F000C6010995892B79F7C501DF91CF911F910F
:102300000F91FF90EF90DF90CF90BF90AF90089526
:102310002F923F924F925F926F927F928F929F92F5
:10232000AF92BF92CF92DF92EF92FF920F931F93E3
:10233000CF93DF9300D000D01F92CDB7DEB7FB0163
:10234000BC01600F711D7A836983161617060CF0A5
:10235000FCC0BF016E0D711D161617060CF0F5C0FE
:10236000E034F1050CF0F1C04115510509F4EDC060
:102370007E2F7770672EDF01F7FD179613E0B59576
:10238000A7951A95E1F77A2FF7FF04C0662011F0A0
:102390007FEF7A0FEE27FF27E81BF90B97FD02C0AE
:1023A000F0E0E0E0A981BA81D02EA038B1051CF0A0
:1023B000A0E8DA2ED81ADE1AA72F072E000CBB0BC6
:1023C0007F3F0CF0A7C0FA2EF094FD8211E0198334
:1023D0006E2D677009F41982E694E694E69469819B
:1023E000E60EAE0DB11D19971CF068E0E62EE71A57
:1023F0007D80770E172D60E81603D00111248A0F17
:102400009B1F8E0F9F1F262C062C000C3308A3E069
:10241000CA1282C0B2E0BB83602F6D19AB816A9F84
:10242000602D11248A2E912CBD810B9FE00DF11D92
:102430001124E89DD001E99DB00DF89DB00D112447
:102440005A01AA0EBB1E2115310509F49A01A401F7
:1024500041505109A40FB51F2A0F3B1FAFEFB0E049
:10246000062C02C0AA0FBB1F0A94E2F7AD014095EB
:1024700050955A8349834E2C470E70E05B815D9DD9
:10248000600D711D1124741409F45FC0DC01AE5499
:10249000BC4FBC83AB8310E000E0512CD51409F491
:1024A0004CC0F501E00FF11F449150E0022C02C036
:1024B000440F551F0A94E2F7B2E0E981FA81CB1686
:1024C00041F0EBEFCE122BC0FA01E095F09550E011
:1024D00040E077FC06C0AB81BC81FC90FE22F42A70
:1024E000FC92662069F0B6E0B71554F0EB80FC80F2
:1024F000A0E8EA0EF11CD7014C914F23452B4C93D9
:102500005394080D191D4B815C814F5F5F4F5C83B5
:102510004B83C4CF1D825ACF11E01B837DCFF901BD
:10252000E00FF11FE491F0E0022C02C0EE0FFF1F5C
:102530000A94E2F7E095F095CCCF7394A60EB71EFF
:10254000260F371F80589F4F9ECF0F900F900F90F0
:102550000F900F90DF91CF911F910F91FF90EF900F
:10256000DF90CF90BF90AF909F908F907F906F90B3
:102570005F904F903F902F900895BC0190E080E0D5
:10258000AB01FC010E94D81241505109E109F10947
:1025900028F068517C4F8F4F9F4FF6CFAB01FC0165
:1025A0000E94D812641775078E079F07C8F3089515
:1025B000AAEAB3E02FB7F8947D918D919C9166B50E
:1025C0002FBFA89B05C06F3F18F47F5F8F4F9F4FB1
:1025D00022E0660F771F881F991F2A95D1F708956B
:1025E0008FB18095807F669B88601C9B8460089576
:1025F00080389105B8F460347105A0F420E191E0D1
:1026000061FD94E060FD990F62FD9295687F269FC1
:10261000D0011124A80FAE54BC4F8C9140FF03C0D1
:10262000892B8C93089590958923FBCF8F929F924D
:10263000AF92BF92CF92DF92EF920F931F93CF93FF
:10264000DF934A01EB015B01A20EB11C040F152FB1
:10265000111DCA15DB05ACF46401C8010134110574
:1026600014F080E490E0C816D9064CF44E2DB60163
:10267000CE010E94F8128FEFC81AD80AEECF219629
:10268000E8CFDF91CF911F910F91EF90DF90CF9026
:10269000BF90AF909F908F9008950895EF92FF9212
:1026A0000F931F93CF93DF937C0100E021E045E17E
:1026B0005AE170E060E090E080E00E94080ECDE01A
:1026C000D0E010E0D7011C96EC91E10FE370F0E050
:1026D000EE0FFF1FEE52FE4F4081518100E021E0DE
:1026E0006BE170E0CE010E94080E1F5F28961D303E
:1026F00049F7DF91CF911F910F91FF90EF900895CF
:10270000DC01FB0191859095808598232681378196
:102710002F703327232B41F41C962C911C972F5F8D
:10272000253068F41C962C9393FF03C0178681E034
:10273000818F92FF03C081E08787818F08951C9667
:102740001C92F2CFFC0114860895CF93DF93EB0126
:102750004FE059E161E170E080E290E00E94FE0FFD
:102760008E819F8160E370E00E943032883168F48E
:10277000C1E18C3008F0CEE148E059E169E170E058
:102780008BE590E00E94FE0F04C0CFE1843208F098
:10279000C0E26C2F70E041E084E390E00E94F81208
:1027A000C0FD0AC044E059E16CE170E08DE290E0C8
:1027B000DF91CF910C94FE0FDF91CF910895FC0132
:1027C000DB0119968C911997809518969C91189712
:1027D000892311F18038D9F08485882311F085E1AF
:1027E0008487948591111BC081E0848780E4809365
:1027F000900081E49FE090939900809398000CC032
:10280000109290001AC083E059968C9316C085856B
:10281000811102C080E685879485992371F09F5FBE
:102820009487953069F3993171F3923031F480E5F2
:1028300096E490939900809398008585882319F0F9
:1028400081508587089508950895FC01613009F04D
:102850005CC0A3A9F49650E040E030E0BDE0A517CD
:1028600009F44AC081916B2F0E9424329A3061F0A2
:1028700038F4992359F0993039F03F5F390F08C087
:102880009B3011F09C30C9F7365F02C03F5F4F5F4D
:102890005F5FE5CF9B3011F09C3091F4365F02C052
:1028A0003F5F4F5F5F5FB51739F181916A2F0E94DB
:1028B00024329A3099F370F7992391F3993071F398
:1028C0003F5F390FEFCF9B3011F09C3091F4365FB2
:1028D00002C03F5F4F5F5F5FB51771F081916A2F54
:1028E0000E9424329A3099F370F7992391F399302A
:1028F00071F33F5F390FEFCF2223C9F03C30B8F4BA
:102900004423A9F0365F4150F9CF411106C0B78585
:10291000709650E030E0ADE0C6CF30E0413039F4A1
:10292000B1A1B29650E040E030E0ADE0D5CF832FCA
:102930000895CF93DF93FC01DC01A95BBF4F8C911D
:102940008230F1F0833069F1813041F5A95BBF4FEE
:10295000EF01C75BDF4F8D919C91119728813981E1
:10296000820F931F11969C938E93A154B10980A955
:1029700091A92D913C91820F931F91AB80AB0EC01A
:10298000DF01A257BF4FE55BFF4F8D919C911197DF
:1029900020813181820F931F8D939C93DF91CF9182
:1029A0000895DF01A35BBF4FE2CF6F927F928F92BA
:1029B0009F92AF92BF92CF92DF92EF92FF920F93CE
:1029C0001F93CF93DF93EC016B016F858CE0689FC1
:1029D000602D11248D85882309F44CC089E0665F41
:1029E000680FF9A08F8D882309F446C089E0FF2085
:1029F00009F444C09CE0F99E800D11248A5E5E01BA
:102A0000E2E9AE0EB11CF50190819D7FF11038C056
:102A1000669515E2161B4E01F2E48F0E911CF4012F
:102A20008081882321F03396808181113EC085E228
:102A3000782E911102C090E2792E612C8F85681654
:102A4000A0F5462D50E090E0BC0161507109FE01F7
:102A5000E40FF51F20893D853323D1F0E12C01E0FF
:102A600064177507D1F0029784179507A1F4EE2437
:102A7000E39412C080E0B3CF80E0B9CF80E0BFCF55
:102A8000860F869510E4181B645FF62EF10EC3CFF7
:102A90004617570764F7E12C00E0472D612FC60168
:102AA0000E94B7106394145FC9CF89A18823E1F114
:102AB000F4018081882331F0FE01EB5BFF4F8081C0
:102AC000882391F1F5018081815010E2823008F075
:102AD00015E2B12C89A1B81638F56B2D70E090E0A5
:102AE000AC0141505109FE01E60FF71F22A13F8DB5
:102AF000332361F0E12C01E06417750761F0029760
:102B00006817790731F4EE24E39404C0641775075D
:102B1000D4F7E12C00E0412F6F2DC6010E94B710C1
:102B2000B394FCE0FF0ED6CFDF91CF911F910F91B0
:102B3000FF90EF90DF90CF90BF90AF909F908F90DD
:102B40007F906F900895CF93DF93FC0112AADC0170
:102B5000AE56BF4F8C91AF014B565F4F9F012B5A22
:102B60003F4FEF01CC5ADF4F811130C081E08487A5
:102B700091A1992369F08C9388E0DA018C93F90193
:102B80001082DB0117961C921E92169718821BC0AA
:102B90008685811109C089E0FA018083D9011C92E0
:102BA000FB0117821682F2CF8BE0DA018C93D901F8
:102BB0001C92DB0117961C921E9216971882ED56F6
:102BC000FF4F81E08083DF91CF9108958685882330
:102BD00019F080A18111E8CF81E0868FDCCFFC0164
:102BE0001082118212821382118A108ADC011496DB
:102BF00070961D92AE17BF07E1F708950F931F93CC
:102C0000CF93DF93EC018B0184EF91E099AB88AB1C
:102C10001AAACE010C960E94EF15CE014E960E9484
:102C2000EF151BAAFE01EC5BFF4F10827097CE01DF
:102C3000805C9F4F1192E817F907E1F7D801519690
:102C40001C921E92509753961C921E925297559624
:102C50001C921E92549757961C921E925697DE0114
:102C6000AE5BBF4F80E48C931082FE01EF5BFF4FA1
:102C70001082329683E1808332961082E05BFF4FB0
:102C80001082E054F1091082F80117821682CC5AA2
:102C9000DF4F1882DF91CF911F910F910895FC01B2
:102CA000DC01A457BF4F8D919C9111979695879504
:102CB000653038F014962D913C91232B21F064E07F
:102CC0004BC0643089F4DF01A057BF4F2D913C9178
:102CD000275E3F4F8217130648F020A931A92931FA
:102CE000310524F063E038C0633089F4DF01A05778
:102CF000BF4F2D913C91265F3F4F8217130648F03E
:102D000020A931A92A30310524F062E025C06230C3
:102D100089F4DF01A057BF4F2D913C912B5F3F4FAE
:102D20008217130648F020A931A92530310524F077
:102D300061E012C0662381F0DF01A057BF4F2D91E3
:102D40003C912F5F3F4F8217130630F080A991A965
:102D5000181619060CF460E0862F0895FC01653002
:102D600048F0DC01A457BF4F8D919C91892B21F035
:102D700064E040C0643071F4DF01A457BF4F8D910F
:102D80009C91803B910540F480A991A9499724F03A
:102D900063E030C0633071F4DF01A457BF4F8D9101
:102DA0009C918F3B910540F480A991A90A9724F04A
:102DB00062E020C0623071F4DF01A457BF4F8D91F3
:102DC0009C91843C910540F480A991A9059724F039
:102DD00061E010C0662371F0DF01A457BF4F8D91F1
:102DE0009C91883C910530F480A991A91816190688
:102DF0000CF460E0862F0895FC018381823071F429
:102E000084813DE0632F0E942432292F85810E9416
:102E10002432211105C081E0993038F480E005C0EA
:102E20009111FCCF81E02930C8F30895CF92DF9251
:102E3000EF92FF920F931F93CF93DF93EC0148EC37
:102E40005DE064E070E084E090E00E94FE0F40EFFF
:102E50005CE061E270E08AE090E00E94FE0F4EEEDE
:102E60005BE060E370E090E080E00E94FE0F9DE098
:102E7000C92ED12C10E07E018CE4E80EF11CD701A4
:102E8000EC91E10FE370F0E0EE0FFF1FE057FE4F13
:102E90004081518100E021E066E170E0C6010E94BE
:102EA000080E1F5FB8E0CB0ED11C1D3041F77E012C
:102EB00080E4E80EF11C6F85762F770F770B9D85E8
:102EC00041E0892F990F990B0E94F8122496EC1675
:102ED000FD0689F7DF91CF911F910F91FF90EF9041
:102EE000DF90CF9008958F929F92AF92BF92EF9212
:102EF000FF920F931F93CF93DF93EB0129852095CA
:102F0000388523234EEA5BE0DC017C0130E4E30EEC
:102F1000F11C80908C0190908D01A0908E01B0905A
:102F20008F01FA01059114911C966D917C911D976A
:102F3000060F171F1D961C930E931C97FA013296CD
:102F4000659174911E96ED91FC911F976E0F7F1FF6
:102F50001F967C936E931E9717FD02C077FF06C0E5
:102F60001C968D929D92AD92BC921F974C5F5F4FC5
:102F70001496AE15BF05A9F623FF02C023E0298FE2
:102F80002E813F812F703327232B41F4FC01E45B1A
:102F9000FF4F80818F5F853060F48083DF91CF9118
:102FA0001F910F91FF90EF90BF90AF909F908F90E7
:102FB00008951082F3CFFC013C96845B9F4F4091B3
:102FC0008C0150918D0160918E0170918F01419320
:102FD000519361937193E817F907C9F70895CF9258
:102FE000DF92EF92FF920F931F93CF93DF93EC0149
:102FF00046EF5AE069E070E083E190E00E94FE0F46
:1030000042E65AE064E270E08CE190E00E94FE0F3C
:1030100000E021E045ED59E065E370E090E080E0FC
:103020000E94080E9DE0C92ED12C10E07E018CE498
:10303000E80EF11CD701EC91E10FE370F0E0EE0F28
:10304000FF1FEC57FE4F4081518100E021E06AE113
:1030500070E0C6010E94080E1F5FB8E0CB0ED11CC5
:103060001D3041F77E0180E4E80EF11C6E857F85FE
:1030700041E08C859D850E94F8122496EC16FD0691
:10308000A9F7DF91CF911F910F91FF90EF90DF9003
:10309000CF900895CF92EF920F93CF93DF93EC01EF
:1030A0006A3071F48D818C838E819985890F8E832E
:1030B00081E090E0DF91CF910F91EF90CF90089554
:1030C000AC816E3719F4AE5FAC83F2CF962F6E8170
:1030D0006F5F9A33B8F4903308F05FC09B3209F405
:1030E0005EC048F4913209F45EC098859D5F8C8182
:1030F000890F8C83DDCF9D3209F453C09E32A9F72E
:103100009FE311C09B3550F4913408F044C09A33CA
:1031100009F43FC09F3349F792E405C08FE9890F56
:1031200097548A3110F7062E000C770B0A2E000CEC
:10313000BB0BE7E0F9E028E039E08F818130A9F5A9
:103140000491F901E49049E059E09923D1F041E07C
:1031500050E08E2D877011F450E040E02E2D269522
:1031600026952695240F352F311D029FF001039FD0
:10317000F00D11249E9FA0019F9F500D1124475FC9
:10318000564F9AEFC92E30E020E0CD010E94881101
:10319000ACCF93E4C8CF9154C6CF9C5FC4CF91E429
:1031A000C2CF90E4C0CF9EE3BECF0491F901E4907A
:1031B00049E059E09923D1F041E050E08E2D87702D
:1031C00011F450E040E02E2D269526952695240FEB
:1031D000352F311D029FF001039FF00D11249E9F9A
:1031E000A0019F9F500D1124475F564F8BEFC82EB3
:1031F000CACFEF92FF920F931F93CF93DF938C016F
:103200007B01D0E0C0E0F701EC0FFD1F6491662365
:1032100039F0C8010E944A18892B11F02196F3CF8A
:10322000CE01DF91CF911F910F91FF90EF90089504
:10323000089590E080E00895089508950895089510
:103240000895089508958F929F92AF92BF92EF9242
:10325000FF920F931F93CF93DF93CDB7DEB7A19764
:103260000FB6F894DEBF0FBECDBF7C01FA01CB01D3
:1032700019A2223008F42AE08E010F5D1F4F822E22
:10328000912CB12CA12CBF01A50194010E94F33116
:10329000F901CA016A304CF5605DD8016E938D0169
:1032A000232B242B252B79F790E080E0109761F0F9
:1032B000FD0101900020E9F73197AF014A1B5B0B3C
:1032C000BD01C7010E945B11A1960FB6F894DEBF45
:1032D0000FBECDBFDF91CF911F910F91FF90EF9067
:1032E000BF90AF909F908F900895695CD6CFCF929A
:1032F000DF92EF92FF920F931F93CF93DF93EC0136
:10330000062F142F84E3C82ED12CE12CF12C0E941F
:103310005331A70196010E94C131862FFE01E60FAD
:10332000F11DEA5AFF4F90819111F1CF91E0908306
:103330000130C1F49BA9FE01E90FF11D64AB9F5F51
:103340009BABDF91CF911F910F91FF90EF90DF909A
:10335000CF9008959F85FE01E90FF11D608B9F5F5F
:103360009F87EFCF1123B1F3113059F799A1FE01D7
:10337000E90FF11D62A39F5F99A3E3CF3F924F92A4
:103380005F926F927F928F929F92AF92BF92CF92F5
:10339000DF92EF92FF920F931F93CF93DF93EC0195
:1033A0007B01FB0131843094808538228E016E01CF
:1033B000F0E4CF0ED11C80E4882E912CA12CB12CEE
:1033C00090E8492E512C612C712CF8018685978547
:1033D00001969787868780349105B4F00E94533117
:1033E000A50194010E94C1316054710981099109BC
:1033F000F801778766870E945331A30192010E94EA
:10340000C131F801758764870C5F1F4F0C151D05CE
:10341000E1F633FE03C083E0F701818FF701868177
:1034200097818F709927892B39F4C45BDF4F88818E
:103430008F5F853098F48883DF91CF911F910F9132
:10344000FF90EF90DF90CF90BF90AF909F908F90C4
:103450007F906F905F904F903F9008951882ECCFCF
:103460008F929F92AF92BF92CF92DF92EF92FF9294
:103470000F931F93CF93DF93FC01E45BFF4F108208
:10348000EC018C01005C1F4F80E4882E912CA12C54
:10349000B12C90E8C92ED12CE12CF12C0E94533193
:1034A000A50194010E94C1316054710981099109FB
:1034B0007F876E870E945331A70196010E94C13118
:1034C0007D876C872496C017D10741F7DF91CF9194
:1034D0001F910F91FF90EF90DF90CF90BF90AF9032
:1034E0009F908F9008958F929F92AF92BF92CF92AC
:1034F000DF92EF92FF920F931F93CF93DF935C01C4
:10350000D42FFC01C3A98CE0C89FC02D1124C65F35
:10351000C695C95D65011DE096012A193B09F501B3
:1035200083A990E0281739070CF090C0019728175D
:1035300039070CF049C0DD2321F099249394232B03
:1035400009F0912CF60184A84EEFE42EEC0EF12C3C
:1035500003E021E046E15BE16BEF7FEFC7010C97F1
:103560000E94080EF7E0EF1AF108911026C0882D8E
:10357000612F0E942432992EE82FF0E0EE0FFF1FFA
:10358000EA5EFD4F4081518120E06FEF7FEFC70180
:103590000E94080EE92DF0E0EE0FFF1FE450FE4FF1
:1035A0004081518120E067E070E0C7010E94080E71
:1035B000FFEFCF1ADF0ACC50AFCF00E020E04AEB9C
:1035C00058E16FEF7FEFF1CFDD2321F09924939441
:1035D000232B09F0912CF60184A8EC2EF12C03E0AA
:1035E00021E04FE85BE16BEF7FEFC70146970E9458
:1035F000080E911022C0882D612F0E942432992E2E
:10360000E82FF0E0EE0FFF1FEA5EFD4F4081518191
:1036100020E06FEF7FEFC7010E970E94080EE92DA3
:10362000F0E0EE0FFF1FE450FE4F4081518120E09B
:1036300067E070E0C7010A97B9CF00E020E041EDF4
:1036400058E16FEF7FEFC7014297B0CFDF91CF9185
:103650001F910F91FF90EF90DF90CF90BF90AF90B0
:103660009F908F900895CF92DF92EF92FF920F93E9
:103670001F93CF93DF9300D01F92CDB7DEB77C01AD
:10368000FB012AE030E0CB01B9010E94303289838E
:10369000CB01B9010E9430328A83CF0164E670E029
:1036A0000E943032CB01B9010E9430328B838E01EF
:1036B0000C5F1F4FCE0101966C0192E0E90EF11CE8
:1036C000F80142918F0150E070E060E02AE0C7010C
:1036D0000E9423190C151D0599F70F900F900F905C
:1036E000DF91CF911F910F91FF90EF90DF90CF90DE
:1036F00008952F923F924F925F926F927F928F9296
:103700009F92AF92BF92CF92DF92EF92FF920F9370
:103710001F93CF93DF93CDB7DEB729970FB6F894F9
:10372000DEBF0FBECDBF6C015B014C0122E0820EFB
:10373000911CDC0116961C92169717961C921797EF
:1037400086E118968C932B01B3E04B0E511CF601C9
:10375000EB56FF4FE081E150ED3008F035C0F0E06E
:10376000EC54F44E0C944432C11B681C381C761C7B
:103770009B1C681CE41B681CA71CA71CA71CA71C7F
:10378000AC1CF601EE5BFF4F808181111DC06CEA1D
:1037900078E1C4010E94F918EE24E39407E02DE0DB
:1037A00046E150E061E370E0C2010E941613F601A9
:1037B0001186E457FF4F60817181C6010E94331B5F
:1037C00081E0D60119968C93E12C00E420E844E3D3
:1037D00050E070E060E0C2010E94161300E021E0BA
:1037E0004EEF57E163E370E090E080E00E94080E46
:1037F000F6011785112309F4C6C08CE0189F102D1F
:1038000011248585882309F4BAC089E0165F180F52
:10381000D60191968C9191970CE0809F002D1124F8
:103820005F969C91992309F4ACC099E0090F96E149
:10383000900F811101C090E0F601EE5BFF4F2081F7
:103840008111FBC0222321F03396808181119BC01E
:10385000012F069566E2601B90E080E00E949710C1
:1038600085E2801B810F9927991F60E801978EC020
:10387000C6010E94D514F601EC5BFF4F408111E0B8
:103880004127B501C6010E94731AF601EE5BFF4F96
:103890008081811199CF60EA78E1C4010E94F91812
:1038A000EE24E39407E02DE046E150E06BE270E0A7
:1038B000C2010E941613F6011186E057FF4F608186
:1038C0007181C6010E94331BD60119961C937CCFCF
:1038D000C6010E94D514F601EC5BFF4F408181E0E8
:1038E0004827B501C6010E94731A6ECFC6010E9417
:1038F000D514F601EC5BFF4F408181E04827B5010C
:10390000C6010E94731A6DE878E1C4010E94F9189B
:10391000F12C86010B5A1F4FF80180818695869500
:103920008695F81608F050CF6BE878E1C4010E9444
:10393000F918F394F1CFC6010E94D514F601E95BA2
:10394000FF4F808141E0882361F23397C7CFC601E2
:103950000E94D51440E0C5CFC6010E94D514D601FF
:103960001E964C911E97442309F4BBCF91968C91DF
:103970009197882309F4B5CF90964C91B2CF80E00F
:1039800045CF90E053CF60E890E080E00E94971030
:10399000D50116961C911F71F601ED56FF4F8081DF
:1039A000853009F47CC308F084C0823009F46CC10E
:1039B000843009F447C23601F7E46F0E711CD3015D
:1039C0003C90F601E75BFF4F2081318138872F83E0
:1039D0003296308139872180D50119968C911997BB
:1039E000809518969C911897892316962D913C9155
:1039F0002F713327213108F0F1C53997908191114A
:103A0000EDC510E0811189C38CE4D60116968C9324
:103A1000169717968C93179718961C92189787E00D
:103A20001B968C931B9781E019968C936FE973E139
:103A3000C4010E94F91810E048C4065F910F9695E2
:103A400080E4F82EF91A612F6F0DBCE0EB2EE60E24
:103A50002223F1F0F601EB5BFF4F8081882361F0B8
:103A6000635F90E080E00E94971060E8EE2DE00F29
:103A7000FF27FF1FCF018ACF61E4691B90E080E040
:103A80000E9497102F2D210F3327331FC901EDCE30
:103A900061E4691B90E080E00E94971061E0611B87
:103AA0006F196E0DAF2DA10FBB27BB1FCD01019765
:103AB000DACF873009F1883009F07DCF00E020E0CF
:103AC0004EEF5EE064E370E08CE690E00E94080E4A
:103AD00021E045ED5EE064E370E08CE690E00E945A
:103AE000080E113108F467CF20E048EB5EE064E394
:103AF00070E08CE690E0BFC07601B2E9EB0EF11CFD
:103B0000F7018081823029F100E020E048E453E1B0
:103B100064E370E08FEF9FEF0E94080E21E04AE01F
:103B200053E164E370E08FEF9FEF0E94080E20E006
:103B30004BEE52E164E370E08DE190E00E94080EEC
:103B400021E040EB52E164E370E08DE190E00E94FF
:103B5000080E3601FCE86F0E711CD3012D913C91CB
:103B6000F60180A991A98217930774F187858230A5
:103B700051F4C6010C960E94FC16811104C0D701B5
:103B80008C91882371F0F60181A18230E9F4C6019D
:103B90004E960E94FC16811117C0D7018C9181307E
:103BA00099F400E020E04EE852E164E370E089E33C
:103BB00090E00E94080E21E04CE452E164E370E0E2
:103BC00089E390E00E94080EF30120813181D60143
:103BD000D0968D919C91D197821793077CF1F70134
:103BE000808181112BC01F968C911F97823031F5F7
:103BF00091968C919197811121C050968C915097FC
:103C00002DE0622F0E942432392F51968C910E9410
:103C10002432391313C000E020E04BEE52E164E39C
:103C200070E089E590E00E94080E21E042E152E157
:103C300064E370E089E590E00E94080E113108F419
:103C4000BACEF601EC5AFF4F80818130D9F048F0AE
:103C50008230A1F0833009F0AECE89E54CEE51E11F
:103C600003C08FEF44EC51E100E020E064E370E03A
:103C7000082E000C990B0E94080E9DCE89E34AE99C
:103C800051E1F2CF8DE1EACF7601FCE8EF0EF11CB5
:103C9000D7018D919C91883C9105F0F4F60180A9A3
:103CA00091A918161906C4F4EE56FF4F8081823090
:103CB00099F000E020E043E851E164E370E08FEF29
:103CC0009FEF0E94080E21E040E651E164E370E0BE
:103CD0008FEF9FEF0E94080ED7018D919C91843C3D
:103CE0009105E8F4F60180A991A90597C4F0EE5674
:103CF000FF4F8081823099F000E020E043E851E1FD
:103D000064E370E081E190E00E94080E21E04CE362
:103D100051E164E370E081E190E00E94080ED70178
:103D20008D919C918F3B9105E8F4F60180A991A9B2
:103D30000A97C4F0EE56FF4F8081823099F000E080
:103D400020E043E851E164E370E083E290E00E9408
:103D5000080E21E048E151E164E370E083E290E085
:103D60000E94080ED7018D919C91803B9105E8F44B
:103D7000F60180A991A94997C4F0EE56FF4F8081C2
:103D8000823099F000E020E043E851E164E370E024
:103D900085E390E00E94080E21E042EF50E164E3E9
:103DA00070E085E390E00E94080ED7018D919C9110
:103DB000892BC9F0F601EE56FF4F8081823099F0D1
:103DC00000E020E046ED50E164E370E08BE490E039
:103DD0000E94080E21E044EA50E164E370E08BE4C5
:103DE00090E00E94080EF70180819181892BC9F033
:103DF000F601EE56FF4F8081823099F000E020E01E
:103E00004BEE52E164E370E083E690E00E94080E1E
:103E100021E049E650E164E370E083E690E00E942F
:103E2000080E113108F4C7CDF601EC5AFF4FE081BE
:103E3000E43009F430C108F427C1E53009F0BBCD06
:103E400083E60CCF7601F0E9EF0EF11CD7012D913E
:103E50003C912F5F3F4F3601BCE86B0E711CF301A4
:103E6000808191819695879582179307F0F0D6010E
:103E7000D0968D919C9118161906BCF436968081C7
:103E8000823099F000E020E043E851E164E370E023
:103E90008FEF9FEF0E94080E21E040E651E164E3BE
:103EA00070E08FEF9FEF0E94080EF70120813181B3
:103EB0002B5F3F4FD3018D919C91969587958217EB
:103EC0009307E8F0F60180A991A90597C4F0EE5692
:103ED000FF4F8081823099F000E020E043E851E11B
:103EE00064E370E081E190E00E94080E21E04CE381
:103EF00051E164E370E081E190E00E94080ED70197
:103F00002D913C91265F3F4FF301808191819695E1
:103F1000879582179307F8F0D601D0968D919C91E2
:103F20000A97CCF0F601EE56FF4F8081823099F06F
:103F300000E020E043E851E164E370E083E290E0D8
:103F40000E94080E21E048E151E164E370E083E261
:103F500090E00E94080EF70120813181275E3F4FDB
:103F6000D3018D919C919695879582179307E8F0E0
:103F7000F60180A991A94997C4F0EE56FF4F8081C0
:103F8000823099F000E020E043E851E164E370E022
:103F900085E390E00E94080E21E042EF50E164E3E7
:103FA00070E085E390E00E94080ED7018D919C910E
:103FB000892BC9F0F601EE56FF4F8081823099F0CF
:103FC00000E020E046ED50E164E370E08BE490E037
:103FD0000E94080E21E044EA50E164E370E08BE4C3
:103FE00090E00E94080EF70180819181892BC9F031
:103FF000F601EE56FF4F8081823099F000E020E01C
:104000004BEE52E164E370E083E690E00E94080E1C
:1040100021E049E650E164E370E083E690E00E942D
:10402000080ED7018D919C91892BC9F4F601EE56AB
:10403000FF4F8081823099F000E020E046ED50E1B2
:1040400064E370E087E690E00E94080E21E04AEF0A
:104050005FE064E370E087E690E00E94080E1131B3
:1040600008F4A9CCF601EC5AFF4FE081E43099F056
:1040700058F0E53009F09FCCF70180819181892BC0
:1040800009F0DECE87E608C0F0E0E456FE4F8081FE
:104090004EE450E1E9CD8BE44DE250E1E5CD00E0A6
:1040A00020E042ED5FE064E370E08FE390E00E9487
:1040B000080E21E04FE75FE064E370E08FE390E0FB
:1040C0000E94080E20E046ED50E164E370E087E6D0
:1040D00090E00E94080E21E04DE45FE064E370E0B0
:1040E00087E690E00E94080E113108F464CCF601D6
:1040F000EC5AFF4F8081882339F0813009F05BCC86
:1041000087E64DE250E103C08FE34AE15FE000E063
:1041100020E064E370E090E0AECDF601E05BFF4F9D
:104120008081882309F4A8C0C6010E949914F30174
:1041300010821382128215821482178216821086D0
:1041400011867601B2E4EB0EF11CF7018081882321
:1041500009F4E0C1D50119961C911997109518968C
:104160008C91189718231F968C9144E0542E81301F
:1041700009F0512C4601B5E48B0E911CF4018081AD
:10418000882309F48CC180E0682E712C00E020E0C7
:1041900046EB57E168E070E0C3010E94080ED501CC
:1041A0001F96EC91F0E0EE0FFF1FE253FE4F4081AF
:1041B000518121E068E070E0C3010E94080E852D66
:1041C00090E0F50126812F7109F06BC10396880FED
:1041D000991FFC01E254FE4F40815181D5011F9689
:1041E0008C9160E170E0813011F062E170E000E0FC
:1041F00021E0C3010C960E94080E5601B0E4AB0EFC
:10420000B11CF501808196012D5B3F4F690188301B
:1042100009F499C108F04CC1833009F4A6C1D60154
:104220006C9170E0F4018081882309F4B0C101E051
:1042300020E043EB53E184E390E00E94080ED601B6
:104240006C9170E0645F7F4F21E04BEA53E185E3BE
:1042500090E00E94080ED501EC91F0E0EE0FFF1FF8
:10426000E655FE4F40815181F601608170E000E02B
:1042700021E08CE390E046C18CE4D60116968C9345
:10428000169717968C93179718961C92189787E095
:104290001B968C931B9781E019968C936FE973E1C1
:1042A000C4010E94F918112381F0332069F0EE2433
:1042B000E39407E021E150E040E06FE670E0C201E6
:1042C0000E941613F601118611E0D601D0968C914A
:1042D000D097D1969C9119821A821B821C82FE0172
:1042E0003196FE83ED837E01F5E0EF0EF11CFE01B9
:1042F00031962AE030E0B9010E9430328193CB013F
:10430000EE16FF06C1F7D7014E917D0150E070E037
:1043100060E02AE0C4010E942319ED81FE81EE15C0
:10432000FF0589F781E0D60119968C9331101BC0E7
:1043300062E973E1C4010E94F918F601E457FF4FE6
:1043400060817181C6010E94331B65E873E1C4017D
:104350000E94F918F601E657FF4F60817181C6018E
:104360000E94331BEECE8CE4F6018683878388E0BF
:104370008087F2E03F1609F44AC023E0321609F4C0
:1043800062C031E033121AC069E773E1C4010E94D0
:10439000F918112371F0EE24E39407E02DE048E0D2
:1043A00050E063E770E0C2010E941613D60119962F
:1043B0001C926F817885C6010E94331B81E0F60153
:1043C00081871682178286E18087EE5BFF4F8081AE
:1043D00081110FC03D96E081EE2359F0E150FF0BB3
:1043E000EE0FFF1FE056FE4F60817181C4010E94F5
:1043F000F918F601E05BFF4F808181508083319690
:104400009081891336C0C6010E9499149ACE6DE638
:1044100073E1C4010E94F918112369F0EE24E394BA
:1044200007E02DE048E050E063E770E0C2010E9441
:104430001613F60111866985722D77FFBCCF719531
:1044400061957109B8CF112371F0EE24E39407E070
:1044500021E148E050E06FE670E0C2010E941613CF
:10446000D60119961C9268E673E1C4010E94F918FE
:10447000A5CF811166CED3011C9213961C921E9279
:10448000129715961C921E92149717961C921E92C4
:10449000169718961C92189719961C9252CE8FE474
:1044A00073CEF601EF5BFF4F2081820F911D8FCEFF
:1044B0008930A9F08A3009F0B2CED9016C9170E050
:1044C00000E020E04EEB55E190E080E00E94080E15
:1044D000F601608170E021E043EA54E111C0D901A6
:1044E0006C9170E000E020E04EE657E190E080E063
:1044F0000E94080EF601608170E021E047EE56E16F
:1045000090E080E00E94080E111165C0D7018C91E7
:1045100081508C9329960FB6F894DEBF0FBECDBFA5
:10452000DF91CF911F910F91FF90EF90DF90CF908F
:10453000BF90AF909F908F907F906F905F904F90C3
:104540003F902F900895D9016C9170E000E020E039
:104550004EE657E190E080E00E94080EF60160818F
:1045600070E021E044E156E1CBCFD9016C9170E0DD
:1045700000E020E04EE657E190E080E00E94080E67
:10458000F601608170E021E040EF53E1B9CF00E037
:1045900020E043EB53E18AE090E00E94080ED60150
:1045A0006C9170E0645F7F4F21E04BEA53E187E458
:1045B00090E00E94080ED501EC91F0E0EE0FFF1F95
:1045C000E655FE4F40815181F601608170E021E0A7
:1045D0008AE090E097CFF70110829CCF11E0811123
:1045E0009CCD8CE4F60186838783108687E08387E1
:1045F00081E081876FE973E1C4010E94F91855CE0B
:104600002F923F924F925F926F927F928F929F92E2
:10461000AF92BF92CF92DF92EF92FF920F931F93D0
:10462000CF93DF93CDB7DEB72B970FB6F894DEBFED
:104630000FBECDBF8C01D62E7A0121E0462F60E05F
:104640000E942514898321E040E061E0C8010E94B6
:1046500025142D2D2170C22E480135E5830E911CA5
:10466000F40190819F5F9B8398012E5B3F4F59011E
:104670007597FD83EC8321503109390133962F0161
:104680002C5F3F4F19013496FB87EA872D5F3F4F20
:104690003F832E833981831718F0863108F464C074
:1046A000C801875B9F4F9A838983F801E35BFF4FC3
:1046B000F987E887CD97DD2011F0C8014E960E945A
:1046C000FC16882309F472C020E4F501208384E0FD
:1046D000EC81FD81808381E0F301808396E0F2012B
:1046E0009083F101C082EA85FB85158214821086D1
:1046F0008083EE81FF81D082C701880F991F8E0DC4
:104700009F1D96958795E981FA819183808335E095
:104710003E9DC0013F9D900D112496958795E8859B
:10472000F98591838083EA85FB85218780E28287F2
:104730002B81F40120832B960FB6F894DEBF0FBEB9
:10474000CDBFDF91CF911F910F91FF90EF90DF9040
:10475000CF90BF90AF909F908F907F906F905F9021
:104760004F903F902F900895F981F81345C080E451
:10477000F501808396E0EC81FD81908392E0F30166
:10478000908393E1F2019083F101C082EA85FB8579
:104790001382128215821482108693E09083EE8138
:1047A000FF81D082F801E35BFF4F20C080E4F50178
:1047B000808395E0EC81FD81908391E0F30190830B
:1047C00026E0F2012083F101C082EA85FB85158293
:1047D000148210869083EE81FF81D082E981FA8174
:1047E000F182E082EE0CFF1CE885F985F182E0821F
:1047F000EA85FB8581879ACF80E4F501808392E08A
:10480000EC81FD819083F301108223E1F20120838A
:10481000F101C082EA85FB8513821282178216821B
:1048200010869083EE81FF81D082F801E55BFF4F17
:10483000F194E194F108DACF2F923F924F925F9278
:104840006F927F928F929F92AF92BF92CF92DF92A0
:10485000EF92FF920F931F93CF93DF9300D000D07E
:1048600000D0CDB7DEB7DB011996BC901997B09494
:1048700018962C91B2224C01B2E98B0E911CF401D6
:1048800070807C01711022C0FCE0EF0EF11C6C0105
:1048900035E9C30ED11CD601EC91EE3008F00AC107
:1048A0008B019C838B83F0E0E85AFB4D0C944432DF
:1048B0006A24CD241B268626D727D727CB2A352B3B
:1048C000E429972BE32BAE2CBA2CF72C2EE1E20E29
:1048D000F11CDDCFEB81FC8113AAEC5BFF4F108252
:1048E0004B815C814C5C5F4F8B819C81805C9F4FD6
:1048F000DA011D92A817B907E1F78B819C818C56CC
:104900009F4FFC01108222E08B819C818D569F4F2E
:10491000FC012083F4011082FA011192AF01AE175D
:10492000BF07D1F78B819C810C960E94EF158B817C
:104930009C814E960E94EF15EB81FC81E057FF4F62
:1049400011821082EB81FC81E457FF4F11821082AB
:10495000AB81BC81A657BF4F11961C921E92EB8172
:10496000FC81E257FF4F11821082EB81FC81EA5AF1
:10497000FF4F1192EA17FB07E1F781E0D6018C9314
:10498000EB81FC81EB5AFF4F1082F80117821682EF
:10499000EB81FC81EC5AFF4F1082B5FE0DC08B807D
:1049A0009C80F4E58F0E911CD4016C918B819C81CD
:1049B0000E94AE16F4018083B6FE5CC0EB81FC81E0
:1049C000EC5AFF4F8081811113C0AB81BC81A45789
:1049D000BF4F2D913C91243C310560F4AB81BC81EB
:1049E000D0962D913C912530310524F081E041C0D5
:1049F000823098F4AB81BC81A457BF4F2D913C917C
:104A00002F3B310560F4AB81BC81D0962D913C9158
:104A10002A30310524F082E02CC0823099F4AB8139
:104A2000BC81A457BF4F2D913C91203B310560F4D0
:104A3000AB81BC81D0962D913C912931310524F078
:104A400083E017C0833051F4AB81BC81A457BF4FC2
:104A50002D913C91232B21F084E00BC0843049F44C
:104A6000AB81BC81A457BF4F2D913C91232B09F002
:104A700085E08083B3FE1EC0AB80BC80B4E5AB0E86
:104A8000B11CD501EC91E43009F453C060F1E5307C
:104A900009F463C0F5011081143008F476C0EB818D
:104AA000FC81E457FF4F80819181892B09F480C0FC
:104AB000D5011C9326960FB6F894DEBF0FBECDBF6E
:104AC000DF91CF911F910F91FF90EF90DF90CF90EA
:104AD000BF90AF909F908F907F906F905F904F901E
:104AE0003F902F900895F0E0E856FE4F8081EB81D3
:104AF000FC81E457FF4F20813181820F932F911D5C
:104B000091838083EB81FC81E657FF4F9183808303
:104B1000F701918B808BEC91F0E0E856FE4F2081FD
:104B2000EB81FC8180A991A9821B910991AB80AB9B
:104B3000B1CF82E0D6018C93EB81FC81EB5AFF4F21
:104B40001082F80117821682D5011C9281E0EB8158
:104B5000FC81ED56FF4F80839DCFEB81FC8180A9C6
:104B600091A9E457FF4F20813181820F931FAB81C0
:104B7000BC81D1969C938E93D09711821082FD01B7
:104B8000E657FF4F1182108285CF1330D9F4EB81A5
:104B9000FC81E457FF4F80819181803B910540F477
:104BA000AB81BC81D0968D919C9149970CF080CFC0
:104BB000612F8B819C810E94AE16181709F4F5C1F4
:104BC000182F76CF123081F4EB81FC81E457FF4F30
:104BD000808191818F3B910558F7EB81FC8180A901
:104BE00091A90A972CF364CF113089F4EB81FC81F1
:104BF000E457FF4F80819181843C9105C8F6AB81D9
:104C0000BC81D0968D919C91059794F251CF111152
:104C1000CFCFEB81FC81E457FF4F80819181883CAD
:104C2000910530F6EB81FC8180A991A9181619062F
:104C30000CF43ECFBDCFFB01868197816FE070E021
:104C40000E943032892B09F035CFEB80FC80F5E5EE
:104C5000EF0EF11CD7018C91813029F038F08230B1
:104C600029F0833049F440E060E002C040E061E0B8
:104C70008B819C810E947719F70180818F5F8083EF
:104C8000843009F017CFAB81BC81D5968C91D59734
:104C90006DE00E942432911126C0D0968D919C9196
:104CA000D19718161906FCF4FD01EE5BFF4F80E466
:104CB0008083329789E08083319682E080833296C8
:104CC00083E180833296108283E0F6018083D701EE
:104CD0001C92F801178216822B813C812C5A3F4F7F
:104CE000D9011C92E7CE88E0F6018083EB81FC813C
:104CF000EB5AFF4F1082D80117961C921E921697FE
:104D0000EB81FC81EC5AFF4F1082D4CEEB80FC800B
:104D1000F3E9EF0EF11C84E0D7018C93B5FE0DC0D2
:104D20008B809C80B4E58B0E911CF40160818B819B
:104D30009C810E944F16D4018C93B6FE5AC0EB8121
:104D4000FC81EC5AFF4F8081AB81BC81A457BF4FDF
:104D50002D913C9136952795811113C0AB81BC8173
:104D6000A057BF4F8D919C9105962817190658F0B2
:104D7000AB81BC81D0968D919C91059724F081E008
:104D800037C0823098F4AB81BC81A057BF4F8D9162
:104D90009C910A962817190658F0AB81BC81D096D1
:104DA0008D919C910A9724F082E022C0823099F480
:104DB000AB81BC81A057BF4F8D919C91499628171C
:104DC000190660F0AB81BC81D0968D919C9149977A
:104DD0002CF083E00DC0833009F049C0AB81BC8169
:104DE000A057BF4F8D919C91892B09F443C084E05B
:104DF0008083B3FE5FCEAB80BC80B4E5AB0EB11C4C
:104E0000F5018081AB81BC81A457BF4F843009F488
:104E100061C090F1853009F452C0F50110818D9187
:104E20009C9196958795143008F479C0EB81FC81AC
:104E3000E057FF4F20813181232B09F039CE11300B
:104E400009F09DC0EB81FC81E057FF4F208131814B
:104E50002B5F3F4F8217130608F476C0AB81BC81ED
:104E6000D0968D919C9105970CF46EC021CE843024
:104E700009F0BECF85E0BCCFE82FF0E0E856FE4F4A
:104E8000808190E0EB81FC81E057FF4F20813181F0
:104E9000280F391F31832083EB81FC81E657FF4FB8
:104EA00020813181280F391F31832083EB81FC81E0
:104EB00020A931A9281B390B31AB20ABAECF4B81D8
:104EC0005C8140575F4FFA01208131812115310506
:104ED00089F484E0F6018083EB81FC81EB5AFF4F7B
:104EE0001082F80117821682F501108281E0F70125
:104EF000808393CFEB81FC8180A991A9820F931FBE
:104F000091AB80ABFA01118210828D919C91119727
:104F1000EB81FC81E657FF4F918380837ECF133076
:104F2000C9F4EB81FC81E057FF4F20813181275E7E
:104F30003F4F8217130640F0AB81BC81D0968D9114
:104F40009C9149970CF0B4CD612F8B819C810E947C
:104F50004F1633CE123009F072CFEB81FC81E0574F
:104F6000FF4F20813181265F3F4F8217130660F388
:104F7000EB81FC8180A991A90A9734F399CD111195
:104F8000E3CFEB81FC81E057FF4F208131812F5F20
:104F90003F4F82171306C0F2EB81FC8180A991A9D3
:104FA000181619060CF484CDCFCF14E081CDEB8018
:104FB000FC80B5E5EB0EF11CF7018081803208F032
:104FC000B8C1882331F08F3159F0F70180818F5FAC
:104FD000F9C12B813C812C5A3F4FD9011C92F5CF4E
:104FE00065E0262EF601208221E040E061E08B8121
:104FF0009C810E9425142B813C81205C3F4F5901EC
:105000006B817C816D567F4F4B815C8140575F4F38
:105010005A834983AB81BC81AE5BBF4F4D01EB81AD
:10502000FC81EF5BFF4F6F012B813C812D5B3F4F7C
:1050300039014B815C814B5B5F4F2A01853109F05F
:105040001DC133243394EB81FC81EC5BFF4F308234
:10505000DB012C9221E040E060E08B819C810E948A
:1050600025142B813C8124573F4FEB81FC81E95B68
:10507000FF4F4B815C81485B5F4F5E834D83D8015E
:10508000853109F06CC056968D919C915797019689
:1050900057969C938E935697A981BA818D919C9136
:1050A000009749F590E4D4019C9386E0D5018C9358
:1050B00082E0D6018C9383E1D3018C93D2011C92C0
:1050C000D9012D913C91138212821582148283E0C2
:1050D0008083DA011C92AB81BC81A35BBF4F2D930F
:1050E0003C932B813C81215B3F4FD9013C9280E86E
:1050F000818792872FC040E4D4014C9354E0D501BE
:105100005C93D6013C9253E1D3015C93D2011C9293
:10511000880F991FD9012D913C91280F391F1582B5
:1051200014823082AD81BE811C92AB81BC81A75BB1
:10513000BF4F8D939C93AB81BC81A35BBF4F2D93DD
:105140003C932B813C81215B3F4FD9013C9280E80D
:1051500081874287F70180818F5F808336CF5496A5
:105160008D919C915597019655969C938E9354974B
:10517000A981BA818D919C91009721F590E4D40189
:105180009C93D5013C9282E0D6018C9343E1D301FC
:105190004C93D2011C92D9012D913C9131952195CE
:1051A0003109138212821782168210868083AD81A4
:1051B000BE811C924B815C81455B5F4FDA012D9370
:1051C0003C9395CFD9012D913C91880F991FD70120
:1051D0004C914F5F2817390751F590E4D4019C9307
:1051E0008AE0D5018C9382E0D6018C9386E0D301CE
:1051F0008C93D2011C92138212821582148283E056
:105200008083AD81BE811C92AB81BC81A35BBF4F0B
:105210002D933C932B813C81215B3F4F84E0D9014E
:105220008C9380E881879287F7014083CECE60E43B
:10523000D4016C9352E0D5015C93D6015C9371E28A
:10524000D3017C93D2011C921382128217821682A0
:105250005083AD81BE811C92AB81BC81A55BBF4FE9
:10526000821B930B8D939C932B813C81215B3F4F41
:10527000D9015C9380E881876287D6CFA981BA8102
:105280008D919C91009709F445C020E4F40120839E
:1052900038E0D5013C9332E0F601308343E1D3019D
:1052A0004C93F2011082EB81FC81E95BFF4F13828A
:1052B00012821782168230834B815C81485B5F4F7C
:1052C000DA011C924B815C81455B5F4F9195819522
:1052D0009109DA018D939C938B819C81815B9F4F17
:1052E00033E0DC013C9380E88187228780E2F7018C
:1052F0008083EB81FC81E657FF4F2B813C81245753
:105300003F4FD9018D919C919183808388E0DB018F
:105310008C935BCE80E4F401808383E0D5018C9391
:1053200082E0F601808383E1D9018C93FA01108237
:10533000EDCFB5FE08C0EB81FC81EC5AFF4F8081B8
:10534000813009F41082B6FE09C0EB81FC81EC5A71
:10535000FF4F8081811102C081E08083B3FEAACB20
:105360002B813C812D563F4FD9018C91EB81FC81E3
:10537000EC5AFF4F8830D1F08081882339F081309A
:1053800009F098CB83E0F801818F94CB2B813C818D
:105390002A5B3F4FD9011C92D6011C92D7011C9267
:1053A000D80117961C921E921697AECCD6018C93FC
:1053B000D7011C92D80117961C921E921697108244
:1053C00087E0F901808376CB87E0EB81FC81ED56A5
:1053D000FF4F8083B5FE3FC0EB80FC80F4E5EF0E0D
:1053E000F11CD701AC90B3E0AB122BC0EB81FC8178
:1053F000E457FF4F20813181EB81FC8180A991A985
:105400008217930730F18785823041F4CF010C96E3
:105410000E94FC16811102C0772081F0AB81BC8113
:1054200091968C9191978230A1F4CD014E960E9475
:10543000FC1681110EC0B1E07B120BC022E0A22E3F
:1054400008C0E2E0AE1609F442C0F1E0AF1201C0BC
:10545000A12CD701AC92B6FE6DC0EB80FC80B4E508
:10546000EB0EF11CF701A080AA2009F47CC0F1E04A
:10547000FA1580F1EB81FC81E457FF4F20813181E7
:10548000AB81BC81D0968D919C91D1978217930767
:1054900024F11F968C911F97823041F4CD010C9618
:1054A0000E94FC16811102C0772071F0EB81FC8113
:1054B00081A1823091F4CF014E960E94FC16811199
:1054C0000CC0F1E07F1209C082E0A82E31C0AA24EE
:1054D000A394BFCF22E0A2122BC0EB81FC81E45742
:1054E000FF4F20813181AB81BC81D0968D919C9101
:1054F000D19782179307E4F071101AC01F968C9110
:105500001F978230A9F491968C919197811110C0C8
:1055100050968C9150972DE0622F0E942432392FA3
:1055200051968C910E942432391302C093E0A92E27
:10553000F701A082B3FEBECAEB81FC81EC5AFF4F9B
:105540008081813009F4D6C088F0823011F1833037
:1055500009F0B0CA86E0D6018C932B813C812B5A8E
:105560003F4FD9011CCFAA24A394E2CF472D60E07E
:105570008B819C810E94771920E0D4014C9160E0DE
:105580008B819C810E942514863108F493CA8DE09A
:10559000ABCB87E0E0CF31E0EB81FC81ED56FF4FF4
:1055A0003083EB80FC80B5E5EB0EF11CF701208128
:1055B000233008F040C0DB0116968D919C916FE07E
:1055C00070E00E943032892B09F074CA213051F109
:1055D000223079F1EB81FC81878581508787818931
:1055E00082A381A18F5F81A3E457FF4F4081518146
:1055F000AB81BC819F965C934E939E97D0968D9184
:105600009C91D197841B950BD1969C938E93D097A8
:10561000A657BF4F2D913C911197240F351F2D9305
:105620003C93D3CC40E060E08B819C810E94771951
:10563000CCCC41E0F8CF2F5F2083EB81FC81EC5A8A
:10564000FF4F1082AB81BC8150968C9150976DE0DA
:105650000E942432911147CB1D963C931D975F9673
:105660003C9389E0D6018C9399CE81E0EB81FC815B
:10567000ED56FF4F8083F701818380899189AB804C
:10568000BC80FCE8AF0EB11CD5012D913C91820F7E
:10569000931FF701918B808BAB81BC81D0968D914C
:1056A0009C91D197F50120813181821B930BD1967A
:1056B0009C938E93D097D4014C9160E08B819C8118
:1056C0000E947719EB81FC81E657FF4F8081918121
:1056D000D5012D913C91820F931F9183808320E00F
:1056E000F401408160E08B819C810E942514863109
:1056F00008F04DCFB8018B819C8126960FB6F894A7
:10570000DEBF0FBECDBFDF91CF911F910F91FF90F4
:10571000EF90DF90CF90BF90AF909F908F907F9051
:105720006F905F904F903F902F900C94A31581E065
:10573000EB81FC81ED56FF4F808382E0D4018C9396
:1057400021E040E061E08B819C810E94251485313D
:1057500089F1F801868197816FE070E00E94303214
:10576000892B09F0A7C920E040E061E08B819C8192
:105770000E9425148131F0F440E061E08B819C812E
:1057800026960FB6F894DEBF0FBECDBFDF91CF9146
:105790001F910F91FF90EF90DF90CF90BF90AF904F
:1057A0009F908F907F906F905F904F903F902F9041
:1057B0000C9477198AE0D6018C93EB81FC81EB5A2B
:1057C000FF4F108286CAEB80FC80B3E9EB0EF11C20
:1057D00091E0F7019083AB81BC8191968C91919778
:1057E000882309F49DC01E968C911E97811119C0C3
:1057F00090968C919097811114C0FD01EB5AFF4F48
:105800008081813209F440C0833309F444C080317F
:1058100041F45C964D915C915D9760E0CD010E94F2
:105820000023EB81FC81868581110BC080A1882338
:1058300041F0EB5AFF4F80818031E1F1813209F470
:1058400044C0EB81FC818685882361F080A18111B1
:1058500009C0EB5AFF4F8081803109F446C0813284
:1058600009F44EC0EB81FC81E05BFF4F8081811128
:1058700021C92B813C812B5A3F4F3A832983D9017F
:105880009C919F5F9C9316C9EB81FC8146A557A50F
:1058900061E0CF01C4CF8BE0D6018C931082FB0175
:1058A00017821682EB81FC81EC5AFF4F1082D701E0
:1058B0009C93B7CFAB81BC815C964D915C915D9719
:1058C00060E0CD010E940023BCCF8BE0D6018C9319
:1058D0001082F80117821682EB81FC81EC5AFF4F8F
:1058E000108281E0D7018C93ACCFAB81BC819E96B6
:1058F0004D915C919F9761E0CD010E940023B2CF52
:105900008BE0D6018C931082F80117821682EB810E
:10591000FC81EC5AFF4F108281E0D7018C93A2CF1B
:10592000EB81FC81EB5AFF4F8081803181F0813225
:1059300009F098CF8BE0D6018C931082FB0117827F
:105940001682EB81FC81EC5AFF4F10828BCFEB81EA
:10595000FC81448D558D60E0CF01CFCFEB81FC8180
:1059600080A991A9883EF3E09F0758F184E0DB010C
:1059700059968C9385E0EB81FC81ED56FF4F808337
:10598000B5FE08C0EB81FC81EC5AFF4F808181306D
:1059900009F41082B6FE09C0EB81FC81EC5AFF4F7E
:1059A0008081811102C081E08083B3FE83C8EB81D6
:1059B000FC81EC5AFF4F80818111E1CCD6011C9211
:1059C000CCCD892B21F485E0FB01818FD3CF8CE0F6
:1059D0008C93EB81FC81EB5AFF4F1082FB01178205
:1059E0001682EB81FC81EC5AFF4F1082C3CF81E01D
:1059F000EB81FC81ED56FF4F8083F7018283CB80E2
:105A0000DC80F5E5CF0ED11CD6018C91882379F08E
:105A10008B3009F451C0EB81FC81E05BFF4F80814A
:105A2000811148C8D6018C918F5F8C9343C8F401D3
:105A3000808190E4EB81FC81EE5BFF4F908397E0E7
:105A4000EB81FC81E05CFF4F908392E0EB81FC8175
:105A5000EF5BFF4F908396E0EB81FC81ED5BFF4FA6
:105A60009083EB81FC81EB5BFF4F91E0813009F08B
:105A700090E09083D70150962D913C91EB81FC8171
:105A8000E95BFF4F1382128217821682108692E022
:105A90009083AB81BC81A85BBF4F8C93AB81BC81F1
:105AA000A55BBF4F2D933C9380E8818780E482877C
:105AB00081E0F6018083AFCF1C928B819C810E9494
:105AC000A315A9CF0C94E6320C94E6320C94E6327E
:105AD0000C94E6320C94E6320C94E6320C94E632E6
