:100000000C94C60D0C94EE0D0C94EE0D0C94EE0DAC
:100010000C94EE0D0C94EE0D0C94EE0D0C94EE0D74
:100020000C94EE0D0C94EE0D0C94EE0D0C94EE0D64
:100030000C94EE0D0C94EE0D0C94EE0D0C94EE0D54
:100040000C94EE0D0C94EE0D0C94EE0D0C94EE0D44
:100050000C94EE0D0C94EE0D0C94EE0D0C942823E4
:100060000C94EE0D0C94EE0D0C94EE0D0C94EE0D24
:100070000C94EE0D0C94EE0D0C94EE0D0C94EE0D14
:100080000C94BD220C94EE0D0C94EE0D0C94EE0D20
:100090000C94EE0D0C94EE0D0C94EE0D0C94EE0DF4
:1000A0000C94EE0D0C94EE0D0C94EE0D340E940E9B
:1000B000CD0F0910671167113614AA1457130615CE
:1000C00054151116381670165717E4177D17AF1709
:1000D000D717E4170718E417FF17FF17FF17FF17C5
:1000E000EE17210F27000E9C3973E6CC993367CEAB
:1000F0009C3973E6CC9907003CE40167CE9C3973C8
:10010000E6CC993367CE9C3973E6C82B1F0F2700C6
:100110000E9C3973E6CC993367CE9C3973E6CC03D9
:10012000001EF2803367CE9C3973E6CC993367CEDC
:100130009C39F20A507573687E6F6E7E74776F7E9D
:10014000426C61636B6A61636B732100496E737506
:1001500072656420426C61636B6A61636B21004469
:1001600065616C65727E6861737E6E6F7468696EBE
:100170006721004465616C65727E6861737E426CC4
:1001800061636B6A61636B210054776F7E626C619F
:10019000636B6A61636B7321003D979BDB9CA71EB9
:1001A0002DB136D3D55A6439C45A621D5916539BA2
:1001B000E94C6DA45E9D2C1BACEDF240EDAAA5D4DC
:1001C0008EE181DA558B40AD383CF634E78DFBEF9C
:1001D00040F6DE3C180B1D583541EA4AE74016D67A
:1001E000F9A45B190B92822062D58474E010C14C93
:1001F00005393048F7900DEAC10FBF5AF3942B3FF1
:10020000898E354016C298C2BD739445C7EC1D5DFA
:100210005859A09D3EBEFC24AE39CD75053D979B37
:10022000DB9CA71EBD1AD298213138622D313B8646
:100230008B57A7C35463D6F0428C36AE404CB621E0
:100240008D1912036AAC2566C7A01253AC578F3DB7
:10025000CD79E3FE0B98B85C52648E13468C1991ED
:1002600011D14496191604A4824A8293CB123331D9
:10027000E29A4C5C2E111001C588C10C13B190217B
:1002800051363FE0D59AA75C7943BA879C7C3B37CF
:100290008B3DCF6E5436AC8347D23D4E38766FA43B
:1002A0007BC806F5E051918D815D7CC435A7B9AE60
:1002B0003DD7E71E0EE396AB57AF5EBD7AF5EAD5A4
:1002C000AB57AF5EBD7AF5EAD5AB57AF5EBD7AF5F9
:1002D000EA35B77138F4D9D7D0811D073061D164C0
:1002E000C464A09131B27131B77BB2E439271D8E5D
:1002F000125B171D632A67C6760F0E0CBCC6A0E200
:1003000055BE76F7721847FF357A1C878B1B3DD791
:10031000E71E0EE396AB57AF5EBD7AF5428C36060C
:10032000334C4A1CA3C6418CA60E43CC8E57B363F4
:10033000B878F5EAD5AB57AFB98DC3A1CF7E04E647
:10034000927B2E91B7BD48C41431E21A942D3A42E3
:10035000149334320C8046E2C09C5CE342B9604E98
:100360005EC1537EC7DDCB611C7DC9DE274F7B7329
:10037000D66E102EB0B6E790BD1EB0F7C6C036BE22
:10038000675B77103604CFECBD79E9711C2E6E3DAA
:10039000979BDB9CA71E3D50BB6A897564594C6DC9
:1003A000A416C03A9C4E960DD67679B598DA48BD1B
:1003B0005A4C6DA416C03A94DA554BA91DC3ABC76D
:1003C0009EE6BC71FF0DA4BB616B163558F7400C5F
:1003D000588DC3AD820B0605C15A951B826E13164C
:1003E00082B128B8133120A23109E91E72989B9F6F
:1003F000F26ACD53AEFCA83DD54BE9CE533AD62890
:1004000067D66511705F4EE8C2CA02EDF49770CDF1
:1004100069AE2B3D979BDB9CA71E3D50BB6A89753F
:1004200064594C6DA416C03A9C4E960DD67679B59B
:1004300098DA48BD5A4C6DA416C03A94DA554BA9C7
:100440001DC3ABC79EE6BC71FF0DA4031BAC9A9302
:10045000C1BA6560601BD3AD76C10584C4AAC8016A
:1004600093BD591C2C895B440C086A2C258D19A25C
:10047000636E7ECAAB354FB9F2093AD6801B8C3514
:10048000CAD5B56163608D784217561668A75F209C
:100490002C25AE445830F0CCBA2CBEC535A7B9AE29
:1004A0003DD7E71E0EE396AB57AF5EBD7AF5EAD5B2
:1004B000AB57AF5EBD7AF5EAD5AB57AF5EBD7AF507
:1004C000EA35B77138F4D9159DA30383ED1A75E8A1
:1004D00095B1DD2242488C0803AF32BC794B464CC3
:1004E00006328078CA181865246624656C7792DA1B
:1004F0005549BC1E18781551021A115FDCBD1CC687
:10050000D17F8D1EC7E1E2061797DE7265E6642C87
:1005100031D6C17633AC31D478CAE49AB59FE509B7
:10052000D1A8C509026C161B409852351A9EE43EAC
:10053000A79DD1CB2A9D8321B445DA226DC1C198F4
:10054000A5EBA29975021797DE32292021600501DB
:100550001434AAF1E0D5821222082E0134C4D88EB8
:10056000FD2C4958B37108CED0CD62974CC1613A89
:100570008749729FD3CEE86595CEC110DA226D917E
:10058000B6E060CCD275D1CC3A011797DE32292083
:10059000216005011434AAF1E0C1A8464101042BF1
:1005A00084205066D67E161BD66C1C823374B3D85A
:1005B00025537098CE616AEE73DA19BDACD2391842
:1005C000425BA42DD2161C8C59BA2E9A5927179724
:1005D000DEA2510165800A0280002AA28BE964290B
:1005E000A2020800820A0305D468D67E161BC71A29
:1005F0007120CEBD59EC3D4586196B989AFB9C76CF
:10060000462FAB740E86D016698BB405076396AE81
:100610008B66D6099797BF9FB3D73CDACF958DCA23
:10062000466523D3C34D64A3B251D9C8BB3D241A38
:100630009404190E643810080504A0C0020A142896
:100640000164389001866050D7099797CFBC7AF53E
:100650006770F69A47FB035D14B2826105A6879B1B
:100660009045242B1856E0DD1E920891D4E5126ABD
:1006700010805040000A2CA040813290E1400618C2
:1006800082415D2797972F3921473FCF6401CB12D5
:10069000461EED0F7411C90A919583879B908521A1
:1006A0002B18561FEE21D1A024C87020C3818814B6
:1006B0001080020B2850A088C87020030CC1A0AE87
:1006C0001397D77F06AE1E73DFEFB804C30A9245B7
:1006D00024E13ABB120C2B4816913CDDB83428219A
:1006E0001DC87020C300020B80020516B0008138BF
:1006F00090E1402291A8646C2FAFDFF5449D6CC35C
:100700000DB92137E486DC901B72436EC80DB92108
:1007100037E4E26079407FFDDE897F56EEFB774E5D
:10072000B8920128D3C5DF8F05E01AD3397F1F3077
:10073000172CE6CCFCFBAD830BBA38E4572807181E
:1007400030E080B9143B54D358B162196A81A8CA09
:1007500058838250C61AA81AA0EA60801586A92676
:10076000B8E70185091394935FF1DA5B6FBDE50883
:100770001C81A370036F7DDBB7BD09678EC031B7E5
:10078000DE7AEBCDAB772FEF5F570E2E8617E48620
:10079000DC901B72436EC80DB92137E486DC901BD8
:1007A00071332D277FF7DE265F416EC80DB92137E3
:1007B000E486FC2A9EED1F3AA7730405982CFE7C64
:1007C0002E2230C215E6EFE288737A38FEE166E643
:1007D000958C92FC084F284C98A05CE60C210903EC
:1007E00060C080C31A74057570A1D4522E0C95ACEC
:1007F00032E694811108E09075881C60C08003FA8D
:1008000015AFDE7AEBADB7DE7AEB4DB8F5E6DD9BE2
:10081000776FBD81B7DE7AEBADB7DE7AF515150FD0
:1008200027000E9C3973E6CC9933671E00F09007C1
:100830009C3973E6CC9933678EBC02150FA7218BC8
:10084000C96432B120C5C2C4421105984C269B3DF3
:10085000DEB9D94C269322458A4C8A4C8A4C269381
:10086000C962F80A198F39E5CFC3718C9DC3615DE8
:10087000D6655DD6655DD6655DD6655DD665CE23EC
:10088000290F27000E9C3973E6CC993367CE9C392B
:1008900073E6CC993367CE9C7900C0431E70E6CCDA
:1008A000993367CE9C3973E6CC993367CE9C397304
:1008B000E6C82B190FA7218BC9C482140B130B1385
:1008C0000B132916A44CA4589032D9ECF1CECD6666
:1008D00052A442914991224526458A14994C8A4C4A
:1008E0002693C5F015298F7B0C4EC8AA882C445638
:1008F00045241559159154E480880D2207446C1045
:100900005915915464556455645544A088DC0863B6
:100910007C4039B0D8A86C246C543612361236128A
:100920003641368B8DCA46C246C246C246652361F1
:10093000A3B291B0199CBC03298F39E59F07C73139
:10094000760E877559977559977559977559977593
:100950005997755997755997755997755997398F4B
:10096000194F7B6C361323028220132A52006552E2
:10097000844A910915013132992C1C1F70B0984C92
:10098000A448913291329132912245CA44CA6432CC
:10099000D96CEF1D0F27000E9C3973E6CC99336795
:1009A000CE9C3973E601000F79C0993367CE9C392C
:1009B00073E6CC9933678EBC02190F27000E9C3961
:1009C00073E6CC993367CE9C7900C0431E70E6CCA9
:1009D000993367CE9C3973E6C82B130F27000E9C02
:1009E0003973E6CC99330F0078C803CE9C3973E68F
:1009F000CC9923AF001D8F7B0C4EC8AA882C44567F
:100A0000456EC8AA884011591511A022AB22028058
:100A10002237C2181F500E2C362A1B091B958D84B5
:100A20008DCA46C246C246C246C246C26670F20E71
:100A3000190FA7218BC9C48280189958984C261683
:100A400004C4C2C448052393CD1EEFDC6C264526A2
:100A500093499122452645264526932293C9643120
:100A60007C05198F39E5CFC3718C9DC3615DD66557
:100A70005DD6655DD6655DD6655DD665CE23138F83
:100A80007B0C4EC80D1104103113310222820BB9B8
:100A900011C6F8807260B109B251D904D9A86C1698
:100AA0009BC1C93B138F7B0C4EC80D0956E486D8F9
:100AB00020621772238CF101E5C0621364A3B209AE
:100AC000B251D92C36839377134F7B6C3693C9641C
:100AD000624440106432994C260BC7071C2C2693A5
:100AE000C96422458A94C96432D96CEF138F7B0C98
:100AF0004EC80DB921C18ADC901B72238CF101E52F
:100B0000C062B3D804D9A86C169BC56670F20E13E8
:100B10008F39E5E7721C63E77058977559977559D7
:100B200097755997398F1D8F7B0C4EC88C88008222
:100B3000C8AA8880115915B92107446C1039206260
:100B400083C88D30C60794038B8DCA46C246C266E1
:100B5000B151D948D8A86C246C826C169BC1C93B92
:100B6000218F7B0C4EC8AA8824415645241559155F
:100B7000591559151100145915B921AB220245E434
:100B80004618E303CA81C54665B3D8A86C246C54E3
:100B90003612362A1B091B958D848DCA46C2667093
:100BA000F20E218F39E5CFCB718C9DC3615DD66587
:100BB0005DD6655DD6655DD6655DD6655DD6655DE0
:100BC000D665CE231D0FA7218BC9C4888008C244D7
:100BD0008A0529130B02626162418A858905290908
:100BE0004C367BBC73B39914295264322932991460
:100BF00099149914991499142932994C16C3571DB4
:100C00008F39E5CFC7718C9DC3615DD6655DD665B3
:100C10005DD6655DD6655DD6655DD665CE231F0F55
:100C2000A7218BC9C442110B132916A44CA45890B8
:100C300032994C2C44B130B1202052269B3DDEB974
:100C4000D94C8A4C8A4C8A1429329914994C26938F
:100C50002293229322458A4C268BE12B9FCF631C43
:100C6000F973E6749FF3B22EEBB22EEBB22EEBB219
:100C70002EEBB22EEBB22EEBB20E876C5075736872
:100C8000002020207E4C6F73653A7E2000202020BB
:100C9000207E57696E3A7E20000A20546F747E428F
:100CA00065743A7E20000A496E69747E4265743A22
:100CB0007E20007E7E207E50757273653A7E0087AE
:100CC00007A31D594E9E02439FB387C338FAAFD185
:100CD000E3381CFAD97FEF2B9FF1721847FE7D7223
:100CE0001C87BDF7DE09BFC5AB57AF5EBD7AF5EA1D
:100CF000D5AB57AF5EBD7AF5EAD5AB57AF5EBD7ADF
:100D0000F5EACF0555D7E71E0EE396AB57AF5EBDAC
:100D10007AF5EAD5AB57AF5EBD10B3630589D9311B
:100D2000C461A3310C63C7F0EAD5AB57AF5EBD7A9F
:100D3000F5EAD5AB57AFB98DC3A13FE3A3984BE418
:100D4000823979C45C22DFEA4572E39C93418C448A
:100D500023455A9719E04A821A648A4706E61239EF
:100D6000720B5E7AE6285E2817E186B9146EBD180C
:100D70003EBAF2592F8771F4C2DE1B955DBCB3F702
:100D80006671F0A8DD205C606DF514DD2C0E940317
:100D9000E91E721A3BE5A0D92CF63CBB175C40D883
:100DA000D5CB3838D80C2E0CF6DEE8A96473F138B0
:100DB0000E87755917C32355A79BDB9CA76E6A57EF
:100DC0002D078BA91DC3626A23758C5A406A9561F1
:100DD00031B599CED4665A4C6DA4165387D3C9B297
:100DE000C1DA2EAF16533B86C5D446EACAB0865A3E
:100DF000625D48EDAA45A0561C1E7B9AF3C6F7BF5C
:100E00004748631AE285BD4B88C3EC7230069512E1
:100E100058B11EE88C61113AEFEC5D82AD69B81AE9
:100E2000B3202C1076355E08DD9B38CC0EDB61A339
:100E3000312C622935A4314336A8073FFCFD2F32FF
:100E40005697C844B76314862C28A39603C67660C9
:100E5000B8A8C5A014143A944578CE585D72C1D58F
:100E600035B8DA4161E1808EE199DE4AD4753BD331
:100E70005BB950B37E1263D41C942F5CF2E760E040
:100E80005586376FC988C9402363E4A6B1828AA218
:100E900014E5C2C0AB8812D08878515355106560F4
:100EA000D0BF4F2E3FD5636FBDF5D65B6FBDF5D676
:100EB0005B6FBDF5D65B6FBDF5D65B6FBDF5D65BE1
:100EC0006FBDF5D65B6FBDF5D65B6FBDF5D65B8F9D
:100ED000FE3CD5E7DCE63CE5CA7F0FB8E634E7C761
:100EE000FFBBF3DDFFEE701C831C7875C97F5DB21C
:100EF0007E5E6EE3B22EEBB22EEBB22EEBB22EEB99
:100F0000B22EEBB22EEBB22EEBB22EEBB22EEBB238
:100F10002EEBB22EEBB22EEBB22EEBB22EEBB22EAC
:100F2000EBB22EEB326EF95955979BDB9CA71EBD99
:100F300010B363B878758C1A07319A3A9C561A0325
:100F4000911841EA85981D83811863BD7A21461B5B
:100F5000831926258E51E3204653872166C7ABD9D6
:100F6000315C0C69CC90181CB16E8F3DCD79E3FBE0
:100F70005F07838990C82268BB5840C534C40023EA
:100F80004398060CA540A0693D62D244160130ADDD
:100F90000BB9E50D669848BA388A8B10D36601CB39
:100FA0003691B0304D5DC8268E1530688544021EDE
:100FB000F9E291AFAE79CA951BEBB238D3B156D8EE
:100FC00032D6386964A108ABF1D639CAA263F644B7
:100FD000C71A20338C453899B120B2612FAF74AC59
:100FE00015B68C358E733A594C3652D66521049617
:100FF00001CB35A7392FEB12BCF00255D7E71E0EF7
:10100000E396AB57AF5EBD7AF5EAD5AB57AF5EBDA1
:101010007AF5EAD5AB57AF5EBD7AF5EAD5AB57AFF7
:101020005EBD7AF5EAD56B6EE370E8CF78C7C0ABEA
:101030000C0E8CED8E419DCE453456505194A284B9
:10104000B9DCD7EDBA30B65B440C3386EBEC00511B
:1010500007EBE081B1DD31A8D3B96832623290018B
:10106000C42230F02AA20434229E89882822ABF1BF
:10107000EDCA67BD1CC6D1FF3A781C87C3BAAC8BDA
:10108000E111559FB387C338FA5F078FE370E867B4
:10109000FFFBB3F2192F8771E4BF171CC761EFBDC7
:1010A00077C26FF1EAD5AB57AF5EBD7AF5EAD5AB43
:1010B00057AF5EBD7AF5EAD5AB57AF5EBD7AF5EABC
:1010C000D5AB57AF5EBD7AF5E7022FAF1F9DF39406
:1010D000BF6E4E73FEC87F1F3FE85FCF0FE0F8AFD3
:1010E000E490EF789AF3E4BF0F4F739EDCB9ACCB7A
:1010F000BAACCBBAACCBBAACCBBAACCBBAACCBBA41
:10110000ACCBBAACCBBAACCBBAACCBBAACCBBAAC3E
:101110004B007F8F8D8115032B06560CAC18583170
:10112000B06260C5C08A8115032B06560CAC1858F6
:1011300031B06260C5C08A8115032B06560CAC180D
:101140005831B06260C5C08A8115032B06560CACBD
:10115000185831B06260C5C08A8115032B06560C41
:10116000AC185831B06260C5C08A8115032B065691
:101170000CAC185831B06260C5C08A8115032B06CB
:10118000560CAC185831B06260C5C08A8115032B6B
:1011900006560CAC185831B06260C580FFFD072EB2
:1011A000004465616C65727E69737E7065656B690C
:1011B0006E677E00496E737572616E63653F2000D5
:1011C000496E697469616C7E6265743F2000050731
:1011D000DA82410BF50605073A02AE04EA0D05076F
:1011E0003A9A950E6F0507A4A3C3D1DC000507DA70
:1011F00082410BF50605073A02AE04EA0D05073AEF
:101200009A950E6F0507A4A3C3D1DC0003081F0540
:101210001F1F151B1F11111F110E1F15111F050177
:101220001F111D1F041F001F0010101F1F041B1F74
:1012300010101F061F1F011F1F111F1F05071F3141
:101240001F1F051B17151D011F011F101F0F100F5A
:101250001F0C1F1B041B071C071915130C121E1F44
:10126000120C1E12120C121F0C1A14041F052E2A27
:101270001E1F021C001D00201D001F041A011F005C
:101280001E041E1E021E1E121E3E120C0C123E1EBC
:10129000020614120A020F121E101E0E100E1E0855
:1012A0001E1A041A2E281E1A12161F111F121F10A2
:1012B0001D151711151F07041F17151D1F151D01DB
:1012C000011F1F151F17151F001700001000040431
:1012D00004040E040229060A00007F8F8D81150385
:1012E0002B06560CAC185831B06260C5C08A811507
:1012F000032B06560CAC185831B06260C5C08A8109
:1013000015032B06560CAC185831B06260C5C08A64
:101310008115032B06560CAC185831B06260C5C05D
:101320008A8115032B06560CAC185831B06260C583
:10133000C08A8115032B06560CAC185831B0626078
:10134000C5C08A8115032B06560CAC185831B06203
:1013500060C5C08A8115032B06560CAC185831B0F5
:101360006260C580FFFD0749100303FFFFFF636351
:1013700063F7FFBE1C00000303FFFFFF63E3E3E32B
:10138000F77F3E1C000000F0FCFE0E07030303077E
:101390000EFEFCF000000303FFFFFFC3E370F0FB51
:1013A000CF0F0703000303FFFFFF6363F3F3070F90
:1013B0000C0018181F1F1F1818181C1F0F070000FB
:1013C00018181F1F1F181801070F1F1E18180000DC
:1013D00001070F0E1C1818181C0E0F07010000182B
:1013E000181F1F1F191800001B1F1F1E1818181880
:1013F0001F1F1F181819191C1E0F035B1003071F4E
:101400003F7FF3E0E07B1F0F0303F0FCFE0E0703BA
:101410000303070EFEFCF000000303FFFFFF0303BE
:10142000000303FFFF0303000000000000000000B2
:10143000C0F8BE8FBFFFF8C00000000303FFFFFF2E
:1014400063E3E3E3F77F3E1C0000000303FFFFFFBD
:101450006363F3F3070F0C0000000018181F1F1F31
:10146000181800000001070F0E1C1818181C0E0F8A
:10147000070100000000070F0F1C1818180C0F07B9
:10148000000000000000000018181F1F19010119BA
:10149000191F1F1E181818181F1F1F181801070FD3
:1014A0001F1C1818000018181F1F1F181819191CC6
:1014B0001E0F0300010000EC006100B500B50061E3
:1014C00000EC00000000019FFFEC004BFFB5001492
:1014D000FF610000FF000014FF9FFF4BFF4BFF9FC9
:1014E000FF14FF000000FF610014FFB5004BFFEC8C
:1014F000009FFF80104040404040404040404040FE
:10150000404040404080000000000000000000001B
:1015100000E0D020A020A0404040808080800000DB
:1015200000000000000000000000000000000000BB
:1015300000000000000000000000000000000000AB
:10154000000000000000000000000000000000009B
:1015500000000080808040404040A020A01090D03B
:1015600090684870000000000000000000000000CB
:101570000000000000DB92DB92DB92DB92DB92C189
:101580000C5AD29AD29AD29AD29AD29AD29AD29A01
:10159000D29AD28D610163D392D394D694CE89CD61
:1015A00089DA92CE80D090D090600000004CDA9220
:1015B000DA92DA92DA92DA92DA92DA921A52DA92CB
:1015C000CC80D090D090D090D090D090D090D0902F
:1015D00060070D0466D496D293D291D191D190D068
:1015E00096D591D591D5916509CD89CD89C10C5AF2
:1015F000D29AD29AD26B10081F070303FFFFFF0392
:10160000030F1F080303FFFFFF6363606363FFFFB4
:10161000FF0303000303FFFFFF6363F3F3070F0CF4
:1016200000000000000000000303FFFFFF6363638E
:10163000F7FFBE1C0000000000C0F8BE8FBFFEF820
:10164000C0000000000303FFFF1F7CF0C383FFFF07
:101650000303000303FFFFFFC3E370F0FBCF0F079B
:10166000030000000018181F1F1F181800000018A2
:10167000181F1F1F18180018181F1F1F18180018F0
:10168000181F1F1F181818181C1E0F030000000039
:1016900000000018181F1F1F1818181C1F0F070024
:1016A0000018181F1F19010119191F1F1E181800F3
:1016B00018181F1F181801071F1F1F0000001818F7
:1016C0001F1F1F191800001B1F1F1E18187710035B
:1016D00003071F3F7FF3E0E07B1F0F0303F0FCFED7
:1016E0000E07030303070EFEFCF00303FFFFFF03D7
:1016F00003000303FFFF03030000000000000303D7
:10170000FFFFFF636363F7FFBE1C00000303FFFFDF
:10171000FF63E3E3E3F77F3E1C0000F0FCFE0E07EF
:10172000030303070EFEFCF0000303FFFFFFC3E308
:1017300070F0FBCF0F070300000303FFFFFF63639D
:10174000F3F3070F0C000000000018181F1F1F18EC
:101750001800000001070F0E1C1818181C0E0F07A8
:10176000010000070F0F1C1818180C0F07000000CD
:10177000000000000018181F1F1F1818181C1F0F4A
:1017800007000018181F1F1F181801070F1F1E1829
:10179000180001070F0E1C1818181C0E0F07010067
:1017A00018181F1F1F191800001B1F1F1E180018D4
:1017B00018181F1F1F181818181C1E0F03D5F08D9E
:1017C00014A1C881CFD9F1AF20000507DA82410BFF
:1017D000F50605073A02AE04EA0D05073A9A950E9A
:1017E0006F0507A4A3C3D1DC007FFFFFA3431DD374
:1017F000ABA65133889331F24C9FDDBD8917F5229A
:10180000B98CC739AD8B7A919CF2469F1D2597758F
:10181000517F813AA657BD387B522FEA659DBC7334
:101820001C97E045BD8C2307C7E47EF0B22EC18B28
:101830007F62B7BD75D5BA6D9C63905776F556CF6C
:10184000C9E82058ADAC53572DA3F33232ADDB2697
:10185000E8442E76F536257B30DA657D94796AA6E4
:1018600075A6A7D91719C351193A708E5B3DB00EF2
:101870006B24755B67862A777BEBC2CB1E23ADDBBF
:10188000FFC1E8D5FFBC72444E085C40B8807001CF
:10189000E1023DB4062FC0026B6404B82137002E6C
:1018A000205C20B0A13061C1820503361436042EBD
:1018B000209C901B72F4EA7F68D6D22784D04E3EDB
:1018C000044DEE8E66A5C30B7F4FAE5E816501AA07
:1018D000FD2FC8DE2FDC61CCC4175AFD951C7B9A06
:1018E000F3324EBB7F8AB6FD370201020408102096
:1018F000408007876F018183021B0007C78F48362E
:1019000020B0015307072F59C064322907874F833E
:10191000000B4080150007476F339819C0080787F0
:101920006F23B023B00307072F994C3623050747D1
:101930006F338091C90807070F331919CC14078733
:101940006F59EC086C0007070F33594E460A07071A
:101950000F3398998C1407070F81018C0C60A40732
:10196000C76F12B6CC195307C76F12F665260C075E
:10197000C78F48E665260C07072F58E9C8C82850C6
:1019800005077B0C86F80405077B84E878020507C9
:101990002736E91B8587E33416592705872728C092
:1019A0001A7705077B04808C27058767C9C13B052B
:1019B00087A705B0027705073B100002790205876B
:1019C000C7C81E7705872722C01A7705071B120094
:1019D00012780205077B0418E3090507DA82410B38
:1019E000F50605073A02AE04EA0D05073A9A950E88
:1019F0006F0507A4A3C3D1DC00850F008000200081
:101A00000800028000200008800080000800088094
:101A10008D0F0080002000080002800020000800D8
:101A20000280002000080002800020000880008062
:101A3000000800088000800008000880008000087E
:101A40000008800D971983C009B92137E486AC01DD
:101A50005E0FFB77BC1BA7B12EEBB22EEBF214236B
:101A60008FBB93160217102E205C40B8807001E1E6
:101A700002C205840B0817102E205C40B88070014C
:101A8000E1028196D917EB72EBADB7DE7AEBADB719
:101A9000DE7AEBADB7DE7AEBADB7CBBA00A3CF9D64
:101AA000A7FCB5739AF5D65B6FBDF5D65B6FBDF538
:101AB000D65B6FBDF5D65B6FBDF5D69B15971983C9
:101AC000C009B92137E486DC901B72436EC809C295
:101AD00018D9FBEFB18FA7B12EEBB22EEBB22EEBE4
:101AE000B22EEBB2C66900A187DD0D9BBB201BC4E3
:101AF0006B2EBDE43864E33878DCB75EC04B6FA171
:101B00001BC51B0D0F0CA4C0400A0CA4C0400A0C3E
:101B1000A4C0400A0C78C1993367CE9C7904CD8764
:101B2000DDD213C7018702DCBA45397281E0910B1F
:101B300004BFD52D3D71DC9BC531975E7296ECE0FC
:101B4000730F1838782CDCD6A7C61EA7E04D72EBB1
:101B5000969E380EDC0856312E30008D8F1192255E
:101B6000244B4896902C215942B204762EEBB22E8B
:101B7000EBB22EEBB28E23474D474646F3DB46B31E
:101B8000F839AC741C59E9D88E2F8A2F11241FBE46
:101B9000CFEFDAE0DEBFCDBF12E0A0E0B1E0E4E3DA
:101BA000F9E602C005900D92A634B107D9F727E0F7
:101BB000A6E4B2E001C01D92A33CB207E1F71DE02C
:101BC000C5ECDDE004C02197FE010E945533C43C02
:101BD000D107C9F70E944D300C948D340C9400004D
:101BE0002F923F924F925F926F927F928F929F922D
:101BF000AF92BF92CF92DF92EF92FF920F931F931B
:101C0000CF93DF9300D000D01F92CDB7DEB7DB01BA
:101C10001996BC901997B09418962C911897B222E7
:101C20007C0122E9E20EF11CF701A0804C01A11019
:101C300004C0FCE08F0E911C03C02EE1820E911CAB
:101C40006C0145E9C40ED11CF601408150E04E30D4
:101C5000510510F00C9409178D019D838C83FA01B6
:101C6000EA5AFF4F0C945533AC81BD81D3961C9238
:101C7000D397FD01EC5BFF4F10827097CD01805C24
:101C80009F4FDF011D92A817B907E1F7AC81BD8115
:101C9000AC56BF4F1C9222E0AC81BD81AD56BF4F08
:101CA0002C93D7011C921192E817F907E1F78C8168
:101CB0009D810C960E947C218C819D814E960E9474
:101CC0007C21EC81FD81E057FF4F11821082EC8175
:101CD000FD81E457FF4F11821082AC81BD81A65770
:101CE000BF4F11961C921E92EC81FD81E257FF4F6F
:101CF00011821082EC81FD81EA5AFF4F1192EA179E
:101D0000FB07E1F781E0F6018083EC81FD81EB5A6E
:101D1000FF4F1082D80117961C921E921697EC81E5
:101D2000FD81EC5AFF4F1082B5FE0DC0EC80FD80A6
:101D3000B4E5EB0EF11CF70160818C819D810E945E
:101D40004922D7018C93B6FE63C0EC81FD81EC5A29
:101D5000FF4F8081811113C0AC81BD81A457BF4F5B
:101D60002D913C91243C310560F4AC81BD81D0962D
:101D70002D913C91D197253031051CF041C0823026
:101D800098F4AC81BD81A457BF4F2D913C912F3B5E
:101D9000310560F4AC81BD81D0962D913C91D197F5
:101DA0002A3031057CF502C0823099F4AC81BD81C6
:101DB000A457BF4F2D913C91203B310560F4AC817D
:101DC000BD81D0962D913C91D19729313105E4F414
:101DD00002C0833049F4AC81BD81A457BF4F2D911F
:101DE0003C91232B99F402C0843089F4AC81BD81ED
:101DF000A457BF4F2D913C91232B49F085E007C09C
:101E000081E005C082E003C083E001C084E08083FC
:101E1000B3FC02C00C940917EC80FD80B4E5EB0E16
:101E2000F11CD701EC91E43009F442C0D8F0E53060
:101E300009F051C0EC81FD8120A931A9E457FF4F81
:101E400080819181820F931FAC81BD81D1969C933B
:101E50008E93D09711821082FD01E657FF4F1182B9
:101E6000108239C0F0E0E65FFE4F2081EC81FD81F9
:101E7000E457FF4F80819181820F911D9183808370
:101E8000EC81FD81E657FF4F91838083F401918BB4
:101E9000808BD701EC91F0E0E65FFE4F2081EC8172
:101EA000FD8180A991A9821B910991AB80AB13C0E0
:101EB00082E0D6018C93EC81FD81EB5AFF4F1082BA
:101EC000F80117821682D7011C9281E0EC81FD8116
:101ED000ED56FF4F8083F7011081143050F0EC81F4
:101EE000FD81E457FF4F80819181892B09F44FC018
:101EF000EBC1133099F4EC81FD81E457FF4F8081F1
:101F00009181803B910508F042C0AC81BD81D096A3
:101F10008D919C91D1974997D4F1D6C1123081F41B
:101F2000EC81FD81E457FF4F808191818F3B9105CA
:101F300070F5EC81FD8180A991A90A9744F1C4C193
:101F4000113091F4EC81FD81E457FF4F8081918144
:101F5000843C9105E0F4AC81BD81D0968D919C913B
:101F6000D1970597A4F0B0C1111111C0EC81FD818A
:101F7000E457FF4F80819181883C910540F4EC81CA
:101F8000FD8180A991A9181619060CF49DC1612F35
:101F90008C819D810E94492292C1FD018681978199
:101FA0006FE070E00E944133892B09F032C7EC806A
:101FB000FD80F5E5EF0EF11CD7018C91813049F0E1
:101FC00028F0823019F0833051F403C040E061E022
:101FD00002C040E060E08C819D810E94752BF7017A
:101FE00080818F5F8083843009F013C7AC81BD810D
:101FF000D5968C91D5976DE00E9435339111A2C48E
:10200000D0968D919C91D197181619060CF4D2C6D2
:1020100099C48C809D80B3E98B0E911C84E0F401FF
:102020008083B5FE0DC0EC80FD80F4E5EF0EF11C61
:10203000D7016C918C819D810E94DC21F701808306
:10204000B6FE68C0EC81FD81EC5AFF4F8081AC8107
:10205000BD81A457BF4F2D913C9136952795811195
:1020600015C0AC81BD81A057BF4F8D919C91059645
:10207000A90155274817590758F0AC81BD81D09662
:102080008D919C91D19705971CF03CC08230A8F4AB
:10209000AC81BD81A057BF4F8D919C910A96A9013B
:1020A00055274817590758F0AC81BD81D0968D91BE
:1020B0009C91D1970A9744F502C08230A1F4AC817B
:1020C000BD81A057BF4F8D919C914996332728170A
:1020D000390758F0AC81BD81D0968D919C91D197F4
:1020E0004997A4F402C0833051F4AC81BD81A0575C
:1020F000BF4F8D919C91892B59F084E00AC08430A8
:1021000039F007C081E005C082E003C083E001C070
:1021100085E08083B3FE7DC6EC80FD80B4E5EB0EE8
:10212000F11CF7018081AC81BD81A457BF4F843081
:1021300091F118F0853029F152C0E82FF0E0E65F08
:10214000FE4F808190E0EC81FD81E057FF4F2081C0
:102150003181280F391F31832083EC81FD81E657BF
:10216000FF4F20813181280F391F31832083EC817B
:10217000FD8120A931A9A901481B590B51AB40ABE6
:102180002EC04C815D8140575F4FFA018081918163
:10219000009789F484E0F6018083EC81FD81EB5A9D
:1021A000FF4F1082F80117821682F701108281E03A
:1021B000F401808314C0EC81FD8120A931A9820F34
:1021C000931F91AB80ABFA01118210828D919C918B
:1021D0001197EC81FD81E657FF4F91838083F701D2
:1021E00010818D919C9196958795143048F0EC81E3
:1021F000FD81E057FF4F20813181232B79F164C0AD
:102200001330B9F4EC81FD81E057FF4F208131811B
:10221000275E3F4F99278217930708F44BC0AC8184
:10222000BD81D0968D919C91D19749970CF442C075
:102230004BC0123099F4EC81FD81E057FF4F2081B3
:102240003181265F3F4F99278217930798F1EC81E0
:10225000FD8180A991A90A976CF136C01130A9F4CB
:10226000EC81FD81E057FF4F208131812B5F3F4F93
:10227000992782179307F0F0AC81BD81D0968D919C
:102280009C91D1970597B4F01FC0111113C0EC8138
:10229000FD81E057FF4F208131812F5F3F4F99270C
:1022A0008217930738F0EC81FD8180A991A9181657
:1022B000190654F0612F8C819D810E94DC218117C9
:1022C00011F0182F01C014E0D7011C93A2C5EC80B7
:1022D000FD80B5E5EB0EF11CF7018081803208F03E
:1022E000ABC1882319F08F3139F0A1C1EC81FD8198
:1022F000EC5AFF4F10829BC135E0D6013C9321E0A0
:1023000040E061E08C819D8139830E94F32AEC8159
:10231000FD81E05CFF4F4F016C817D816D567F4FE9
:102320004C815D8140575F4F1A01AC81BD81AE5B2E
:10233000BF4F3D01EC81FD81EF5BFF4F5F014C81A1
:102340005D814D5B5F4F6A01AC81BD81AB5BBF4F6F
:102350002D013981853109F012C151E0EC81FD81F7
:10236000EC5BFF4F5083FB01308321E040E060E0F5
:102370008C819D8159830E94F32A2C813D812457B1
:102380003F4FEC81FD81E95BFF4F6C817D81685B94
:102390007F4F7B836A835981D801853109F062C000
:1023A00056968D919C915797019657969C938E9334
:1023B0005697D1018D919C91009729F590E4D30116
:1023C0009C9386E0D4018C9382E0D5018C9383E1C9
:1023D000D6018C93D2011C92D9012D913C9113828C
:1023E00012821582148283E08083DB011C92AC810F
:1023F000BD81A35BBF4F2D933C93AC81BD81A15B9D
:10240000BF4F5C9360C040E4D3014C9364E0D401BF
:102410006C93D5015C9363E1D6016C93D2011C925D
:10242000880F991FD9012D913C91280F391F1582D2
:1024300014825083AA81BB811C92AC81BD81A75BB1
:10244000BF4F8D939C93AC81BD81A35BBF4F2D93F8
:102450003C93AC81BD81A15BBF4F5C9380E88187D9
:10246000428789C054968D919C91559701965596B7
:102470009C938E935497D1016D917C916115710558
:1024800031F590E4D3019C93D4015C9382E0D501B3
:102490008C9343E1D6014C93D2011C92D9012D912A
:1024A0003C9131952195310913821282178216824F
:1024B00010868083AA81BB811C92AC81BD81A55B03
:1024C000BF4F2D933C9380E88187928754C0D901F8
:1024D0008D919C91660F771F8617970739F520E439
:1024E000D3012C933AE0D4013C9332E0D5013C93E4
:1024F00036E0D6013C93D2011C92138212821582DF
:10250000148233E03083AA81BB811C92AC81BD81EF
:10251000A35BBF4F8D939C93AC81BD81A15BBF4FEB
:1025200084E08C9380E88187228725C030E4D30142
:102530003C9322E0D4012C93D5012C9341E2D601A7
:102540004C93D2011C92138212821782168220832E
:10255000AA81BB811C92AC81BD81A55BBF4F681B6A
:10256000790B6D937C93AC81BD81A15BBF4F2C93A4
:1025700080E881873287F70180818F5F57C0D10162
:102580008D919C91009709F441C020E4F3012083D0
:1025900038E0D4013C9332E0F501308343E1D601C9
:1025A0004C93F2011082EC81FD81E95BFF4F1382B5
:1025B00012821782168230834C815D81485B5F4FA7
:1025C000DA011C924C815D81455B5F4F919581954D
:1025D0009109DA018D939C938C819D81815B9F4F42
:1025E00033E0DC013C9380E88187228780E2F701B9
:1025F0008083EC81FD81E657FF4FAC81BD81A457FC
:10260000BF4F8D919C91918380830EC080E4D30154
:102610008C9383E0F401808382E0D5018C9383E185
:10262000FA018083D2011C9288E0FB018083D701EC
:102630008C918F5F8C93EDC3B5FE08C0EC81FD815A
:10264000EC5AFF4F8081813009F41082B6FE09C038
:10265000EC81FD81EC5AFF4F8081811102C081E045
:102660008083B3FED6C32C813D812D563F4FF901A7
:102670008081EC81FD81EC5AFF4F883059F08081D8
:1026800081111AC3AC81BD81AA5BBF4F1C92D601D8
:102690001C9256C1D6018C93D7011C92D801179673
:1026A0001C921E921697108287E0F90181C387E081
:1026B000EC81FD81ED56FF4F8083B5FE3FC08C80DD
:1026C0009D80F4E58F0E911CD4012C91233071F57F
:1026D000EC81FD81E457FF4F40815181EC81FD8108
:1026E00080A991A98417950738F18785823051F424
:1026F000CF010C9629830E949D222981811102C05D
:10270000AA2091F0AC81BD8191968C9191978230F5
:1027100099F4CD014E9629830E949D222981811131
:102720000BC0B1E0AB1208C022E006C0223009F4B1
:102730006EC3213009F420E0F4012083B6FE6DC0A1
:102740008C809D80F4E58F0E911CD4012C91222366
:1027500009F45EC0223078F5EC81FD81E457FF4F2B
:1027600040815181EC81FD8180A991A98417950751
:102770000CF44EC08785823059F4CF010C96298322
:102780000E949D222981811103C0AA2009F442C020
:10279000AC81BD8191968C9191978230D9F4CD0115
:1027A0004E9629830E949D222981811113C0B1E098
:1027B000AB1210C02FC0223071F5EC81FD81E457BF
:1027C000FF4F40815181EC81FD8180A991A984173F
:1027D00095070CF1A1101FC0AC81BD811F968C9193
:1027E0001F978230C1F491968C919197811113C0FB
:1027F00050968C9150973DE0632F0E943533492FBE
:1028000051968C910E943533491305C023E003C0D3
:1028100021E001C022E0F4012083B3FEFAC2EC8182
:10282000FD81EC5AFF4F8081813009F4D3C038F02C
:102830008230C1F0833009F0ECC286E014C04A2D2A
:1028400060E08C819D810E94752B20E0D7014C9126
:1028500060E08C819D810E94F32A863108F4D9C200
:102860008DE071C087E0D6018C932FC231E0EC81FE
:10287000FD81ED56FF4F3083EC80FD80B5E5EB0E1A
:10288000F11CF7012081233008F041C0D8011696D1
:102890008D919C9117976FE070E00E944133892BD6
:1028A00009F0B7C2213051F1223051F1EC81FD81A4
:1028B000878581508787818982A381A18F5F81A3CA
:1028C000E457FF4F20813181AC81BD819F963C93BD
:1028D0002E939E97D0968D919C91D197821B930BAE
:1028E000D1969C938E93D097FD01E657FF4F808140
:1028F0009181280F391F3183208357C240E001C0E6
:1029000041E060E08C819D810E94752B4EC22F5F5B
:102910002083EC81FD81EC5AFF4F1082AC81BD8198
:1029200050968C9150976DE00E94353391110AC0FA
:102930001D963C931D975F963C9389E0D6018C933E
:10294000D701C7C188E0F6018083EC81FD81EB5A95
:10295000FF4F51C281E0EC81FD81ED56FF4F808336
:10296000F40181836C807D80FCE86F0E711CD301C3
:102970002D913C91F40180899189820F931F918B55
:10298000808BAC81BD81D0968D919C91D197821B1B
:10299000930BD1969C938E93D0974A2D60E0CD01F6
:1029A0000E94752BEC81FD81E657FF4FD3012D91DD
:1029B0003C9180819181820F931F9183808320E0DD
:1029C000F701408160E08C819D810E94F32A86316D
:1029D00008F046CFB8018C819D810F900F900F9029
:1029E0000F900F90DF91CF911F910F91FF90EF907B
:1029F000DF90CF90BF90AF909F908F907F906F901F
:102A00005F904F903F902F900C943E2F81E0EC818F
:102A1000FD81ED56FF4F808382E0D7018C9321E04A
:102A200040E061E08C819D810E94F32A853181F133
:102A3000F801868197816FE070E00E944133892B15
:102A400009F0E7C120E040E061E08C819D810E94B7
:102A5000F32A8131E8F440E061E08C819D810F90A0
:102A60000F900F900F900F90DF91CF911F910F91CA
:102A7000FF90EF90DF90CF90BF90AF909F908F909E
:102A80007F906F905F904F903F902F900C94752B9C
:102A90008AE0D6018C93EC81FD81EB5AFF4F1082C6
:102AA000F80117821682ADC1EC80FD80F3E9EF0ECC
:102AB000F11C81E0D7018C93EC81FD8181A18823F9
:102AC00009F482C0868581112AC080A1811127C0A6
:102AD000EB5AFF4F8081813269F08333A1F080315E
:102AE000F1F4AC81BD815C964D915C915D9760E0A5
:102AF000CD0106C0EC81FD8146A557A561E0CF015F
:102B00000E94FE2D0CC08BE0D6018C931082F80140
:102B100017821682EC81FD81EC5AFF4F1082AC8146
:102B2000BD811E968C911E97811125C090968C9127
:102B30009097882301F1FD01EB5AFF4F808180318E
:102B400091F08132C1F48BE0D6018C931082F801B0
:102B500017821682EC81FD81EC5AFF4F108281E0D2
:102B6000D7018C9308C0EC81FD81448D558D60E0C8
:102B7000CF010E94FE2DEC81FD818685882309F41A
:102B800041C080A181113EC0EB5AFF4F808180314E
:102B900091F08132B9F58BE0D6018C931082F80167
:102BA00017821682EC81FD81EC5AFF4F108281E082
:102BB000D7018C9327C0AC81BD819E964D915C91CD
:102BC0009F9761E0CD011CC0EC81FD81EB5AFF4F66
:102BD0008081803179F08132A9F48BE0D6018C9329
:102BE0001082F80117821682EC81FD81EC5AFF4FAA
:102BF000108208C0EC81FD81448D558D60E0CF01CD
:102C00000E94FE2DEC81FD81E05BFF4F80818111F0
:102C100000C1EC81FD81EB5AFF4F90819F5F908353
:102C2000F8C0AC81BD81D0968D919C91D197883EA2
:102C3000B3E09B0720F084E0F801818F19C0892B55
:102C400029F485E0D80159968C9312C08CE0F601E6
:102C50008083EC81FD81EB5AFF4F1082D8011796DB
:102C60001C921E921697EC81FD81EC5AFF4F108248
:102C700085E0EC81FD81ED56FF4F8083B5FE08C0F5
:102C8000EC81FD81EC5AFF4F8081813009F4108284
:102C9000B6FE09C0EC81FD81EC5AFF4F80818111A5
:102CA00002C081E08083B3FEB4C0EC81FD81EC5AA8
:102CB000FF4F8081882339F0813009F0AAC083E07A
:102CC000F801818FA6C0D6011C92AC81BD81AB5AA0
:102CD000BF4F1C92D80117961C921E92169795C052
:102CE00081E0EC81FD81ED56FF4F8083D401129687
:102CF0008C93EC80FD80B5E5EB0EF11CF701808133
:102D0000882351F08B3009F049C01082B8018C81C2
:102D10009D810E943E2F42C080E4EC81FD81EE5BEC
:102D2000FF4F808387E0EC81FD81E05CFF4F808373
:102D300082E0EC81FD81EF5BFF4F808386E0EC81D8
:102D4000FD81ED5BFF4F8083EC81FD81EB5BFF4FED
:102D500081E0A81280E08083D40150968D919C91EF
:102D60005197EC81FD81E95BFF4F1382128217823C
:102D70001682108622E02083AC81BD81A85BBF4F04
:102D8000AC92AC81BD81A55BBF4F8D939C9380E8D5
:102D9000818780E4828781E0F7018083EC81FD8177
:102DA000E05BFF4F8081811134C0F70180818F5F2C
:102DB00080832FC0EC81FD81EE5BFF4F80E4808338
:102DC000EC81FD81E05CFF4F89E08083EC81FD8137
:102DD000EF5BFF4F82E08083EC81FD81ED5BFF4F75
:102DE00083E18083EC81FD81EB5BFF4F108283E008
:102DF000D6018C93F7011082D80117961C921E926F
:102E00001697EC81FD81EC5AFF4F108202C021E041
:102E100093CC0F900F900F900F900F90DF91CF9168
:102E20001F910F91FF90EF90DF90CF90BF90AF90E8
:102E30009F908F907F906F905F904F903F902F90DA
:102E400008952F923F924F925F926F927F928F924E
:102E50009F92AF92BF92CF92DF92EF92FF920F9329
:102E60001F93CF93DF93CDB7DEB728970FB6F894B3
:102E7000DEBF0FBECDBF6C015B01DC0116961C925C
:102E8000169717961C92179786E118968C93F60161
:102E9000EB56FF4FE0818E2F90E0FC013197ED3033
:102EA000F10508F0B4C0EC59FF4F0C945533F6010E
:102EB000EE5BFF4F80818111AAC060EC71E1C60119
:102EC00002960E947027EE24E39407E02DE046E18D
:102ED00050E061E370E0C50103960E944429F601C9
:102EE0001186E457FF4F60817181C6010E94BE2D9B
:102EF00081E0D60119968C938AC0C6010E94F72BF7
:102F0000F601EC5BFF4F408111E04127B501C6019E
:102F10000E94F32CF601EE5BFF4F8081811177C098
:102F200064EB71E1C60102960E947027EE24E394DF
:102F300007E02DE046E150E06BE270E0C50103964A
:102F40000E944429F6011186E057FF4F608171818C
:102F5000C6010E94BE2DD60119961C9358C0C60109
:102F60000E94F72BF601EC5BFF4F408181E0482780
:102F7000B501C6010E94F32C86010E5F1F4F61EA66
:102F800071E1C8010E947027912C7601B5E5EB0E26
:102F9000F11CF70190819695969596959916B8F53E
:102FA0006FE971E1C8010E9470279394F2CFC601C6
:102FB0000E94F72BF601E95BFF4F8081882311F017
:102FC000339708C041E01FC0C6010E94F72BF601ED
:102FD000EC5BFF4F408181E0482715C0C6010E948D
:102FE000F72BD6011E964C911E97442361F09196C3
:102FF0008C919197882339F090964C9104C0C6012A
:103000000E94F72B40E0B501C6010E94F32C250178
:10301000B3E04B0E511CE12C00E420E844E350E007
:1030200060E070E0C2010E94442900E021E042E13A
:1030300051E163E370E080E090E00E94D623F60166
:103040008785882309F467C01CE0819F802D1124A7
:103050009585911102C010E001C019E0865F180F3C
:10306000D60191968C9191979CE0899F902D112487
:103070005F962C91211129E0920FF601EE5BFF4F34
:103080008823F1F10AE0090F9A5E910F969580E48A
:10309000F82EF91A6F2D610FBCE0EB2EE60E808141
:1030A0008823B9F0F601EB5BFF4F8081882321F084
:1030B000635F80E090E01CC061E4691B80E090E009
:1030C0000E94D326812F90E08F0D911D60E801971B
:1030D00025C061E4691B80E090E00E94D32661E096
:1030E000611B6F196E0D812F90E08F0D911D01975F
:1030F0000E94D326802F90E060E88E0D911D0EC0B7
:103100008081882309F40EC6F601EB5BFF4F8081B6
:10311000882309F407C660E880E090E00E94D32687
:10312000F501868197818F71992711E0813108F42B
:1031300010E0F601ED56FF4F8081853009F4D7C2CB
:1031400038F4823009F4ADC0843009F491C12CC345
:10315000873021F0883009F409C326C37601F2E9EB
:10316000EF0EF11CD7018C91823029F100E020E0B4
:103170004CE55CE064E370E08FEF9FEF0E94D623A4
:1031800021E04EE15CE064E370E08FEF9FEF0E948E
:10319000D62320E04FEF5BE064E370E08DE190E048
:1031A0000E94D62321E044EC5BE064E370E08DE113
:1031B00090E00E94D6234601BCE88B0E911CF401DE
:1031C00020813181D601D0968D919C91D197821723
:1031D0009307FCF01F968C91823059F4C6010C962F
:1031E0000E949D22811105C0F7018081882309F486
:1031F00002C3D60191968C91823059F4C6014E9645
:103200000E949D22811105C0F7018081813009F45F
:10321000F2C2D4012D913C91F60180A991A98217A7
:10322000930744F1D7018C91811124C087858230A6
:1032300009F581A181111EC080892DE0622F0E94B5
:103240003533392F81890E943533391313C000E09B
:1032500020E04FEF5BE064E370E089E590E00E94DE
:10326000D62321E046E25BE064E370E089E590E08C
:103270000E94D623112309F497C2F601EC5AFF4F9E
:103280008081843008F090C290E0FC01EE0FFF1FB7
:10329000EA5EFE4F40815181FC01EE5EFE4F80816F
:1032A0001AC27601BCE8EB0EF11CF7018081918116
:1032B000883C9105F8F4D601D0968D919C91D197D8
:1032C00018161906BCF436968081823099F000E019
:1032D00020E04FE05BE064E370E08FEF9FEF0E943F
:1032E000D62321E04CEE5AE064E370E08FEF9FEFCD
:1032F0000E94D623F70180819181843C910500F5DD
:10330000D601D0968D919C91D1970597CCF0F6017E
:10331000EE56FF4F8081823099F000E020E04FE0D0
:103320005BE064E370E081E190E00E94D62321E05D
:1033300048EC5AE064E370E081E190E00E94D6231B
:10334000F701808191818F3B910500F5D601D096E0
:103350008D919C91D1970A97CCF0F601EE56FF4FD4
:103360008081823099F000E020E04FE05BE064E390
:1033700070E083E290E00E94D62321E044EA5AE024
:1033800064E370E083E290E00E94D623F70180813D
:103390009181803B910500F5D601D0968D919C914D
:1033A000D1974997CCF0F601EE56FF4F80818230DD
:1033B00099F000E020E04FE05BE064E370E085E33B
:1033C00090E00E94D62321E04EE75AE064E370E0EB
:1033D00085E390E00E94D623F70180819181892BBB
:1033E000C9F0F601EE56FF4F8081823099F000E07F
:1033F00020E042E65AE064E370E08BE490E00E9453
:10340000D62321E040E35AE064E370E08BE490E0EF
:103410000E94D623D7018D919C91892BC9F0F6018A
:10342000EE56FF4F8081823099F000E020E04FEFB0
:103430005BE064E370E083E690E00E94D62321E045
:1034400045EF59E064E370E083E690E00E94D62304
:10345000112309F4A9C1F601EC5AFF4FE081E430D1
:1034600009F432C108F422C1E53009F09DC130C130
:103470007601B0E9EB0EF11CF701208131812F5F5D
:103480003F4F4601FCE88F0E911CD4018D919C9119
:103490009695879582179307F0F0F60180A991A978
:1034A00018161906C4F4EE56FF4F8081823099F049
:1034B00000E020E04FE05BE064E370E08FEF9FEF1F
:1034C0000E94D62321E04CEE5AE064E370E08FEFD7
:1034D0009FEF0E94D623D7012D913C912B5F3F4F48
:1034E000F40180819181969587958217930700F169
:1034F000D601D0968D919C91D1970597CCF0F6018D
:10350000EE56FF4F8081823099F000E020E04FE0DE
:103510005BE064E370E081E190E00E94D62321E06B
:1035200048EC5AE064E370E081E190E00E94D62329
:10353000F70120813181265F3F4FD4018D919C910D
:103540009695879582179307E8F0F60180A991A9CF
:103550000A97C4F0EE56FF4F8081823099F000E068
:1035600020E04FE05BE064E370E083E290E00E94E3
:10357000D62321E044EA5AE064E370E083E290E07D
:103580000E94D623D7012D913C91275E3F4FF40135
:1035900080819181969587958217930700F1D601D6
:1035A000D0968D919C91D1974997CCF0F601EE562B
:1035B000FF4F8081823099F000E020E04FE05BE037
:1035C00064E370E085E390E00E94D62321E04EE7BB
:1035D0005AE064E370E085E390E00E94D623F701AF
:1035E00080819181892BC9F0F601EE56FF4F8081D1
:1035F000823099F000E020E042E65AE064E370E0B7
:103600008BE490E00E94D62321E040E35AE064E39B
:1036100070E08BE490E00E94D623D7018D919C91BD
:10362000892BC9F0F601EE56FF4F8081823099F068
:1036300000E020E04FEF5BE064E370E083E690E0C1
:103640000E94D62321E045EF59E064E370E083E671
:1036500090E00E94D623F70180819181892BC9F4E3
:10366000F601EE56FF4F8081823099F000E020E0B5
:1036700042E65AE064E370E087E690E00E94D623D9
:1036800021E040E659E064E370E087E690E00E94C4
:10369000D623112309F488C0F601EC5AFF4FE081CC
:1036A000E43091F018F0E53041F07EC0F0E0E25FE8
:1036B000FE4F80814AED59E00EC0D7018D919C915B
:1036C000892B31F487E601C08BE449EB59E003C054
:1036D00083E643E959E04115510509F465C000E06E
:1036E00020E064E370E0082E000C990B5BC000E062
:1036F00020E048E359E064E370E08FE390E00E944B
:10370000D62321E045EE58E064E370E08FE390E0DB
:103710000E94D62320E042E65AE064E370E087E6A8
:1037200090E00E94D62321E043EB58E064E370E090
:1037300087E690E00E94D6231123B1F1F601EC5AFE
:10374000FF4F8081882331F0813071F587E649EBA6
:1037500059E003C08FE340E858E04115510521F1DD
:1037600000E020E064E370E090E01CC000E020E0B6
:1037700044E658E064E370E08CE690E00E94D623D3
:1037800021E04BE358E064E370E08CE690E00E94B7
:10379000D623112349F020E04EE158E064E370E0C5
:1037A0008CE690E00E94D6234601B7E48B0E911C74
:1037B000F40120803296208131813E832D83329620
:1037C00030813F8331813887D50119968C911997C3
:1037D000809518969C911897892316962D913C9167
:1037E00017972F71332721313105F0F439979081E4
:1037F00091111AC014C000E020E042EA5BE064E3EB
:1038000070E089E390E00E94D62321E040E65BE08F
:1038100064E370E089E390E00E94D623FACC882329
:1038200009F450C2312C05C0882309F468C233243E
:103830003394F601E05BFF4F8081882371F0C6016D
:103840000E94BB2BF4011082138212821582148213
:10385000178216821086118611C18CE4D601169645
:103860008C93169717968C93179718961C92189707
:1038700087E01B968C931B9781E019968C933601F9
:10388000B2E06B0E711C63EB7CE0C3010E947027F9
:10389000332089F0222069F0EE24E39407E021E14F
:1038A00040E050E06FE670E0C2010E944429F6015A
:1038B000118633243394D601D0968C91D097D1962B
:1038C0009C9119821A821B821C828E010F5F1F4FEE
:1038D000F8012AE030E044E0400FB9010E94413392
:1038E0008193CB014E13F9CF7E01B5E0EB0EF11CB5
:1038F000F70142917F0150E060E070E02AE0C301EF
:103900000E941427E016F10699F781E0D601199676
:103910008C9321101BC066EA7CE0C3010E947027D3
:10392000F601E457FF4F60817181C6010E94BE2DF0
:1039300069E97CE0C3010E947027F601E657FF4F5A
:1039400060817181C6010E94BE2D98C08CE4F60191
:103950008683878388E08087F2E02F16F1F023E0EA
:103960002216D1F131E023124CC06DE87CE0C30196
:103970000E947027332071F0EE24E39407E02DE0DD
:1039800048E050E063E770E0C2010E944429D6019C
:1039900019961C926D817E811BC061E87CE0C30199
:1039A0000E947027332069F0EE24E39407E02DE0B5
:1039B00048E050E063E770E0C2010E944429F6014C
:1039C00011866F81788577FF03C0719561957109C4
:1039D000C6010E94BE2D15C0332071F0EE24E39481
:1039E00007E021E148E050E06FE670E0C2010E948C
:1039F0004429D60119961C926CE77CE0C3010E9411
:103A0000702781E0F60181871682178286E1808720
:103A1000EE5BFF4F808181110EC03D96E081EE2369
:103A200051F0F0E0EE0FFF1FE45EFE4F6081718108
:103A3000C3010E947027F601E05BFF4F8081815037
:103A4000808331969081891304C0C6010E94BB2BEC
:103A500015C0811113C0D4011C9213961C921E92A2
:103A6000129715961C921E92149717961C921E92EE
:103A7000169718961C92189719961C927601B2E424
:103A8000EB0EF11CF7018081882309F45AC1D5019E
:103A900019961C911997109518968C9118971823C0
:103AA0001F968C91813011F0512C02C044E0542EAD
:103AB0004601B5E48B0E911CF4018081811102C096
:103AC0008FE401C080E0682E712C00E020E04AEC19
:103AD00050E168E070E0C3010E94D623D5011F9633
:103AE000EC91F0E0EE0FFF1FE45BFE4F408151814F
:103AF00021E068E070E0C3010E94D623F501268131
:103B000037812F713327852D90E0232B11F40396F5
:103B100006C0F601EF5BFF4F2081820F911D880FD9
:103B2000991FFC01E45CFE4F40815181D5011F9635
:103B30008C91813019F062E170E002C060E170E0C8
:103B400000E021E0C3010C960E94D6235601B0E4A8
:103B5000AB0EB11CF501808196012D5B3F4F6901D1
:103B60008830F1F1A8F4833009F04EC0D9016C918E
:103B700070E000E020E042E850E180E090E00E9448
:103B8000D623F601608170E021E044E05DE039C0B9
:103B90008930A1F08A30C1F5D9016C9170E000E064
:103BA00020E042ED5EE080E090E00E94D623F60146
:103BB000608170E021E047EB5DE023C0D9016C91AA
:103BC00070E000E020E042E850E180E090E00E94F8
:103BD000D623F601608170E021E04BEF5FE011C079
:103BE000D9016C9170E000E020E042E850E180E013
:103BF00090E00E94D623F601608170E021E048E267
:103C00005FE080E090E052C0D4018C91882341F1C4
:103C1000F601608170E001E020E047EC5CE084E3C5
:103C200090E00E94D623D6016C9170E0645F7F4FD4
:103C300021E04FEB5CE085E390E00E94D623D501C4
:103C4000EC91F0E0EE0FFF1FE85DFE4F40815181E7
:103C5000F601608170E000E021E08CE390E026C096
:103C6000D6016C9170E000E020E047EC5CE08AE077
:103C700090E00E94D623F601608170E0645F7F4F80
:103C800021E04FEB5CE087E490E00E94D623D50171
:103C9000EC91F0E0EE0FFF1FE85DFE4F4081518197
:103CA000F601608170E021E08AE090E00E94D62376
:103CB000D7018C91111103C081508C9342C0F70140
:103CC00010823FC08CE4D60116968C9316971796F7
:103CD0008C93179718961C92189787E01B968C93D5
:103CE0001B9781E019968C933601B2E06B0E711C24
:103CF00063EB7CE0C3010E947027312CDCCD8CE4A7
:103D0000F60186838783108687E0838781E0818739
:103D10003601F2E06F0E711C63EB7CE0C3010E9480
:103D20007027B8CD012F069569E2601B80E090E016
:103D30000E94D32628E2201B812F90E0820F911D44
:103D4000C5C928960FB6F894DEBF0FBECDBFDF9170
:103D5000CF911F910F91FF90EF90DF90CF90BF9088
:103D6000AF909F908F907F906F905F904F903F901B
:103D70002F900895BF92CF92DF92EF92FF920F9310
:103D80001F93CF93DF93EB01B984B0942885B222BF
:103D900023EB34E1DC017C0140E4E40EF11C00E0A3
:103DA00010E460E070E2F901459154911C96ED91A8
:103DB000FC911D974E0F5F1F1D965C934E931C97B1
:103DC000F9013296C590D4901E96ED91FC911F9703
:103DD000CE0EDF1E1F96DC92CE921E9757FD1DC0A1
:103DE000D7FC1BC02C5F3F4F1496AE15BF05D9F60C
:103DF000B3FE02C023E0298F2E813F812F7033272D
:103E0000232BA1F4FC01E45BFF4F90819F5F953071
:103E100010F490830BC0108209C01D961C930E9362
:103E20001C971F967C936E931E97DCCFDF91CF91EA
:103E30001F910F91FF90EF90DF90CF90BF9008956A
:103E40009C01205C3F4F60E070E440E050E2FC01E8
:103E50007587648757874687049682179307B9F753
:103E60000895089580E090E00895A6EBB3E02FB7A1
:103E7000F8947D918D919C9166B52FBFA89B05C04C
:103E80006F3F18F47F5F8F4F9F4F22E0660F771FC1
:103E9000881F991F2A95D1F70895089508950895C8
:103EA0000895089508950895AF92BF92CF92DF923A
:103EB000EF92FF920F931F93CF93DF93EC017B015F
:103EC0004DEC56E164E070E084E090E00E94ED2566
:103ED00045EF55E161E270E08AE090E00E94ED2557
:103EE00043EF54E160E370E080E090E00E94ED2554
:103EF0009DE0C92ED12C10E05E018CE4A80EB11C0F
:103F0000D501EC91E10FE370F0E0EE0FFF1FE252FC
:103F1000FE4F4081518100E021E066E170E0C60182
:103F20000E94D6231F5FB8E0CB0ED11C1D3041F795
:103F30006E0180E4C80ED11CA3E0EA0EF11C4F858F
:103F4000042E000C550B6D85062E000C770B21E01E
:103F5000C7010E9426292496CC15DD0581F7DF9143
:103F6000CF911F910F91FF90EF90DF90CF90BF9076
:103F7000AF900895AF92BF92CF92DF92EF92FF92EF
:103F80000F931F93CF93DF93EC017B014BEF53E132
:103F900069E070E083E190E00E94ED2547E653E19F
:103FA00064E270E08CE190E00E94ED2500E021E009
:103FB0004AED52E165E370E080E090E00E94D62394
:103FC0009DE0C92ED12C10E05E018CE4A80EB11C3E
:103FD000D501EC91E10FE370F0E0EE0FFF1FEA5224
:103FE000FE4F4081518100E021E06AE170E0C601AE
:103FF0000E94D6231F5FB8E0CB0ED11C1D3041F7C5
:104000006E0180E4C80ED11CA3E0EA0EF11C4E85BF
:104010005F856C857D8521E0C7010E942629249655
:10402000CC15DD05A1F7DF91CF911F910F91FF9086
:10403000EF90DF90CF90BF90AF900895AF92BF9276
:10404000DF92EF92FF920F931F93CF93DF93EC01D8
:104050007B01FB01D184D0948085D8228E015E0142
:10406000F0E4AF0EB11CF80186859785019697871D
:10407000868780349105C4F060E470E080E090E0D1
:104080000E94F026DC01CB0180549109A109B109FD
:10409000F8019787868760E870E080E090E00E94F2
:1040A000F026F801758764870C5F1F4F0A151B0502
:1040B000D1F6D3FE03C083E0F701818FF70186813B
:1040C00097818F709927892B49F4C45BDF4F8881D2
:1040D0008F5F853010F4888301C01882DF91CF9103
:1040E0001F910F91FF90EF90DF90BF90AF900895D8
:1040F0000F931F93CF93DF93FC01E45BFF4F10827C
:10410000EC018C01005C1F4F60E470E080E090E007
:104110000E94F026DC01CB0180549109A109B1096C
:104120009F878E8760E870E080E090E00E94F02634
:104130007D876C872496C017D10731F7DF91CF9127
:104140001F910F910895CF92DF92EF920F931F93DB
:10415000CF93DF93FC016A3039F4858184839681A3
:104160008185890F8683AAC0A4816E3719F4AE5F5A
:10417000A483A4C0962FEF0166816F5F9A3384F405
:10418000903314F59B3219F11CF4913221F15DC08A
:104190009D3209F460C09E3209F057C01FE31CC075
:1041A0009B354CF4913474F49A3399F09F3309F0B1
:1041B0004CC012E411C08FE9890F8A3108F045C064
:1041C00019EB03C01FEB01C014E0190F05C011E487
:1041D00003C013E401C01EE38F81062E000C770B91
:1041E0000A2E000CBB0B813009F03AC0ECE0F2E182
:1041F0000491EDE0F2E1E490112379F1E02FF0E099
:104200002E2D269526952695422F50E021E030E070
:104210008E2D877011F420E030E0240F351FE29FCF
:104220006001E39FD00CF29FD00C11249601120381
:10423000A001139F500D1124425F5D4E9AEFC92ECD
:1042400020E030E0CD010E94942788858D5F9C811D
:10425000890F8C8333C010E4BFCF4EE052E1EECF24
:10426000ECE0F2E10491EDE0F2E1E490112309F1D8
:10427000E02FF0E02E2D269526952695422F50E032
:1042800021E030E08E2D877011F420E030E0240F23
:10429000351FE29F6001E39FD00CF29FD00C1124E8
:1042A00096011203A001139F500D1124425F5D4E31
:1042B00002C04EE052E18BEFC82EC2CF81E090E009
:1042C000DF91CF911F910F91EF90DF90CF900895E4
:1042D0000C94F0330C94F0330C94F0330C94F033D2
:1042E0000C94F033CF93DF93EC010E948D23CE0129
:1042F000DF91CF910C94F033FC0110821182128275
:104300001382118A108ADC01149670961D92AE17E2
:10431000BF07E1F708950F931F93CF93DF93EC014D
:104320008B0184EF91E099AB88AB1AAACE010C9671
:104330000E947C21CE014E960E947C211BAAFE0188
:10434000EC5BFF4F10827097CE01805C9F4F119203
:10435000E817F907E1F7D80151961C921E92509781
:1043600053961C921E92529755961C921E925497E9
:1043700057961C921E925697DE01AE5BBF4F80E4AB
:104380008C931082FE01EF5BFF4F1082329683E127
:10439000808332961082E05BFF4F1082E054F10977
:1043A0001082F80117821682CC5ADF4F1882DF91F3
:1043B000CF911F910F910895FC01DC01A457BF4FCD
:1043C0008D919C91119796958795653038F014964C
:1043D0002D913C91232B09F050C002C0643091F420
:1043E000DF01A057BF4F2D913C91275E3F4FAC019D
:1043F00055274217530740F020A931A9293131052B
:10440000F4F502C0633091F4DF01A057BF4F2D9146
:104410003C91265F3F4FAC0155274217530740F0B0
:1044200020A931A92A30310564F502C0623091F427
:10443000DF01A057BF4F2D913C912B5F3F4FAC0147
:1044400055274217530740F020A931A925303105DF
:104450001CF019C06623C9F0DF01A057BF4F2D9192
:104460003C912F5F3F4F99278217930780F080A9D7
:1044700091A9181619064CF00AC084E0089583E04B
:10448000089582E0089581E0089580E00895862FE0
:104490000895FC01653040F0DC01A457BF4F8D91B9
:1044A0009C91892BF1F502C0643069F4DF01A457B7
:1044B000BF4F8D919C91803B910538F480A991A9C3
:1044C00049978CF502C0633069F4DF01A457BF4FF0
:1044D0008D919C918F3B910538F480A991A90A9701
:1044E00024F502C0623069F4DF01A457BF4F8D91FB
:1044F0009C91843C910538F480A991A905971CF002
:1045000016C06623B1F0DF01A457BF4F8D919C9177
:10451000883C910580F480A991A9181619064CF0E1
:104520000AC084E0089583E0089582E0089581E060
:10453000089580E00895862F0895FC0183818230DC
:10454000D1F484814DE0642F0E943533292F3581C9
:10455000911105C0832F0E943533993050F4832F79
:104560006DE00E943533911106C081E0293020F4BE
:1045700002C081E0089580E008951F920F920FB667
:104580000F921124CF92DF92EF92FF920F931F931D
:104590002F933F934F935F936F937F938F939F934B
:1045A000AF93BF938091BA039091BB03A091BC03DA
:1045B000B091BD030196A11DB11D8093BA039093E4
:1045C000BB03A093BC03B093BD03492F5A2F6B2F9D
:1045D000772767FD7A95242F2E726C017D0139E0D3
:1045E000F594E794D794C7943A95D1F74C295D296F
:1045F0006E297F29489F402D112442238C019D0163
:104600005DE035952795179507955A95D1F70823BD
:1046100066E0B595A795979587956A95D1F7802B14
:1046200084278093CF00BF91AF919F918F917F910D
:104630006F915F914F913F912F911F910F91FF903B
:10464000EF90DF90CF900F900FBE0F901F901895B6
:104650000F930FB70F931F9211248F939F93EF9394
:10466000FF93EDEAF3E08091B50391E08D5F8D3724
:1046700010F08D5793958093B5038081890F8083C7
:104680009181911D91830281011D02838381811D8E
:10469000838309270F70092702950093B40335D04F
:1046A00081110093B203803989F40091B303901B08
:1046B000963070F087E7809300088093010888E1C6
:1046C00098E08093600090936000FFCF9093B303D5
:1046D0008091B103815018F08093B10359F3E6EB58
:1046E000F3E080819181019680839183828193811F
:1046F000811D911D82839383FF91EF919F918F91F3
:104700001F900F910FBF0F9118958FB18095807FEB
:10471000669B88601C9B8460089508950C94F03318
:10472000FC0184E691E091838083158214828AEEF5
:1047300091E09383828388E0838781E08287178278
:1047400010861682818708950895CF92DF92EF92A6
:10475000FF920F931F93CF93DF936C017A018B012C
:10476000C0E0D0E0CE15DF0589F0D8016D918D0154
:10477000D601ED91FC910190F081E02DC6010995E3
:10478000892B11F47E0102C02196ECCFC701DF9185
:10479000CF911F910F91FF90EF90DF90CF900895F0
:1047A0000895FC01148608950E9488342F923F9248
:1047B0004F925F926F927F928F929F92AF92BF9231
:1047C000CF92DF92EF92FF920F931F93CF93DF93DD
:1047D000CDB7DEB761970FB6F894DEBF0FBECDBF81
:1047E0007C014A01FA0134913196E491832F8F774D
:1047F0008F5F282E312CC701820D931D97FDA1C11B
:10480000F0E8EF16F1040CF09CC18E2F8F738F5FD0
:10481000AB01480F511D57FD94C1603471050CF078
:1048200090C1331F3327331F3B8331E0E6FF30E075
:10483000EE1FEE27EE1FEF83AB0177FF04C0442786
:104840005527461B570B5A0117E0A122BB24AB0189
:1048500077FF02C0495F5F4FDA0153E0B595A79536
:104860005A95E1F7BA83A98377FF0CC0A114B1046C
:1048700049F01197BA83A98348E050E0FA01EA1998
:10488000FB095F0141E050E06A010A2C02C0CC0C38
:10489000DD1C0A94E2F7D986C886982F96959695DE
:1048A0009695877011F4892F02C081E0890F482FF7
:1048B000880F550B5E834D83502F52705A8701FF2E
:1048C00006C0AD81BE81119781E0382702C0A0E00B
:1048D000B0E0602F61706C8300FF04C0B1016150D3
:1048E000710902C060E070E097E040E150E080E0D4
:1048F000612C712C8101015011091C870B870D81DE
:104900001E81A017B1070CF01CC1B7FD1AC18A01A6
:10491000CC24C394D12CF80143E0F695E7954A9551
:10492000E1F7E80DF91DE491F0E0A8014770552783
:1049300002C0F595E7954A95E2F7A8014F5F5F4FF2
:10494000E0FF05C01FEFC11AD10A8A01E4CFE1E000
:10495000CE16D104E9F4FA01F695E795F695E795B8
:10496000F695E795E80DF91DE491F0E047705527BD
:104970002F0102C0559447944A95E2F7F1E04F2287
:1049800055244FEF441A540AA8014E5F5F4F41C0AF
:104990008601015011091E870D8744244394512C30
:1049A0000D8402C0440C551C0A94E2F71FEF411A13
:1049B000510A00E010E0FA01F695E795F695E795C3
:1049C000F695E795E80DF91DE491CE2ED12CD98A04
:1049D000C88A6A01E7E0CE22DD24E889F98902C0AD
:1049E000F595E795CA94E2F7E0FF0AC0E1E0F0E050
:1049F000002E02C0EE0FFF1F0A94E2F74E0E5F1E5C
:104A00004F5F5F4F0F5F1F4FCD84DE840C151D0578
:104A100094F2C12CD12CC414D50409F48CC00B81A0
:104A2000002369F0E92FF0E0311105C007E010E044
:104A30000E1B1F0BF801E650FE4FE0818E2B9150AC
:104A400008F075C0882309F44AC019811A0F1F871E
:104A500018300CF044C0FB01EE0DFF1DE038F105ED
:104A6000F0F508851985809FF001819FF00D1124D4
:104A7000FE87ED871F8517FD15C0C701012F10E8C0
:104A80000103800D911D1124860F971FFC01E15435
:104A9000FC4F80819D85222311F0892B02C09095C7
:104AA00089238083A114B104D1F0EF85E730B9F0F8
:104AB000EF3FACF0C7010E2F10E80103800D911DF0
:104AC0001124860F971FFC01E15CFB4F80819E85BE
:104AD000222311F0892B02C09095892380830F81B6
:104AE000002311F011E031278FEF681A780A9C81BA
:104AF000992319F06150710902C06F5F7F4F6214F2
:104B0000730464F00A85002311F0119701C0119617
:104B10001C81112331F06B857C8505C097E080E016
:104B200006C060E070E097E080E0612C712CEFEF50
:104B3000CE1ADE0A70CFCC24C394DB80CD18CB8292
:104B4000DECE61960FB6F894DEBF0FBECDBFDF910B
:104B5000CF911F910F91FF90EF90DF90CF90BF907A
:104B6000AF909F908F907F906F905F904F903F900D
:104B70002F900895EF92FF920F931F93CF93DF939F
:104B8000EC0100E021E049EE57E160E070E080E0F8
:104B900090E00E94D6239DE0E92EF12C10E0EC85F8
:104BA000E10FE370F0E0EE0FFF1FEE50FE4F40818B
:104BB000518100E021E06BE170E0C7010E94D62343
:104BC0001F5F88E0E80EF11C1D3049F7DF91CF919F
:104BD0001F910F91FF90EF9008954F925F927F92F7
:104BE0008F929F92AF92BF92CF92DF92EF92FF92FD
:104BF0000F931F93CF93DF9300D000D0CDB7DEB7D4
:104C0000DC014115510509F4BAC0FA01D49031967E
:104C100034914D2C512C5C01A40CB51C1A141B04AE
:104C20000CF0ADC0803891050CF0A9C0CB01830F0A
:104C3000911D181619060CF0A2C0603471050CF015
:104C40009EC0F62FF770EF2ECB0177FD079623E07D
:104C5000959587952A95E1F7F82F77FF04C0EE2008
:104C600011F0FFEFF80FB7FF05C0662777276A1B23
:104C70007B0B02C060E070E000E8A016B10424F0F5
:104C800080E8F82EFA1A01C0FD2CF61AAF2E0F2E6E
:104C9000000CBB08FF3F1CF4CA2CC09401C0C12CFF
:104CA00091E0832F877009F490E03695369536951C
:104CB000930FA90EB11C19E0A116B10414F098E0ED
:104CC0009F1B8C2D8F0F9D01082F10E80103200DD5
:104CD000311D1124260F371F4E5F5F4FCD9C600D95
:104CE000711D1124460F571F61E070E00E2C02C0A9
:104CF000660F771F0A94E2F7EFEFE69FD001E79F78
:104D0000B00D1124A095B095BC83AB837C809F0F20
:104D10008917A9F1F901E154FC4F6F01A12CB12CC5
:104D2000AF1438F5FA01EA0DFB1DE491E69F40014E
:104D3000E79F900C11249A82898287FD07C0F601B3
:104D40001081E12FEA238E2AF6018082EE2051F0B5
:104D5000873044F4F601E058FF4F908097208A8016
:104D600098289082FFEFAF1ABF0A0FEFC01AD00A3F
:104D7000D7CF8F5F440D551D20583F4FC9CF0F909F
:104D80000F900F900F90DF91CF911F910F91FF9097
:104D9000EF90DF90CF90BF90AF909F908F907F90DB
:104DA0005F904F9008959C01260F311D1216130637
:104DB000B4F4803891059CF497FF02C080E090E045
:104DC0002138310514F020E830E0281BFC01E154C3
:104DD000F94F215020F0808188608193FACF0895A7
:104DE000CF93DF9300D000D0CDB7DEB7611571054A
:104DF0008105910579F09B01AC0169833A834B836E
:104E00005C830E94AE3229813A814B815C810E9491
:104E1000D23203C060E070E0CB010F900F900F9092
:104E20000F90DF91CF9108954F925F926F927F9292
:104E3000EF92FF920F931F93CF93DF93CDB7DEB71F
:104E4000A1970FB6F894DEBF0FBECDBF7C01FA016B
:104E5000CB0119A2223008F42AE08E010F5D1F4F0A
:104E6000422E512C612C712CBF01A30192010E9492
:104E70000433F901CA01015011096A3014F4605D6C
:104E800001C0695CD8016C93232B242B252B61F77F
:104E90000115110591F0F80101900020E9F7319713
:104EA000AF01401B510BD701ED91FC910280F381C2
:104EB000E02DB801C701099502C080E090E0A196FD
:104EC0000FB6F894DEBF0FBECDBFDF91CF911F911B
:104ED0000F91FF90EF907F906F905F904F900895AB
:104EE000EF92FF920F931F93CF93DF938C017B017F
:104EF000C0E0D0E0F701EC0FFD1F6491662361F084
:104F0000D801ED91FC910190F081E02DC801099547
:104F1000892B11F02196EECFCE01DF91CF911F9119
:104F20000F91FF90EF9008952F923F924F925F92D2
:104F30006F927F928F929F92AF92BF92CF92DF92A9
:104F4000EF92FF920F931F93CF93DF9300D000D087
:104F500000D0CDB7DEB7F02ECD82A02FB0E06C012F
:104F6000CA0EDB1E1C141D040CF0F3C08038910522
:104F70000CF0EFC0FB01EE0DF11D1E161F060CF02C
:104F8000E8C0603471050CF0E4C04115510509F426
:104F9000E0C0062F0770602EFB0177FD379613E007
:104FA000F595E7951A95E1F71E2F77FF04C0662067
:104FB00011F01FEF1E0F97FF05C0EE27FF27E81B1C
:104FC000F90B02C0E0E0F0E060E8C616D10424F07E
:104FD00060E8962E981A01C09F2C9E1A612F012E10
:104FE000000C770B1F3F1CF4B62EB09401C0B12CFF
:104FF000DD24D3940E2D077009F4D12CE694E694A9
:10500000E694ED0C6E0D711D693071051CF068E0C1
:10501000E62EE11A8B2C810E782D00E87003800DAE
:10502000911D11248E0F9F1F61E070E0062C02C0BD
:10503000660F771F0A94E2F70D81033011F001E04B
:1050400001C002E0A919B1090A9F302C1124C02E19
:10505000D12CBF9CE00DF11D1124CE9ED001CF9E1E
:10506000B00DDE9EB00D11245A01AA0EBB1E2115F3
:10507000310509F0A901960121503109A20FB31F92
:105080004A0F5B1FEFEFE69F9001E79F300D112461
:105090002901409450941E0D1E83232D30E0099D5C
:1050A000200D311D11240E81801609F452C0DC013F
:1050B000A154BC4F7A018501712C791409F441C0C7
:1050C000F8013490369EF001379EF00D1124FA83DA
:1050D000E983E095F095FC83EB83FD81F23019F4D0
:1050E0005C824B8211C0ED81EB3F19F41A82198268
:1050F0000BC0F7013490369EF001379EF00D11245D
:10510000E095F095FC83EB8387FC06C0FC91EB8176
:10511000EF23F981EF2BEC93662061F0F6E0F815B0
:105120004CF0FD01E058FF4F20803C8023203A8066
:1051300032283082EC0CFD1C0C0D1D1D7394119651
:10514000BCCF8394A20EB31E420F531F80589F4FB3
:10515000AACF26960FB6F894DEBF0FBECDBFDF9163
:10516000CF911F910F91FF90EF90DF90CF90BF9064
:10517000AF909F908F907F906F905F904F903F90F7
:105180002F900895F89487E7809300088093010892
:10519000A89588E18093600088E080936000FFCF4D
:1051A000DC01FB01808591859095982384FF0CC0DC
:1051B0001D968C911D97803128F48F5F1D968C93DE
:1051C0001D9705C00E94C2281D961C921D9726811E
:1051D00037812F703327232B59F41C968C911C9701
:1051E0008F5F853018F41C968C9302C01C961C921D
:1051F00093FF03C0178681E0818F92FF03C081E097
:105200008787818F0895BC0180E090E0AB01FC01AD
:105210000E94351F41505109E109F10928F06851F8
:105220007C4F8F4F9F4FF6CFAB01FC010E94351F83
:10523000641775078E079F07C8F308958FB180958F
:10524000807F669B88601C9B846008956038710530
:10525000D0F440345105B8F4EAEEF8E180E1849FDF
:10526000D001A0781124A60F4770E40FF11D84919E
:10527000A154BC4F222319F06C91862B03C080955A
:105280006C9186238C9308956F927F928F929F9258
:10529000AF92BF92CF92DF92EF920F931F93CF9373
:1052A000DF934C016A01EB013B01620E711C5A0154
:1052B000A00EB11CC615D705DCF48601D7FE0EC0C2
:1052C00000E010E00BC00817190784F42E2DA80188
:1052D000BE01C4010E9426290F5F1F4FC50121E4B2
:1052E000A216B10484F380E490E0EDCF2196E2CFE2
:1052F000DF91CF911F910F91EF90DF90CF90BF90F2
:10530000AF909F908F907F906F900895FC01DB018C
:1053100019968C911997809518969C9118978923C6
:1053200069F0803831F08485882331F18CE78487F7
:1053300023C08585811102C080E685878485882306
:10534000A9F08F5F8487853059F08D3761F0823006
:1053500069F480E596E4909399008093980006C0E4
:105360001092900003C083E059968C938585882322
:1053700091F081508587089584858111DFCF81E088
:10538000848780E48093900081E49FE0909399006B
:1053900080939800D3CF089508956F927F928F9253
:1053A0009F92AF92BF92CF92DF92EF92FF920F93B4
:1053B000CF93DF93802F6DE00E943533C22FD0E072
:1053C000642E712C882E912CA92EB12CCC2029F181
:1053D00000E021E04CEB5AE1BE01C3010E94D6235C
:1053E000F401EE0FFF1FE25CFD4F40815181BE01D1
:1053F000655F7F4F20E0C30108960E94D623F50128
:10540000EE0FFF1FEC5DFD4F40815181BE016C5FCF
:105410007F4F20E0C30103965CC0EE20A1F16E0136
:1054200086E0C80ED11C730184E0E81AF10800E0A0
:1054300020E04DE95AE1B601C7010E94D62321E0E0
:105440004FE55AE1B601C7010E94D623F401EE0FE1
:10545000FF1FE45EFD4F40815181BE01605F7F4FC1
:1054600020E0C30109960E94D623F501EE0FFF1F2D
:10547000EE5FFD4F40815181BE01665F7F4F20E0AE
:10548000C301439626C000E021E043E45AE1BE0197
:10549000C3010E94D623730183E0E80EF11CF401DE
:1054A000EE0FFF1FE25CFD4F40815181BE01655F41
:1054B0007F4F20E0C7010E94D623F501EE0FFF1FAA
:1054C000EC5DFD4F40815181BE016C5F7F4F20E05C
:1054D000C7010E94D623DF91CF910F91FF90EF90EB
:1054E000DF90CF90BF90AF909F908F907F906F9004
:1054F0000895EF92FF920F931F93CF93DF93EC01E8
:105500007B0100E021E046E75BE161E170E08FE2D2
:1055100090E00E94D62321E04BE55BE16AE170E078
:105520008BE290E00E94D62321E04BE55BE16AE14B
:1055300070E089E490E00E94D6238D85882359F09D
:1055400080E78E838F838AE3888766E57BE1CE01DF
:1055500002960E9470278C8500E021E0811112C024
:105560004BE55BE16AE170E08AE390E00E94D623BC
:1055700021E04EE15BE16EE270E08AE190E00E94A2
:10558000D6232AC043E05BE16AE170E08AE390E061
:105590000E94D62321E047EE5AE16EE270E08CE2F1
:1055A00090E00E94D6238C856FE00E943533C82F8F
:1055B000C3700FE410E0D0E083E0E80EF11CDC17CC
:1055C00059F021E041E350E0B801C7010E942629CB
:1055D000DF5F0E5F1F4FF3CFDF91CF911F910F91D0
:1055E000FF90EF900895CF93FC01613021F543A91E
:1055F000F496DF01C0E030E05DE08A2F8E1B841757
:1056000008F042C08D91652F0E9435339A3071F0B9
:1056100028F4992341F0993049F00AC09B3031F0C9
:105620009C3021F005C03F5FCF5FE7CF365FE5CF0D
:105630003F5F390FE2CF611125C041112EC0478570
:105640007096DF01C0E030E05DE08A2F8E1B84178A
:10565000D8F48D91652F0E9435339A3071F028F47B
:10566000992341F0993049F00AC09B3031F09C30C9
:1056700021F005C03F5FCF5FE8CF365FE6CF3F5FE9
:10568000390FE3CFC0E030E0222361F13C3050F528
:10569000CC2341F1365FC150F9CF413099F751A188
:1056A000B296DF01C0E030E04DE08A2F8E1B8517F7
:1056B00058F78D91642F0E9435339A3071F028F499
:1056C000992341F0993049F00AC09B3031F09C3069
:1056D00021F005C03F5FCF5FE8CF365FE6CF3F5F89
:1056E000390FE3CF832FCF910895EF92FF921F934D
:1056F000CF93DF931F92CDB7DEB77C01162F64E303
:1057000070E080E090E049830E94F026862FF70148
:10571000E60FF11DEA5AFF4F908149819111EFCFB9
:1057200091E09083113049F4F70193A9E90FF11D3D
:1057300064AB9F5FF70193AB17C0111115C0411106
:1057400009C0F7019785E90FF11D608B9F5FF70195
:1057500097870AC0413041F4F70191A1E90FF11D8B
:1057600082A39F5FF70191A30F90DF91CF911F91CB
:10577000FF90EF900895CF93DF93FC01DC01A95BCC
:10578000BF4F8C918230B1F0833019F1813061F5D7
:10579000A95BBF4FEF01C75BDF4F288139818D9136
:1057A0009C911197820F931F11969C938E93A154F5
:1057B000B10912C0DF01A257BF4FE55BFF4F208147
:1057C00031818D919C911197820F931F8D939C93A2
:1057D0000BC0DF01A35BBF4F20A931A98D919C9124
:1057E000820F931F91AB80ABDF91CF9108955F92B1
:1057F0006F927F928F929F92AF92BF92CF92DF92E1
:10580000EF92FF920F931F93CF93DF93EC015B0115
:105810008F851CE0819F102D11248D85811189E0D9
:10582000165F180F99A18F8D811189E0992331F0AE
:105830002CE0929F800D11248A5E01C080E04E0111
:10584000E2E98E0E911CF4012081DD24D394222301
:1058500019F0223009F0D12C911106C0169588E27A
:10586000F82EF11A10E007C0810F869590E4F92E0A
:10587000F81A145F1F0D3E01F2E46F0E711CF30164
:105880008081882341F033968081882321F089A18B
:10589000811144C098C0512C8F855816C0F74D8592
:1058A000252D30E090E04423C9F0FE01E20FF31F04
:1058B000AC01415051092417350751F40089D1102A
:1058C00002C025E201C020E2C12CEE24E3941DC0F9
:1058D000029700892817390749F40FC00197FE0184
:1058E000E20FF31F0089281739073CF4D11002C0DA
:1058F00025E201C020E2C12C07C0D11002C025E280
:1059000001C020E2CC24C394E12C4F2DB501CE017F
:105910000E94CD295394FCE0FF0EBECFF30180819D
:10592000882339F0FE01EB5BFF4F8081882309F467
:105930004AC0F40180818150FF24F394823008F042
:10594000F12CD12C89A1D816F0F54F8D2D2D30E0FA
:1059500090E04423C9F0FE01E20FF31FAC01415077
:1059600051092417350751F402A1F11002C025E2B4
:1059700001C020E2C12CEE24E3941DC0029702A1D5
:105980002817390749F40FC00197FE01E20FF31FF2
:1059900002A1281739073CF4F11002C025E201C02A
:1059A00020E2C12C07C0F11002C025E201C020E2B4
:1059B000CC24C394E12C412FB501CE010E94CD2906
:1059C000D394145FBFCFDF91CF911F910F91FF90C0
:1059D000EF90DF90CF90BF90AF909F908F907F908F
:1059E0006F905F9008956F927F928F929F92AF9287
:1059F000BF92CF92DF92EF92FF920F931F93CF93BC
:105A0000DF934C01D42F5C0184E3A80EB11CF40198
:105A100083A9CCE08C9FC02D1124C65FC695C65DBE
:105A2000C12CD12C1DE0F40183A990E0C816D90641
:105A30000CF095C00197C816D9060CF044C0DD23C0
:105A400029F077247394C114D10409F0712CF50165
:105A500060804EEFE42EEC0EF12C03E021E043E4F5
:105A60005AE16BEF7FEFC7010C970E94D623C70165
:105A700007977C0171101FC0862D612F0E9435335E
:105A8000792EE82FF0E0EE0FFF1FE25CFD4F408122
:105A9000518120E06FEF7FEFC7010E94D623E72DF1
:105AA000F0E0EE0FFF1FEC5DFD4F4081518120E0E3
:105AB00067E070E006C000E020E049EF59E16FEFD9
:105AC0007FEFC70142C0DD2329F077247394C1140E
:105AD000D10409F0712CF5016080EC2EF12C03E06B
